:020000040800F2
:10000000005000201D0F0008090B00080B0B000812
:100010000D0B00080F0B0008110B0008000000007A
:10002000000000000000000000000000512D00084A
:10003000130B000800000000F12D0008352E000809
:10004000650F0008650F0008650F0008650F0008C0
:10005000650F0008650F0008650F0008650F0008B0
:10006000650F0008650F0008650F0008150B0008F4
:10007000650F0008650F0008650F0008650F000890
:10008000650F0008650F0008650F0008650F000880
:10009000650F0008650F0008650F0008650F000870
:1000A000650F0008250B0008650F0008650F0008A4
:1000B000650F0008650F0008650F0008650F000850
:1000C000650F0008650F0008650F0008650F000840
:1000D000650F0008650F0008650F0008650F000830
:1000E000650F0008650F0008650F0008000000009C
:1000F0000000000000000000000000000000000000
:0C01000000000000000000005FF808F1A3
:1001100010B5054C237833B9044B13B10448AFF341
:1001200000800123237010BD540400200000000053
:100130002842000808B5034B1BB103490348AFF33D
:10014000008008BD0000000058040020284200087C
:1001500053B94AB9002908BF00281CBF4FF0FF312E
:100160004FF0FF3000F076B9ADF1080C6DE904CE28
:1001700000F006F8DDF804E0DDE9022304B0704782
:100180002DE9F047089E0D4604468846002B4DD1C8
:100190008A42944668D9B2FA82F252B101FA02F365
:1001A000C2F1200120FA01F10CFA02FC41EA030835
:1001B00094404FEA1C41B8FBF1F71FFA8CFE01FB9B
:1001C000178807FB0EF0230C43EA084398420AD92C
:1001D0001CEB030307F1FF3580F01E81984240F2CB
:1001E0001B81023F63441B1AB3FBF1F001FB103388
:1001F00000FB0EFEA4B244EA0344A6450AD91CEB58
:10020000040400F1FF3380F00981A64540F2068125
:10021000644402380021A4EB0E0440EA07401EB1FA
:100220000023D440C6E90043BDE8F0878B4208D9DB
:10023000002E00F0EE800021C6E900050846BDE86A
:10024000F087B3FA83F100294AD1AB4202D382424C
:1002500000F2FC80841A65EB030301209846002E0F
:10026000E2D0C6E90048DFE702B9FFDEB2FA82F267
:10027000002A40F09180A1EB0C0001214FEA1C47BD
:100280001FFA8CFEB0FBF7F307FB1300250C45EAC1
:1002900000450EFB03F0A84208D91CEB050503F14D
:1002A000FF3802D2A84200F2CE8043462D1AB5FB99
:1002B000F7F007FB10550EFB00FEA4B244EA05441C
:1002C000A64508D91CEB040400F1FF3502D2A6456F
:1002D00000F2B6802846A4EB0E0440EA03409EE7F5
:1002E000C1F120078B4022FA07FC4CEA030C25FAE7
:1002F00007FA4FEA1C49BAFBF9F820FA07F309FBA1
:1003000018AA8D401FFA8CFE1D4300FA01F308FB6A
:100310000EF02C0C44EA0A44A04202FA01F20BD976
:100320001CEB040408F1FF3A80F08880A04240F200
:100330008580A8F102086444241AB4FBF9F009FB93
:10034000104400FB0EFEADB245EA0444A64508D9B0
:100350001CEB040400F1FF356CD2A6456AD90238C3
:10036000644440EA0840A0FB0295A4EB0E04AC42B2
:10037000C846AE4656D353D0002E69D0B3EB080220
:1003800064EB0E0422FA01F304FA07F71F43CC4092
:10039000C6E90074002147E70CFA02FCC2F1200113
:1003A00025FA01F34FEA1C4720FA01F195400D436D
:1003B000B3FBF7F107FB11331FFA8CFE280C40EA60
:1003C000034001FB0EF3834204FA02F408D91CEB4C
:1003D000000001F1FF382FD283422DD90239604449
:1003E000C01AB0FBF7F307FB1300ADB245EA0045B6
:1003F00003FB0EF0A84208D91CEB050503F1FF38FA
:1004000016D2A84214D9023B6544281A43EA014196
:1004100038E73146304607E72F46E4E61846F9E666
:100420004B45A9D2B9EB020865EB0C0E0138A3E7E6
:100430004346EAE7284694E74146D1E7D0467BE7C2
:100440006444023847E7023B65442FE7084606E765
:100450003146E9E6704700BF00B585B0002301933F
:10046000029303931048114A0260836001220273D1
:1004700003754FF46021C1614360026100F080FFA9
:1004800060B90023019301220292039301A9064857
:1004900000F0CCFD28B905B05DF804FB00F0C6F90A
:1004A000EFE700F0C3F9F6E77004002000240140F4
:1004B00010B586B00023029303930493059302685A
:1004C0001E4B9A4201D006B010BD044603F56C43A2
:1004D0009A6942F400729A619A6902F40072009279
:1004E000009A9A6942F004029A619B6903F004033E
:1004F0000193019B1F2302930323039302A9104836
:1005000001F0C4F90F48104B03600023436083607F
:100510008022C2604FF4807202614FF480624261B7
:1005200020228261C36101F09DF818B9054B236256
:100530005C62C8E700F07AF9F8E700BF00240140E8
:1005400000080140A00400200800024000B583B06C
:100550000A4B5A6942F001025A615B6903F00103D8
:100560000193019B002205210B2001F01FF80B20B5
:1005700001F054F803B05DF804FB00BF0010024026
:1005800008B5134A0121084603F0C2FC114A0121B3
:10059000032003F0BDFC6FF0590003F0B1FA6FF0D7
:1005A000590003F0FDFA6FF0590003F01DFB6FF0E6
:1005B000590003F0C9FA084B1B685A229A63074B8B
:1005C0001B6800221A64012002F02EFBE3E700BF43
:1005D000B8420008C4420008F40700208408002044
:1005E00008B50122044B1988044803F021FB0120BF
:1005F00002F01AFBF5E700BF12430008144300089D
:1006000010B505221049114800F0F6FD03F026FA56
:100610000F4B1B6840F2E732DA6303F071F90D4CBF
:10062000208003F021FA01230B4A127B1946184659
:1006300003F08AFC022322880121184603F084FC7F
:10064000012002F0F1FAE8E7E40400207004002041
:1006500084080020F804002014000020034B0360ED
:10066000034B0B6080231360704700BF000700201E
:100670000005002010B596B01B4C0DF13C0CA646B1
:10068000BEE80F00ACE80F009EE807008CE807000A
:1006900000210FA802F093FA144B18600DF1200C02
:1006A00004F11C0EBEE80F00ACE80F009EE8070046
:1006B0008CE80700002108A802F081FA0C4B1860B2
:1006C0000DF1040E04F1380CBCE80F00AEE80F0089
:1006D0009CE807008EE80700002101A802F06FFAED
:1006E000044B186016B010BD40420008F40400200E
:1006F000F0040020FC0400202DE9F04788B000241D
:1007000004940594069407943D4B9A6942F01002B4
:100710009A619A6902F010020092009A9A6942F076
:1007200020029A619A6902F020020192019A9A6964
:1007300042F004029A619A6902F004020292029A5B
:100740009A6942F008029A619B6903F008030393D7
:10075000039BDFF8B09022464FF42041484601F059
:10076000AEF9DFF8A48022464FF43C41404601F048
:10077000A6F9264D22464FF41141284601F09FF973
:100780004FF4204304930127059706940226079609
:1007900004A9484601F07AF84FF4804ACDF810A039
:1007A0000594069404A9484601F070F84FF43C43C0
:1007B000049305970694079604A9404601F066F84D
:1007C000CDF810A0124B0593069404A9404601F001
:1007D0005DF84FF41143049305970694079604A916
:1007E000284601F053F84FF40063049305940694EF
:1007F00004A9284601F04AF808B0BDE8F08700BF18
:100800000010024000100140000C014000080140AF
:100810000000111008B50268034B9A4200D008BDD1
:1008200000F0B4FBFBE700BF002C014072B6FEE70E
:1008300000B595B0282200210DEB020003F032FC38
:10084000002305930693079308930993019302935A
:100850000393049301220A924FF480330B930E9278
:100860000222119212934FF4E01313930AA801F09D
:1008700043F9C8B90F23059302210691002307937A
:100880004FF480620892099305A801F067FB68B9EC
:10089000022301934FF40043039301A801F058FC95
:1008A00030B915B05DF804FBFFF7C0FFFFF7BEFFDE
:1008B000FFF7BCFF08B500F057FBFFF7B9FFFFF7E4
:1008C0001BFFFFF743FE00F04FF800F0D9F900F0EE
:1008D00017FA00F071FA00F0CBFAFFF7BDFD1E48E1
:1008E00000F0D2FD1D4C0021204602F03DF804210D
:1008F000204602F039F81A4C0021204602F034F864
:100900000421204602F030F80821204602F02CF89D
:100910000C21204602F028F8124C0021204602F05B
:1009200023F80421204602F01FF80821204602F097
:100930001BF80C21204602F017F8482003F036F887
:1009400003F034FB03F08AF803F09AFAFFF792FE03
:1009500002F030F9FEE700BF70040020F407002029
:100960003C0800208408002008B50E480E4B0360A8
:100970004FF48273436000238360C360036143616B
:100980004FF4007282613822C26103624362836263
:100990000A23C36201F0D4FC00B908BDFFF746FF8B
:1009A000FBE700BF540700200030014010B586B0BF
:1009B000002302930393049305930268164B9A4213
:1009C00001D006B010BD03F560439A6942F480522D
:1009D0009A619A6902F480520092009A9A6942F0F0
:1009E00004029A619B6903F004030193019BA02315
:1009F00002930223039303230593084C02A9204684
:100A000000F044FF4023029300230393049302A9C0
:100A1000204600F03BFFD4E70030014000080140D1
:100A200000B583B0114B9A6942F001029A619A694C
:100A300002F001020092009ADA6942F08052DA6113
:100A4000DB6903F080530193019B00220F216FF0BB
:100A5000010000F0ABFD064A536823F0E06343F069
:100A60000073536003B05DF804FB00BF0010024048
:100A70000000014030B589B004461E4B9A6942F42B
:100A800000629A619B6903F400630193019B02A9D0
:100A900003A801F03FFB01F02DFB03461648A0FB25
:100AA00003239B0C013B1548154A026040F2E732D4
:100AB000C2604360002303618360836101F04CFEE8
:100AC000054610B1284609B030BD0C4801F01AFDAA
:100AD00005460028F6D1192000F0A0FD0F2C01D901
:100AE0000125EFE700222146192000F05FFD054BAC
:100AF0001C60E7E70010024083DE1B43AC070020C8
:100B0000002C014008000020FEE7FEE7FEE7FEE7BC
:100B1000FEE7704708B5024800F016FE08BD00BFAA
:100B2000A004002008B5024801F024FD08BD00BF64
:100B3000AC0700207047000084B00368B3F1804F19
:100B400007D0154A934210D0144A934218D004B0EB
:100B5000704703F50433DA6942F00102DA61DB69B8
:100B600003F001030193019BF1E70D4BDA6942F0B9
:100B70000202DA61DB6903F002030293029BE6E7FB
:100B8000074BDA6942F00402DA61DB6903F004031F
:100B90000393039BDBE700BF000400400008004014
:100BA0000010024000B589B000230493059306931A
:100BB00007930368B3F1804F08D02C4A934223D0A7
:100BC0002B4A93423DD009B05DF804FB03F5043392
:100BD0009A6942F008029A619B6903F00803019345
:100BE000019B0823049302230593079304A921483A
:100BF00000F04CFE204A536823F4407343F0E06356
:100C000043F480735360DEE71C4B9A6942F008029C
:100C10009A619B6903F008030293029B33230493B8
:100C200002230593079304A9124800F02FFE124AED
:100C3000536823F4406343F0E06343F4006353607C
:100C4000C1E70E4B9A6942F008029A619B6903F072
:100C500008030393039B4FF47073049302230593DB
:100C6000079304A9034800F011FEACE7000400401C
:100C700000080040000C014000000140001002404C
:100C800000B58BB00023089309930193029303935B
:100C9000049305930693079318484FF0804202602F
:100CA0004722426083606322C2600361836101F076
:100CB0007FFDD0B900230893099308A90F4801F0DC
:100CC000C1FEA8B960230193002302930393059307
:100CD00004220DEB0201094801F0C8FD58B907488C
:100CE000FFF760FF0BB05DF804FBFFF79FFDE1E746
:100CF000FFF79CFDE6E7FFF799FDF0E7F40700201A
:100D000000B58BB0002308930993019302930393DA
:100D100004930593069307932548264A02604722C9
:100D2000426083606322C2600361836101F040FD21
:100D300058BB00230893099308A91D4801F082FEBF
:100D400030BB60230193002202920392059201A915
:100D5000174801F08BFDF0B904220DEB0201144895
:100D600001F084FDD0B9082201A9114801F07EFDEF
:100D7000B8B90C2201A90E4801F078FDA0B90C48C1
:100D8000FFF710FF0BB05DF804FBFFF74FFDD0E756
:100D9000FFF74CFDD5E7FFF749FDDDE7FFF746FD1F
:100DA000E1E7FFF743FDE4E7FFF740FDE7E700BFBA
:100DB0003C0800200004004000B58BB000230893DD
:100DC0000993019302930393049305930693079366
:100DD0002548264A02604722426083606322C2603F
:100DE0000361836101F0E4FC58BB0023089309937D
:100DF00008A91D4801F026FE30BB602301930022A4
:100E000002920392059201A9174801F02FFDF0B953
:100E100004220DEB0201144801F028FDD0B908228C
:100E200001A9114801F022FDB8B90C2201A90E4810
:100E300001F01CFDA0B90C48FFF7B4FE0BB05DF843
:100E400004FBFFF7F3FCD0E7FFF7F0FCD5E7FFF773
:100E5000EDFCDDE7FFF7EAFCE1E7FFF7E7FCE4E79D
:100E6000FFF7E4FCE7E700BF84080020000800402B
:100E700008B50A480A4B03604FF4E133436000238E
:100E80008360C36003610C2242618361C36101F02E
:100E90005BFE00B908BDFFF7C9FCFBE7CC080020EA
:100EA0000038014010B586B00023029303930493E9
:100EB00005930268174B9A4201D006B010BD03F5A6
:100EC00058439A6942F480429A619A6902F48042D6
:100ED0000092009A9A6942F004029A619B6903F0B9
:100EE00004030193019B4FF40073029302230393C5
:100EF00003230593084C02A9204600F0C7FC4FF4D9
:100F00008063029300230393049302A9204600F018
:100F1000BDFCD2E70038014000080140FFF70AFE9F
:100F20000B480C490C4A002302E0D458C450043347
:100F3000C4188C42F9D3094A094C002301E013601C
:100F40000432A242FBD303F089F8FFF7B3FC7047E9
:100F50000000002054040020E45100085404002044
:100F600078160020FEE7000008B5074A136843F032
:100F700010031360032000F007FB0F20FFF77AFD3A
:100F8000FFF74EFD002008BD00200240034A116813
:100F9000034B1B780B441360704700BF14090020FB
:100FA00004000020014B1868704700BF140900209E
:100FB000704708B5436A9A6A12F0500F1ED19A6AB8
:100FC00042F400729A621A68926802F46022B2F5E2
:100FD000602F03D01846FFF7EBFF08BD1A7B002AED
:100FE000F8D19A6A22F480729A629A6A12F4805F47
:100FF000F0D19A6A42F001029A62EBE71B6A1B6B1E
:101000009847EAE7704708B5406AFFF7FBFF08BD5D
:10101000704708B5406A836A43F040038362C36A3D
:1010200043F00403C362FFF7F3FF08BD30B482B09E
:101030000022019290F82420012A00F091800346BA
:10104000012280F824204A68062A2DD80468606BA3
:1010500002EB8202053A4FF01F0C0CFA02FC20EA68
:101060000C000D6805FA02F2024362630A68092A5D
:101070003AD91C68E06802EB42021E3A4FF0070CB6
:101080000CFA02FC20EA0C008D6805FA02F2024319
:10109000E2600A68103A012A36D90020002283F85B
:1010A000242002B030BC70470C2A0ED80568286B8B
:1010B00002EB8202233A1F24944020EA04000C68C9
:1010C00004FA02F202432A63D0E70568E86A02EBF9
:1010D0008202413A1F24944020EA04000C6804FA7A
:1010E00002F20243EA62C1E71C68206902EB420295
:1010F0004FF0070C0CFA02FC20EA0C008D6805FA90
:1011000002F202432261C4E71A681648824205D0FF
:101110009A6A42F020029A620120BFE7906810F4B8
:10112000000F1BD1906840F4000090600A68102AFC
:1011300001D00020B2E70C4A12680C49A1FB021250
:10114000920C02EB82025200019202E0019A013AF3
:101150000192019A002AF9D100209FE700209DE723
:1011600002209EE7002401400000002083DE1B4394
:1011700030B583B00023019303689A6812F0010F21
:1011800033D104469A6842F001029A60184B1B68FA
:10119000184AA2FB03239B0C019302E0019B013B35
:1011A0000193019B002BF9D1FFF7FCFE0546236854
:1011B0009B6813F0010F16D1FFF7F4FE431B022BBF
:1011C000F5D923689B6813F0010FF0D1A36A43F0AF
:1011D0001003A362E36A43F00103E362002384F88F
:1011E0002430012002E0002000E0002003B030BDE8
:1011F0000000002083DE1B43F8B504460D4616466A
:1012000001684448814259D0434B994256D094F8E2
:101210002430012B7CD0012384F824302046FFF7B2
:10122000A7FF074600286ED1A16A21F4706121F062
:10123000010141F48071A1622268374B9A4244D087
:10124000A36A23F48013A362536813F4806F05D05C
:10125000A36A23F4405343F48053A362A36A13F4B4
:10126000805F48D0E36A23F00603E362002384F83A
:101270002430236A294A9A62236A294ADA62236A55
:10128000284A1A6323686FF002021A602268936882
:1012900043F480739360216833462A464C31206AB8
:1012A00000F016FA23689A6802F46022B2F5602F03
:1012B00024D09A6842F480129A6027E0154B5B684C
:1012C00013F4702FA3D0012720E0A3F580635B689F
:1012D00013F4702FB4D0A36A43F48013A3620D4BB0
:1012E0005B6813F4806FB9D0A36A23F4405343F4CE
:1012F0008053A362B2E70023E362B7E79A6842F43F
:10130000A0029A6002E0002384F824303846F8BD39
:101310000227FBE70024014000280140B30F00082A
:10132000071000081310000838B503689A6812F017
:10133000010F01D1002038BD04469A6822F0010255
:101340009A60FFF72FFE054623689B6813F0010F94
:1013500013D0FFF727FE431B022BF5D923689B68A8
:1013600013F0010FF0D0A36A43F01003A362E36A05
:1013700043F00103E3620120DDE70020DBE700002A
:1013800000287BD070B50446836A002B4DD02046E0
:10139000FFF7CAFFA36A13F0100369D1002867D1D1
:1013A000A26A22F4885222F0020242F00202A262F1
:1013B0006268E1690A43217B42EA4102A568B5F50A
:1013C000807F02D0012D36D01D46267D012E35D0DE
:1013D0002668716821F46941294371602568AE6807
:1013E000274931401143A960A168B1F5807F01D040
:1013F000012902D12369013B1B052568E96A21F413
:1014000070010B43EB62236899681E4B0B409A42B4
:1014100025D0A36A23F0120343F01003A362E36A0A
:1014200043F00103E362012027E0C36280F8243027
:10143000FFF73EF8ABE74FF48075C6E731B9A16915
:10144000013945EA413141F40065C1E7A16A41F043
:101450002001A162E16A41F00101E162B8E70023E5
:10146000E362A36A23F0030343F00103A36204E0F1
:10147000A36A43F01003A362012070BD01207047EE
:10148000FDF7E1FFFE0E1FFF70B582B00023019350
:1014900090F82430012B72D00446012380F82430C8
:1014A000FFF742FF2046FFF763FE054628B1002301
:1014B00084F82430284602B070BDA36A23F4885310
:1014C00023F0020343F00203A3622E4B1E680220A6
:1014D00000F0CAFEB6FBF0F67600019602E0019B32
:1014E000013B0193019B002BF9D12268936843F0E3
:1014F00008039360FFF756FD064623689A6812F0CA
:10150000080F14D0FFF74EFD801B0A28F5D9236879
:101510009B6813F0080FF0D0A36A23F0120343F086
:101520001003A362002384F824300125C2E79A68DF
:1015300042F004029A60FFF735FD064623689B6877
:1015400013F0040F14D0FFF72DFD801B0A28F5D9E6
:1015500023689B6813F0040FF0D0A36A23F01203F2
:1015600043F01003A362002384F824300125A1E78F
:10157000A36A23F0030343F00103A36297E7022564
:1015800098E700BF00000020074AD36823F4E06317
:101590001B041B0C000200F4E060034343F0BF6334
:1015A00043F40033D360704700ED00E000B5194B01
:1015B000DB68C3F30223C3F1070CBCF1040F28BF9F
:1015C0004FF0040C03F1040EBEF1060F18D9033BD3
:1015D0004FF0FF3E0EFA0CFC21EA0C0199400EFA86
:1015E00003F322EA0303194300280BDB0901C9B204
:1015F00000F1604000F5614080F800135DF804FBE5
:101600000023E5E700F00F000901C9B2024B1954AD
:10161000F4E700BF00ED00E014ED00E0002807DB78
:1016200000F01F02400901239340024A42F8203093
:10163000704700BF00E100E030B40124056CAC400D
:10164000C56B6C60046863604368102B05D0036849
:1016500099600368DA6030BC704703689A60036879
:10166000D960F8E760B310B402460168154B0B442B
:101670001548A0FB03031B099B001364134BD363A2
:10168000022382F82130086820F47F5020F03000D7
:10169000536894682343D4682343146923435469EB
:1016A000234394692343D469234303430B600020FD
:1016B0009063012382F8213082F8200010BC70472B
:1016C00001207047F8FFFDBFCDCCCCCC000002401C
:1016D00038B5044690F82000012832D0012084F863
:1016E000200094F82100C0B2012804D0002384F81F
:1016F0002030022038BD022084F821000020A063A1
:101700002568286820F0010028602046FFF794FF34
:10171000E36A5BB12268136843F00E03136022682A
:10172000136843F0010313600020E3E722681368A5
:1017300023F0040313602268136843F00A03136064
:10174000EDE70220D6E7000038B5C36B1A680468DD
:101750002568016C04238B40134235D015F0040F2B
:1017600032D0236813F0200F03D1236823F0040341
:1017700023600368434A934214D01432934218D032
:101780001432934217D01432934217D0143293423A
:1017900017D01432934202D04FF0806203E04FF42E
:1017A000800200E00422384B5A60C36A03B19847B4
:1017B00038BD4022F7E74FF48062F4E74FF48042EF
:1017C000F1E74FF48022EEE702238B4013423CD036
:1017D00015F0020F39D0236813F0200F06D12368CB
:1017E00023F00A032360012380F821300368254A8F
:1017F000934214D0143293421CD0143293421BD023
:10180000143293421BD0143293421BD014329342B1
:1018100002D04FF0007203E04FF4001200E0022209
:10182000194B5A60002380F82030836A002BBFD008
:101830009847BDE72022F3E74FF40072F0E74FF43A
:101840000052EDE74FF40032EAE7082303FA01F112
:101850001142ADD015F0080FAAD0236823F00E0373
:101860002360026CC16B012303FA02F24A608363B6
:1018700080F82130002380F82030036B002B97D0B4
:10188000984795E7080002400000024070B582B01A
:101890000024A446A6E0804DAA4210D007D97F4D6F
:1018A000AA420CD005F58035AA4208D013E0A5F570
:1018B0008015AA4203D005F57025AA4207D18A688F
:1018C000002A58D0012A51D04361082403E0A5F52D
:1018D0008015AA42F3D0BEF1FF0F4ED80646BEF1E6
:1018E000FF0F4CD84FEA8C0233680F25954023EA4E
:1018F000050304FA02F2134333604B6813F0805F70
:101900006ED0674B9A6942F001029A619B6903F0BD
:1019100001030193019B4FEA9C02951C614B53F814
:1019200025600CF003039D000F23AB4026EA03065D
:101930005D4B984229D003F58063984200F08E8079
:1019400003F58063984200F08B8003F58063984232
:1019500019D004231AE0CC68BDE7CC680434BAE798
:10196000CC680834B7E7CC680C34B4E703610824CA
:10197000B1E70024AFE70424ADE7061DAFE7ACF103
:1019800008029200B0E7032300E00023AB4033439A
:101990000232444D45F822304B6813F4801F61D069
:1019A000424A936843EA0E0393604B6813F4001FA6
:1019B0005ED03E4AD36843EA0E03D3604B6813F40B
:1019C000003F5BD0394A536843EA0E0353604B68CB
:1019D00013F4803F58D0354A136843EA0E0313606E
:1019E0000CF1010C0A6832FA0CF353D0012303FA0C
:1019F0000CF302EA030E33EA0202F1D14A68122A1A
:101A00003FF649AF122A3FF666AF01A555F822F01E
:101A1000BF18000857190008611900087319000859
:101A2000D7180008D7180008D7180008D7180008DA
:101A3000D7180008D7180008D7180008D7180008CA
:101A4000D7180008D7180008D7180008D7180008BA
:101A5000D71800085B19000867190008012395E7EB
:101A6000022393E7114A936823EA0E0393609CE7ED
:101A70000E4AD36823EA0E03D3609FE70B4A5368EC
:101A800023EA0E035360A2E7084A136823EA0E0311
:101A90001360A5E702B070BD0000221000003110F5
:101AA0000010024000000140000801400004014015
:101AB0008368194201D001207047002070470AB1A5
:101AC00001617047090401617047000082B0084B52
:101AD0001B68084AA2FB03235B0A00FB03F3019384
:101AE00000BF019B5A1E0192002BF9D102B0704732
:101AF00000000020D34D6210002800F0F18170B585
:101B000082B00446036813F0010F2CD0994B5B6838
:101B100003F00C03042B1DD0964B5B6803F00C0301
:101B2000082B12D06368B3F5803F41D0002B55D10C
:101B300003F1804303F504331A6822F480321A60FB
:101B40001A6822F480221A6037E08A4B5B6813F42B
:101B5000803FE7D0874B1B6813F4003F03D06368D6
:101B6000002B00F0BF81236813F0020F75D0814B6A
:101B70005B6813F00C0F5FD07E4B5B6803F00C03C7
:101B8000082B54D02369002B00F08A807A4B012265
:101B90001A60FFF707FA0546764B1B6813F0020F31
:101BA00075D1FFF7FFF9401B0228F5D903209EE10C
:101BB000704A136843F480331360636843B3FFF7DC
:101BC000F1F905466B4B1B6813F4003FCBD1FFF7CF
:101BD000E9F9401B6428F5D9032088E1B3F5A02F6B
:101BE00009D0644B1A6822F480321A601A6822F411
:101BF00080221A60E1E703F18043A3F53C331A68C1
:101C000042F480221A601A6842F480321A60D4E7E3
:101C1000FFF7C8F90546574B1B6813F4003FA2D0E5
:101C2000FFF7C0F9401B6428F5D903205FE1514B51
:101C30005B6813F4803FA5D14E4B1B6813F0020F75
:101C400003D02369012B40F04F814A4A136823F0E7
:101C5000F803616943EAC1031360236813F0080FB6
:101C600033D0A369002B5CD0434B0122C3F88024FE
:101C7000FFF798F905463F4B5B6A13F0020F21D13D
:101C8000FFF790F9401B0228F5D903202FE1394ACC
:101C9000136823F0F803616943EAC1031360DCE7CA
:101CA000354B00221A60FFF77DF90546314B1B6862
:101CB00013F0020FD1D0FFF775F9401B0228F5D9B8
:101CC000032014E10120FFF701FF236813F0040F44
:101CD00000F09680274BDB6913F0805F34D1254BF1
:101CE000DA6942F08052DA61DB6903F080530193D4
:101CF000019B0125214B1B6813F4807F26D0E368EC
:101D0000012B3DD0002B53D103F1804303F5043365
:101D10001A6A22F001021A621A6A22F004021A6296
:101D200033E0154B0022C3F88024FFF73BF905464A
:101D3000104B5B6A13F0020FC7D0FFF733F9401B5B
:101D40000228F5D90320D2E00025D3E70B4A136817
:101D500043F480731360FFF725F90646074B1B68B1
:101D600013F4807FCBD1FFF71DF9801B6428F5D9D0
:101D70000320BCE00010024000004242007000401E
:101D80005F4A136A43F001031362E36833B3FFF75A
:101D900009F906465A4B1B6A13F0020F2FD1FFF7C1
:101DA00001F9801B41F288339842F3D903209EE069
:101DB000052B09D0524B1A6A22F001021A621A6AE4
:101DC00022F004021A62E0E74D4B1A6A42F0040264
:101DD0001A621A6A42F001021A62D6E7FFF7E2F8C5
:101DE0000646474B1B6A13F0020F08D0FFF7DAF8DC
:101DF000801B41F288339842F3D9032077E0E5B99C
:101E0000E369002B72D03E4A526802F00C02082AA5
:101E100056D0022B17D03B4B00221A66FFF7C2F8B0
:101E20000446374B1B6813F0007F47D0FFF7BAF822
:101E3000001B0228F5D9032059E0314AD36923F069
:101E40008053D361DCE72F4B00221A66FFF7AAF814
:101E500005462B4B1B6813F0007F06D0FFF7A2F856
:101E6000401B0228F5D9032041E0236AB3F5803FE7
:101E70001AD023494B6823F47413226A606A024320
:101E800013434B601F4B01221A66FFF78BF8044681
:101E90001B4B1B6813F0007F0ED1FFF783F8001B6C
:101EA0000228F5D9032022E0154A536823F40033B1
:101EB000A1680B435360DCE7002018E0002016E027
:101EC000012B16D00E4B5B6803F48031226A9142DD
:101ED00011D103F47013626A93420ED1002006E020
:101EE00001207047012002E0012000E0002002B044
:101EF00070BD0120FBE70120F9E70120F7E700BFF3
:101F000000100240000042420F4B5B6803F00C02DD
:101F1000082A01D00D487047C3F383420C49885CFE
:101F200013F4803F0BD0084B5B68C3F34043094A6E
:101F3000D35C064A02FB00F0B0FBF3F07047064B9F
:101F400003FB00F0704700BF0010024000127A004F
:101F5000E4420008F442000800093D00002800F0B7
:101F6000A08070B50D460446524B1B6803F0070372
:101F70008B420BD24F4A136823F007030B431360C5
:101F8000136803F007038B4240F08D80236813F041
:101F9000020F17D013F0040F04D0474A536843F4DC
:101FA000E0635360236813F0080F04D0424A53687B
:101FB00043F460535360404A536823F0F003A16830
:101FC0000B435360236813F0010F31D06368012B7A
:101FD00020D0022B25D0384A126812F0020F64D0AC
:101FE00035494A6822F0030213434B60FEF7DAFFDB
:101FF0000646314B5B6803F00C036268B3EB820F5B
:1020000016D0FEF7CFFF801B41F288339842F0D9FB
:10201000032045E0284A126812F4003FE0D1012075
:102020003EE0254A126812F0007FD9D1012037E046
:10203000204B1B6803F00703AB420AD91D4A136803
:1020400023F007032B431360136803F00703AB422D
:102050002DD1236813F0040F06D0174A536823F4D8
:10206000E063E1680B435360236813F0080F07D067
:10207000114A536823F46053216943EAC103536052
:10208000FFF742FF0C4B5B68C3F303130B4AD35CAF
:10209000D8400B4B18600B4B1868FEF7EBFC002088
:1020A00070BD012070470120FAE70120F8E7012008
:1020B000F6E700BF0020024000100240CC420008BA
:1020C0000000002008000020014B1868704700BF86
:1020D0000000002008B5FFF7F7FF044B5B68C3F36F
:1020E0000223034AD35CD84008BD00BF0010024061
:1020F000DC42000808B5FFF7E7FF044B5B68C3F359
:10210000C223034AD35CD84008BD00BF0010024080
:10211000DC4200080F2303600B4B5A6802F00302F5
:1021200042605A6802F0F00282605A6802F4E0628B
:10213000C2605B68DB0803F4E0630361034B1B6868
:1021400003F007030B6070470010024000200240BC
:1021500070B582B00446036813F0010F36D03F4BD0
:10216000DB6913F0805F49D13C4BDA6942F0805261
:10217000DA61DB6903F080530193019B0125384B41
:102180001B6813F4807F3BD0344B1B6A13F44073FD
:1021900013D0626802F440729A420ED02F4A136A3A
:1021A00023F440702F490126C1F840640026C1F88D
:1021B0004064106213F0010F36D1284A136A23F4E9
:1021C000407361680B431362002D3ED1236813F006
:1021D000020F06D0214A536823F44043A1680B4301
:1021E0005360236813F0100F34D01C4A536823F453
:1021F0008003E1680B43536000202CE00025BEE71C
:10220000174A136843F480731360FEF7CBFE06464B
:10221000134B1B6813F4807FB6D1FEF7C3FE801BFF
:102220006428F5D9032016E0FEF7BCFE06460B4BEA
:102230001B6A13F0020FC0D1FEF7B4FE801B41F2FF
:1022400088339842F3D9032005E0D36923F0805303
:10225000D361BBE7002002B070BD00BF0010024098
:10226000007000400000424208B502284ED01028FD
:1022700003D0012828D0002008BD2B4B5A681868CD
:1022800010F08070F8D0C2F383432849C85C12F480
:10229000803F15D0244B5B68C3F34043244AD25C93
:1022A000244BB3FBF2F303FB00F01F4B5B6813F40A
:1022B000800FE1D14000204BA3FB00304008DBE75A
:1022C0001E4B03FB00F0F0E7174B1B6A40F2023293
:1022D0001A40B2F5817F24D003F44073B3F5007F38
:1022E00004D0B3F5407F09D00020C5E70E4A526AFA
:1022F00012F0020FF5D049F64040BDE70A4B1868CE
:1023000010F40030B8D04FF22440B5E7FFF7F2FEEA
:10231000054B5B68C3F3813301335B00B0FBF3F023
:10232000AAE74FF40040A7E700100240F842000877
:102330000843000800127A00ABAAAAAA00093D00CF
:10234000002856D010B50446436A33B94368B3F544
:10235000827F05D00023C36102E000230361436153
:102360000023A36294F85130002B3CD0022384F860
:1023700051302268136823F040031360636803F44C
:102380008273A26802F404421343E26802F400621A
:102390001343226902F002021343626902F0010250
:1023A0001343A26902F400721343E26902F0380297
:1023B0001343226A02F080021343A26A02F400521D
:1023C000216813430B60638B226803F0040353609E
:1023D0002268D36923F40063D36100206065012380
:1023E00084F8513010BD84F850302046FEF7DEFAF4
:1023F000BCE701207047000070B4036A026A22F053
:10240000010202624668826922F073020C6844EAA3
:10241000020523F002028B6813430D4CA04209D041
:102420000B4CA0420DD0466085614A68426303624E
:1024300070BC704723F00803CA68134323F00403F9
:10244000EEE726F440764A6932438E691643EAE79E
:10245000002C014030B4036A026A22F480720262E6
:102460004568C26922F073020C68224323F40073AA
:102470008C6843EA04230F4CA04209D00D4CA042C3
:102480000ED04560C2614A68C263036230BC7047C7
:1024900023F40063CC6843EA042323F48063EDE76C
:1024A00025F440554C6945EA04158C6945EA041544
:1024B000E7E700BF002C014030B4036A026A22F44F
:1024C000805202624468C26922F4E6420D6842EA20
:1024D000052223F400538D6843EA0533074DA842D3
:1024E00006D04460C2614A680264036230BC70472F
:1024F00024F480444D6944EA8514F2E7002C01403D
:102500007047000090F83D30DBB2012B27D1022349
:1025100080F83D300268D36843F00103D36003685C
:10252000114A934210D0B3F1804F0DD0A2F59432EE
:10253000934209D002F58062934205D01A6842F0B6
:1025400001021A60002070479A6802F00702062A0A
:1025500007D01A6842F001021A600020704701207B
:1025600070470020704700BF002C01407047704743
:102570007047704770B504460368DE681D6915F042
:10258000020F10D016F0020F0DD06FF002021A6188
:102590000123037703689B6913F0030F5ED0FFF7F5
:1025A000E6FF0023237715F0040F12D016F0040F76
:1025B0000FD023686FF004021A6102232377236887
:1025C0009B6913F4407F4FD02046FFF7D0FF0023D4
:1025D000237715F0080F12D016F0080F0FD02368DC
:1025E0006FF008021A61042323772368DB6913F074
:1025F000030F40D02046FFF7BAFF0023237715F0E2
:10260000100F12D016F0100F0FD023686FF01002C9
:102610001A61082323772368DB6913F4407F31D0E4
:102620002046FFF7A4FF0023237715F0010F02D007
:1026300016F0010F2DD115F0800F02D016F0800F8B
:102640002FD115F0400F02D016F0400F31D115F008
:10265000200F02D016F0200F33D170BDFFF786FF98
:102660002046FFF785FF9CE72046FFF77FFF2046C7
:10267000FFF77EFFABE72046FFF778FF2046FFF726
:1026800077FFBAE72046FFF771FF2046FFF770FF9C
:10269000C9E723686FF001021A612046FEF7BAF815
:1026A000C9E723686FF080021A61204600F001FA42
:1026B000C7E723686FF040021A612046FFF759FF11
:1026C000C5E723686FF020021A61204600F0F0F998
:1026D000C3E7000003681F4A90420AD0B0F1804F60
:1026E00007D0A2F59432904203D002F58062904266
:1026F00003D123F070034A681343164A90420AD06C
:10270000B0F1804F07D0A2F59432904203D002F589
:102710008062904203D123F44073CA68134323F0CC
:1027200080034A69134303608B68C3620B6883624A
:10273000084B98420AD001234361036913F0010F4B
:1027400003D0036923F00103036170470B6903633E
:10275000F1E700BF002C014040B310B5044690F8EB
:102760003D30F3B1022384F83D30214651F8040B8B
:10277000FFF7B0FF012384F8463084F83E3084F838
:102780003F3084F8403084F8413084F8423084F897
:10279000433084F8443084F8453084F83D300020DC
:1027A00010BD80F83C30FFF7ABFEDBE7012070473F
:1027B00040B310B5044690F83D30F3B1022384F8DD
:1027C0003D30214651F8040BFFF784FF012384F8C4
:1027D000463084F83E3084F83F3084F8403084F846
:1027E000413084F8423084F8433084F8443084F82F
:1027F000453084F83D30002010BD80F83C30FEF7B5
:102800009BF9DBE70120704730B4036A026A22F0CB
:10281000100202624468826922F4E6420D6842EACC
:10282000052223F020038D6843EA05130E4DA842CC
:1028300009D00D4DA8420ED0446082614A6882637F
:10284000036230BC704723F08003CD6843EA051370
:1028500023F04003EDE724F440644D6944EA850425
:102860008D6944EA8504E7E7002C014038B590F80B
:102870003C30012B66D004460D46012380F83C30E5
:102880000C2A5AD8DFE802F0075959591B595959EF
:102890003059595944000068FFF7AEFD226893692A
:1028A00043F0080393612268936923F00403936162
:1028B0002268936929690B43936100203EE0006818
:1028C000FFF7A2FF2268936943F4006393612268D3
:1028D000936923F48063936122689369296943EAC9
:1028E00001239361002029E00068FFF7B3FD22680F
:1028F000D36943F00803D3612268D36923F004034A
:10290000D3612268D36929690B43D361002015E0A4
:102910000068FFF7D1FD2268D36943F40063D361F7
:102920002268D36923F48063D3612268D36929695B
:1029300043EA0123D361002000E00120002384F852
:102940003C3038BD0220FCE701F01F01012303FAEF
:1029500001FC036A23EA0C030362036A02FA01F131
:102960000B4303627047000010B50446084651BB94
:1029700094F83E30DBB2013B18BF0123002B5BD142
:10298000002839D1022384F83E3001220146206814
:10299000FFF7DAFF23682A4A93423DD02368284A8A
:1029A00093423ED0B3F1804F3BD0A2F59432934294
:1029B00037D002F58062934233D01A6842F00102A8
:1029C0001A60002039E0042908D008290DD094F8B5
:1029D0004130DBB2013B18BF0123CFE794F83F3011
:1029E000DBB2013B18BF0123C8E794F84030DBB2EB
:1029F000013B18BF0123C1E7042805D0082807D0F0
:102A0000022384F84130C0E7022384F83F30BCE75A
:102A1000022384F84030B8E75A6C42F400425A640A
:102A2000BCE79A6802F00702062A07D01A6842F04B
:102A300001021A60002000E0012010BD0020FCE728
:102A4000002C014090F83C30012B2CD010B4012315
:102A500080F83C30022380F83D3003685A689C6857
:102A600022F0700C0A6842EA0C025A6003680F4AAE
:102A700093420AD0B3F1804F07D0A2F5943293422B
:102A800003D002F58062934204D124F080044A68A6
:102A900014439C60012380F83D30002380F83C30D3
:102AA000184610BC70470220704700BF002C014040
:102AB0007047704710B504460268136923F4405309
:102AC000C1680B43136183680269134342691A4367
:102AD0000168CB6823F4B05323F00C031343CB609D
:102AE0000268536923F4407381690B4353610268A0
:102AF000134B9A4220D0FFF7EDFA024602EB820216
:102B000002EB820263689B00B2FBF3F20D48A0FB6C
:102B100002314909642303FB11231B013233A0FB5B
:102B200003235B0903F0F00202EB011203F00F0331
:102B3000216813448B6010BDFFF7DCFA0246DDE725
:102B4000003801401F85EB5160B310B5044690F882
:102B5000413013B3242384F841302268D36823F42E
:102B60000053D3602046FFF7A5FF2268136923F4C2
:102B7000904313612268536923F02A03536122684A
:102B8000D36843F40053D36000206064202384F8AA
:102B9000413084F84230606310BD80F84030FEF769
:102BA00081F9D7E701207047842801D003307047AE
:102BB0000020704708B500F0E7FC002008BD2DE9B3
:102BC000F04387B004460F464569BDB18669AEB192
:102BD000D0F80480D0F80090B0F90800FFF7E4FFC7
:102BE0000296019500903B4622694946404600F016
:102BF0005BFC0590059807B0BDE8F0836568266822
:102C0000D4F81080B4F90800FFF7CEFF05AB0193AC
:102C100000903B461FFA88F23146284600F07FFCC0
:102C20000128E7D00020E6E708B500B9012000F050
:102C3000F5FD002008BD00F1080343604FF0FF32AE
:102C40008260C36003610023036070470023036157
:102C5000704743684B609A688A6051609960086168
:102C6000036801330360704730B40D68B5F1FF3F6E
:102C700011D000F108031C465B681A68AA42FAD911
:102C800063684B6099608C60616008610368013320
:102C9000036030BC70470469F2E7036941688268E9
:102CA0008A60416851605A68824206D000220261FF
:102CB0001A68013A1A601868704782685A60F5E726
:102CC00082B0002301930D4B1B68B3F1FF3F08D086
:102CD0004FF0500383F31188BFF36F8FBFF34F8F13
:102CE000FEE74FF0500383F31188BFF36F8FBFF3FC
:102CF0004F8F019B002BFCD002B070470C000020CE
:102D000006480068006880F3088862B661B6BFF3C1
:102D10004F8FBFF36F8F00DF00BF000008ED00E0B2
:102D20004FF0807340F8043C21F0010140F8081C8A
:102D3000034B40F80C3C40F8202C4038704700BF53
:102D4000C12C00080000000000000000000000008E
:102D5000074B19680868B0E8F00F80F30988BFF3E3
:102D60006F8F4FF0000080F311884EF00D0E70470A
:102D7000401500204FF0500383F31188BFF36F8F8D
:102D8000BFF34F8F0B4A136801331360012B00D040
:102D900070474FF0E023D3F8043D13F0FF0FF7D056
:102DA0004FF0500383F31188BFF36F8FBFF34F8F42
:102DB000FEE700BF0C000020094B1B6843B94FF031
:102DC000500383F31188BFF36F8FBFF34F8FFEE77C
:102DD000013B034A13600BB983F31188704700BFAE
:102DE0000C000020000000000000000000000000B7
:102DF000EFF30980BFF36F8F0D4B1A6820E9F00FD6
:102E000010602DE908404FF0500080F3118800F069
:102E10002BFD4FF0000080F31188BDE808401968D1
:102E20000868B0E8F00F80F30988BFF36F8F704730
:102E30004015002008B54FF0500383F31188BFF30D
:102E40006F8FBFF34F8F00F0E1FB28B14FF0E0230D
:102E50004FF08052C3F8042D002383F3118808BD7E
:102E60004FF0E022002313619361054B1B68054975
:102E7000A1FB03139B09013B5361072313617047B7
:102E800000000020D34D621010B582B02A4B1A7892
:102E9000D2B20192FF221A701B78DBB28DF8033098
:102EA0009DF8033003F05003244A1370244B07228B
:102EB0001A6009E0224A1368013B13609DF8033051
:102EC0005B00DBB28DF803309DF8033013F0800F08
:102ED000F0D11B4B1B68032B08D04FF0500383F33A
:102EE0001188BFF36F8FBFF34F8FFEE71B02144AA9
:102EF000136003F4E0631360019BDBB20E4A1370AE
:102F00004FF0E023D3F8202D42F47002C3F8202DB7
:102F1000D3F8202D42F07042C3F8202DFFF7A0FF18
:102F20000024084B1C60FFF7EBFE00F09DFCFFF750
:102F3000C7FE204602B010BD00E400E018090020E2
:102F40001C0900200C000020124A12F0070F1ED0AE
:102F5000D11D21F00701C1F5406313440A460E4814
:102F60000260002141601344083B23F007030B4833
:102F7000036059601960991A51601360084B196019
:102F8000084B1960084B4FF000421A6070474FF42D
:102F90004063E4E7240900203815002020090020C0
:102FA0002C1500202815002024150020154B1A464A
:102FB0001B688342FBD3516802EB010C844509D0A6
:102FC000416800EB010C634509D00360904218D0C2
:102FD000106070474068014451601046F0E710B43B
:102FE000094C2468A3420AD05B6819444160136805
:102FF0001B680360904200D0106010BC70470460F2
:10300000F8E77047381500202009002070B5054604
:1030100000F0F4FA364B1B68A3B1364B1B681D4217
:103020004ED135B1083515F0070F02D025F0070550
:103030000835002D46D0304B1B68AB4251D32F4A88
:10304000146804E0FFF780FFE7E722461C46636848
:10305000AB4202D22368002BF7D1254B1B68A34259
:1030600041D0166808362368136063685B1B102B19
:1030700010D9601910F0070F08D04FF0500383F3F8
:103080001188BFF36F8FBFF34F8FFEE7436065601A
:10309000FFF78CFF626818490B689B1A0B60184990
:1030A00009688B4201D216490B60124B1B6813430F
:1030B000636000232360134A13680133136002E046
:1030C000002600E0002600F02DFB16F0070F0CD0C4
:1030D0004FF0500383F31188BFF36F8FBFF34F8F0F
:1030E000FEE70026EFE70026EDE7304670BD00BFA3
:1030F0002009002024150020281500203815002064
:103100002C15002030150020002834D038B5044696
:10311000A0F1080550F8043C174A1268134208D180
:103120004FF0500383F31188BFF36F8FBFF34F8FBE
:10313000FEE750F8081C41B14FF0500383F31188AB
:10314000BFF36F8FBFF34F8FFEE723EA020340F810
:10315000043C00F053FA54F8041C084A13680B446A
:1031600013602846FFF722FF054A136801331360F6
:1031700000F0D8FA38BD704724150020281500202B
:1031800034150020084B1B681B6823B9074B4FF010
:10319000FF321A607047044B1B68DB68DB685A68B3
:1031A000024B1A60704700BF44150020181600201B
:1031B0002DE9F04707469846089DDDF824900A9CC3
:1031C000266B02F18042013A06EB820626F00706E2
:1031D00000293AD08E464FF0000CBCF10F0F0BD8EF
:1031E0001EF80C2004EB0C0383F834201EF80C307E
:1031F00013B10CF1010CF0E7002384F84330062DE5
:1032000000D90625E56265644FF0000AC4F848A0BD
:10321000201DFFF71BFD04F11800FFF717FD2461C7
:10322000C5F10705A5616462C4F84CA084F850A0FC
:10323000424639463046FFF773FD2060B9F1000F72
:1032400001D0C9F80040BDE8F087002384F834308D
:10325000D5E7000038B5002407E004EB84029300B2
:103260000E481844FFF7E7FC0134062CF5D90C4D45
:103270002846FFF7E0FC0B4C2046FFF7DCFC0A4831
:10328000FFF7D9FC0948FFF7D6FC0948FFF7D3FC44
:10329000084B1D60084B1C6038BD00BF4C1500205A
:1032A000EC150020001600202416002050160020E7
:1032B0003C160020441500204815002010B5044697
:1032C000FFF758FD214A136801331360204B1B6838
:1032D0005BB1204B1B686BB91D4B1B68DA6AE36A54
:1032E0009A4207D81A4B1C6004E0194B1C60136803
:1032F000012B28D0184A136801331360E06A0123B8
:103300008340164A11680B43136000EB8000211DB7
:10331000134B03EB8000FFF79CFCFFF74DFD0D4BBB
:103320001B687BB10A4B1B68DA6AE36A9A4209D2CE
:103330004FF0E0234FF08052C3F8042DBFF34F8FBE
:10334000BFF36F8F10BDFFF785FFD3E7D8150020BF
:103350004015002038160020E4150020E815002054
:103360004C15002010B5044690F8513063B1012B84
:1033700011D0022B0ED04FF0500383F31188BFF30E
:103380006F8FBFF34F8FFEE7006BFFF7BDFE204648
:10339000FFF7BAFE10BDFFF7B7FEFBE70F4B1B6848
:1033A000D3B110B5FFF7E6FC0D4BDB68DC68201DE0
:1033B000FFF773FC0B4A1368013B1360074A13685D
:1033C000013B1360FFF7F8FC2046FFF7CBFF034BF0
:1033D0001B68002BE6D110BD704700BFDC15002034
:1033E00050160020D815002008B5FFF7D7FF074B6F
:1033F0001B68012BF9D94FF0E0234FF08052C3F83E
:10340000042DBFF34F8FBFF36F8FEEE74C150020F5
:1034100070B504460D461D4B1E681D4B18680430E0
:10342000FFF73BFC50B91A4B1B68DA6A012303FA19
:1034300002F218490B6823EA02030B60B4F1FF3F64
:103440000DD03444124B1B685C60A64210D9124B5D
:1034500018680F4B19680431FFF706FC70BD002D8A
:10346000EFD00B4B196804310C48FFF7F2FBF5E77E
:103470000B4B1868064B19680431FFF7F5FB094B35
:103480001B68A342EAD9074B1C60E7E764160020DB
:1034900040150020E8150020481500203C160020AB
:1034A000441500201816002030B587B00B9C7CB165
:1034B0000C9DB5B154250495049D542D1AD04FF0A0
:1034C000500383F31188BFF36F8FBFF34F8FFEE775
:1034D0004FF0500383F31188BFF36F8FBFF34F8F0B
:1034E000FEE74FF0500383F31188BFF36F8FBFF3F4
:1034F0004F8FFEE7049D0C9D2C63022485F85140FC
:1035000000240394029505AC01940A9C0094FFF7F3
:103510004FFE0C98FFF7D2FE059807B030BD2DE99D
:10352000F04385B00746884614461E469000FFF7D4
:103530006DFD00B381465420FFF768FD0546B0B12C
:10354000C0F83090E5B1002385F85130039302951F
:103550000D9B01930C9B009333462246414638460F
:10356000FFF726FE2846FFF7A9FE012005E04846A2
:10357000FFF7CAFDE6E74FF0FF3005B0BDE8F08386
:103580004FF0FF30F9E7000010B588B00024059433
:10359000069407AA06A905A8FDF760F8059B029303
:1035A000069B019300942346079A0E490E48FFF7A5
:1035B0007BFF0E4B186090B14FF0500383F31188DE
:1035C000BFF36F8FBFF34F8F094B4FF0FF321A607D
:1035D000084B01221A60084B1C60FFF755FC08B02D
:1035E00010BD00BF0C430008E9330008141600208A
:1035F000181600203816002064160020024A1368AE
:1036000001331360704700BFE0150020F8B53A4B56
:103610001B68002B69D1394B1D6801351D60C5B988
:10362000374B1B681B6843B14FF0500383F311887D
:10363000BFF36F8FBFF34F8FFEE7314A1168314BF5
:10364000186810601960304A136801331360FFF77F
:1036500099FD2E4B1B68AB423DD900272C4B1B68B4
:10366000DB6A03EB83039A002A4B9B58012B00D99A
:103670000127294B1B68002B3CD001273AE001278A
:103680001F4B1B681B6843B31D4B1B68DB68DC6862
:1036900063689D4226D3261D3046FFF7FEFAA36AD3
:1036A0001BB104F11800FFF7F8FAE36A01229A400F
:1036B0001A49086802430A6003EB83039A00314603
:1036C00014481044FFF7C5FAE26A114B1B68DB6A25
:1036D0009A42D4D2D4E70027D2E70C4B4FF0FF3206
:1036E0001A60BBE7094A1360B8E70D4A1368013353
:1036F000136000273846F8BDE0150020641600204E
:1037000044150020481500201C1600201816002023
:10371000401500204C15002068160020E8150020F8
:103720002016002038B5354B1B6843B94FF05003C5
:1037300083F31188BFF36F8FBFF34F8FFEE7FFF75F
:1037400019FB2E4B1A68013A1A601B68002B4FD1E7
:103750002B4B1B680BB900244BE00024294B1B6842
:103760001BB3284BDB68DC6804F11800FFF795FAFF
:10377000251D2846FFF791FAE06A01238340224A7B
:1037800011680B43136000EB800029461F4B03EBCD
:103790008000FFF75EFAE26A1D4B1B68DB6A9A4203
:1037A000DCD31C4B01221A60D8E70CB1FFF7EAFC0E
:1037B000194B1C6884B9174B1C68D4B14FF0E02337
:1037C0004FF08052C3F8042DBFF34F8FBFF36F8FBC
:1037D00001240EE0013C07D0FFF718FF0028F9D0C4
:1037E0000C4B01221A60F5E70B4B00221A60E2E74E
:1037F0000024FFF7E1FA204638BD00BFE0150020A5
:10380000D815002024160020E81500204C150020B3
:1038100040150020681600202016002010B5A8B121
:103820000446104B1B6843B14FF0500383F31188DB
:10383000BFF36F8FBFF34F8FFEE7FFF7DFFE00216F
:103840002046FFF7E5FDFFF76DFF48B94FF0E02395
:103850004FF08052C3F8042DBFF34F8FBFF36F8F2B
:1038600010BD00BFE0150020204B1B681BB1204B92
:1038700001221A6070471E4B00221A601D4B1B6804
:10388000B3FA83F3DBB2C3F11F0303EB83018A00B6
:1038900019498A5842B94FF0500383F31188BFF396
:1038A0006F8FBFF34F8FFEE7134903EB8300820056
:1038B0000A4450684068506003EB830C4FEA8C0266
:1038C00008321144884209D003EB83039A000A4B63
:1038D00013445B68DA68094B1A60704740686246B7
:1038E0009100054A0A445060EEE700BFE015002051
:1038F00068160020E81500204C1500204015002017
:1039000038B5284C00224FF480712046FEF7D7F8D6
:10391000022000F093F801224FF480712046FEF758
:10392000CEF80F2000F08AF800224FF48071204674
:10393000FEF7C5F800F06EF800F5EA4430344FF4B5
:1039400000611848FEF7B4F840B900F063F884420B
:103950004FF000038B41F2D2002038BD00F05AF83E
:10396000054600F5EA4430344FF400610D48FEF797
:103970009FF8012808D100F04DF884424FF0000371
:103980008B41F1D20020E8E700F044F8401B064BE1
:10399000A3FB0030C0F34F10B0F5C87FDDD9002085
:1039A000DBE700BF0008014009CB3D8D0A4B1860E2
:1039B0000A4AD2F8FC3043F08073C2F8FC30084B5E
:1039C000002159601A6842F001021A60054A11602C
:1039D0005A68054B1A6070471000002000ED00E0A7
:1039E000001000E0701600206C160020064B5B688B
:1039F000064A12689A4203D905490A6801320A60E8
:103A0000024A1360704700BF001000E06C160020EF
:103A10007016002008B5FFF7E9FF0023044A50683C
:103A20001818044A126804490968FCF791FB08BD9C
:103A3000001000E0100000207016002070B506464F
:103A4000FFF7E8FF04460D46FFF7E4FF001B61EBBC
:103A50000501B04271F10003F6D370BD014B0022A5
:103A60009A7170471400002010B5244B998818688B
:103A7000FEF71EF890B1214B1B7B13B1013B1F4A8F
:103A800013731E4B1B7B43B91C4B9B79013BDBB271
:103A9000012B2ED9194B00229A7110BDC820FFF7B7
:103AA000C3F8164B99881868FEF702F80028F4D17D
:103AB000124B1B7B042B02D80133104A13730F4B9C
:103AC0001B7B052BE9D10D4B9B7933B90B4C0123A3
:103AD000A371FDF767FAA060DFE7FDF763FA074B14
:103AE0009B68C01AB0F5FA7FD7D9044B02229A71AD
:103AF000D3E7024B03229A71CFE700BF14000020E6
:103B0000434200280ADDB0F57A7F00DB0C4B5B42B4
:103B10000C4A126800211164D363704728B9094B1D
:103B20001B6800221A64DA63704710F57A7F01DCA3
:103B300040F2E733034A126813640023D3637047EB
:103B400019FCFFFF3C080020434200280CDDB0F5C3
:103B50007A7F00DB0F4B5B420F4A126800219163B2
:103B60000E4A12681364704738B90B4B1A68002369
:103B700093630A4A12681364704710F57A7F01DC78
:103B800040F2E733044A12689363044B1B68002237
:103B90001A64704719FCFFFFF40700208408002016
:103BA000434200280ADDB0F57A7F00DB0C4B5B4214
:103BB0000C4A1268536300239363704728B9094B7A
:103BC0001B6800225A639A63704710F57A7F01DC04
:103BD00040F2E733034A1268002151639363704750
:103BE00019FCFFFF3C080020434200280ADDB0F525
:103BF0007A7F00DB0C4B5B420C4A12680021916318
:103C00005363704728B9094B1B6800229A635A63B3
:103C1000704710F57A7F01DC40F2E733034A1268FF
:103C2000936300235363704719FCFFFF840800204F
:103C30002DE9F84F074689469246012400260BE0FD
:103C4000F6B900224FF400412248FDF738FF28461C
:103C5000FEF7EAFF0134A4B24C4532D207EB8403ED
:103C60005D880AFB05F517F82420902AE8D15A78D8
:103C7000194B33F8123013B3184EB6FBF3F6DFE7E7
:103C8000FDF790F9804613E0DFF848B001224FF4C9
:103C900000415846FDF713FF3046FFF7CFFE0022E4
:103CA0004FF400415846FDF70AFF3046FFF7C6FEC5
:103CB000FDF778F9A0EB0800A842E5D3CAE7002693
:103CC000BFE700224FF400410248FDF7F8FEBDE8CF
:103CD000F88F00BF00080140DC4A000820A107005F
:103CE00010B5FCF709FD0A4C01224FF48061204613
:103CF000FDF7E5FE0120FFF7A1FE01224FF4006170
:103D00002046FDF7DCFE0120FFF798FE10BD00BF46
:103D1000000C014010B5134C01224FF40061204605
:103D2000FDF7CDFE0120FFF789FE01224FF48061EF
:103D30002046FDF7C4FE0120FFF780FE00224FF46D
:103D400000612046FDF7BBFE0120FFF777FE002251
:103D50004FF480612046FDF7B2FE0120FFF76EFEB2
:103D600010BD00BF000C014010B50E4C00224FF4F6
:103D700000612046FDF7A3FE0120FFF75FFE012250
:103D80004FF480612046FDF79AFE0120FFF756FEB2
:103D900001224FF400612046FDF791FE0120FFF75C
:103DA0004DFE10BD000C014070B5064600241FE01A
:103DB00080222241194D32404FF400612846FDF720
:103DC0007EFE0120FFF73AFE01224FF48061284673
:103DD000FDF775FE0120FFF731FE00224FF48061F0
:103DE0002846FDF76CFE0120FFF728FE0134E4B2FF
:103DF000072CDDD9094C01224FF480612046FDF7E4
:103E00005EFE0120FFF71AFE00224FF4806120467B
:103E1000FDF755FE0120FFF711FE70BD000C0140BB
:103E200010B50446FFF776FF7820FFF7BDFF0020AE
:103E3000FFF7BAFF2046FFF7B7FFFFF795FF10BD6A
:103E400010B50446FFF766FF7820FFF7ADFF40206E
:103E5000FFF7AAFF2046FFF7A7FFFFF785FF10BD7A
:103E600010B50C4640F0B000FFF7DAFF200940F033
:103E70001000FFF7D5FF04F00F00FFF7D1FF10BDD2
:103E800038B5002509E00020FFF7DAFF0134E4B27D
:103E900014F0800FF7D00135EDB2072D05D80021C1
:103EA0002846FFF7DDFF0024F2E738BDF8B51546D8
:103EB000461E7600F6B24F1EFF00FFB2394630466E
:103EC000FFF7CEFF002409E0A5F120030F4A02EB23
:103ED0000313185DFFF7B4FF0134E4B2072CF3D9E4
:103EE000701C3946C0B2FFF7BBFF00240BE0A5F100
:103EF000200304F10802054901EB0313985CFFF766
:103F00009FFF0134E4B2072CF1D9F8BDDC4B000867
:103F1000F8B507460E461546002406E0A119C9B2B9
:103F20003846FFF7C3FF0134E4B22A5D002AF5D119
:103F3000F8BD0246012002E002FB00F019464B1ECC
:103F40000029F9D1704700002DE9F84380468946E1
:103F50001E46171E04DB2B22FFF7A8FF00241FE0DC
:103F60002D22FFF7A3FF7F42F8E704EB0905EDB22E
:103F7000311B01390A20FFF7DCFFB7FBF0F00A4ADA
:103F8000A2FB0032D20802EB8202A0EB42023032E6
:103F9000691CD2B2C9B24046FFF788FF0134E4B2CF
:103FA000B442E2D3BDE8F883CDCCCCCC08B5002236
:103FB00004E00133B3F57A7FFBD30132B2F57A7FA7
:103FC00001D20023F6E7FFF78BFEAE20FFF728FFB4
:103FD000D520FFF725FF8020FFF722FFA820FFF75D
:103FE0001FFF3F20FFF71CFFD320FFF719FF002022
:103FF000FFF716FF4020FFF713FFA120FFF710FF88
:10400000C820FFF70DFFDA20FFF70AFF1220FFF7A5
:1040100007FF8120FFF704FFCF20FFF701FFD92022
:10402000FFF7FEFEF120FFF7FBFEDB20FFF7F8FEB7
:104030003020FFF7F5FEA420FFF7F2FEA620FFF7E1
:10404000EFFE8D20FFF7ECFE1420FFF7E9FEAF2016
:10405000FFF7E6FEFFF714FF08BD000070B50D4E38
:104060000D4D761BB61006D0002455F8043B0134E4
:104070009847A642F9D1094E094D00F0D5F8761BB4
:10408000B61006D0002455F8043B01349847A642E8
:10409000F9D170BDD8510008D8510008E05100088E
:1040A000D8510008830730B548D0541E002A3FD0AD
:1040B0000346CAB201E0013C3AD303F8012B9D0745
:1040C000F9D1032C2DD9CDB245EA05250F2C45EAAF
:1040D000054536D9A4F1100222F00F0C03F1200E91
:1040E000E6444FEA121C03F1100242E9045542E98A
:1040F000025510327245F8D10CF1010214F00C0F88
:1041000003EB021204F00F0C13D0ACF1040323F004
:1041100003030433134442F8045B9342FBD10CF0D5
:1041200003042CB1CAB21C4403F8012B9C42FBD1FE
:1041300030BD64461346002CF4D1F9E7034614461B
:10414000BFE71A46A446E0E7024B13B1024800F06D
:1041500005B87047000000006941000800230146CF
:104160001A46184600F01AB838B5084B084D5B1BC4
:104170009C1007D0043B1D44013C55F80439984776
:10418000002CF9D1BDE8384000F054B8E4510008E3
:10419000E0510008704700BF704700BF2DE9F047AD
:1041A000DFF87CA00646DAF8000098460F469146F4
:1041B000FFF7F0FF1B4B1B68D3F8484124B3656839
:1041C0001F2D26DC5EB96B1C0235DAF80000636037
:1041D00044F82570FFF7E0FF0020BDE8F0870123D9
:1041E00004EB8501C1F88890D4F88821AB401A43CC
:1041F000022EC4F88821C1F80881E4D1D4F88C21BA
:104200001343C4F88C31DEE703F5A674C3F84841C4
:10421000D5E7DAF80000FFF7BFFF4FF0FF30DCE72B
:1042200050040020CC510008F8B500BFF8BC08BC11
:104230009E467047F8B500BFF8BC08BC9E46704764
:104240009442000881050008000000000000000002
:10425000800000000000000000000000A0420008F4
:10426000E1050008000000000000000080000000E0
:104270000000000000000000B04200080106000835
:1042800000000000000000008000000000000000AE
:1042900000000000636D645F7461736B00000000D8
:1042A000636861737369735F7461736B000000000E
:1042B00073656E736F7200007175657374696F6EEC
:1042C0003A00000070776D3A000000000000000026
:1042D00000000000010203040607080900000000B6
:1042E0000102030402030405060708090A0B0C0D6A
:1042F0000E0F101001020000020304050607080952
:104300000A0B0C0D0E0F10100102000049444C4521
:104310000000F2019059A0148059D800905B180059
:10432000805BD800905D1800805DD800905918001F
:104330008059D800906018008060B802905D180025
:10434000805DD800905B1800805BB0019060300009
:104350008060B001905B3000805BB001905930000C
:104360008059D800905618008056D800905D1800EB
:10437000805DB802905918008059D80090581800F4
:1043800080586003905860008058B001905630000B
:104390008056B001905830008058B00190593000DC
:1043A0008059D800905B1800805BD80090541800AA
:1043B0008054B001905930008059B001905B3000BA
:1043C000805BD800905D1800805DD800905E18007A
:1043D000805EB001905E3000805ED800905D180075
:1043E000805DD800905B1800805BD8009059180061
:1043F0008059D800905B1800805B60039059600082
:104400008059D800905B1800805BD800905D180040
:10441000805DD800905918008059D800906018002D
:104420008060B802905D1800805DD800905B180035
:10443000805BB001906030008060B001905B300024
:10444000805BB001905930008059D8009056180018
:104450008056D800905618008056B0019058300011
:104460008058D800905918008059D80090541800EE
:1044700080546003905460008054B0019056300026
:104480008056B001905830008058B00190593000EB
:104490008059D800905B1800805BD80090541800B9
:1044A0008054B001905930008059B001905B3000C9
:1044B000805BD800905D1800805DD800905E180089
:1044C000805EB001905E3000805ED800905D180084
:1044D000805DD800905B1800805BD8009059180070
:1044E0008059D8009059180080595007905D1002EB
:1044F000805DD800905E1800805ED8009060180043
:104500008060B001906030008060B0019060300049
:104510008060B001906030008060B0019060300039
:104520008060D800906218008062D8009060180007
:104530008060D800905E1800805ED800905D180002
:10454000805DB001905D3000805DB001905D300015
:10455000805DB001905D3000805DB001905D300005
:10456000805DD800905E1800805ED800905D1800D5
:10457000805DD800905B1800805BD80090591800CF
:104580008059B001905930008059B00190593000E5
:104590008059D800905818008058D80090561800BC
:1045A0008056B001905830008058B00190583000CB
:1045B0008058D800905918008059D800905B180096
:1045C000805BB001905B3000805BD800905D18008C
:1045D000805DD800905B1800805BD800905D18006B
:1045E000805DD800905B1800805B6003905D600088
:1045F000805DD800905E1800805ED8009060180042
:104600008060B001906030008060B0019060300048
:104610008060B001906030008060B0019060300038
:104620008060D800906218008062D8009060180006
:104630008060D800905E1800805ED800905D180001
:10464000805DB001905D3000805DB001905D300014
:10465000805DB001905D3000805DD800905E1800F4
:10466000805ED800905D1800805DD800905B1800D7
:10467000805BD800905918008059D80090581800D5
:104680008058D800905618008056B00190563000DF
:104690008056D800905818008058D80090591800BB
:1046A0008059D800905B1800805BD80090541800A7
:1046B0008054B001905930008059B001905B3000B7
:1046C000805BD800905D1800805DD800905B18007A
:1046D000805B8802905B4800805BD800905B18008C
:1046E000805BD800905918008059D8009059180064
:1046F000805960039059A00B8059D800905B180036
:10470000805BD800905D1800805DD800905918003B
:104710008059D800906018008060B802905D180041
:10472000805DD800905B1800805BB0019060300025
:104730008060B001905B3000805BB0019059300028
:104740008059D800905618008056D800905D180007
:10475000805DB802905918008059D8009058180010
:1047600080586003905960008059D8009058180014
:104770008058D800905618008056B00190583000EC
:104780008058B001905930008059D800905B1800D3
:10479000805BD800905418008054B00190593000CC
:1047A0008059B001905B3000805BD800905D1800AC
:1047B000805DD800905E1800805EB001905E300091
:1047C000805ED800905D1800805DD800905B180076
:1047D000805BD800905918008059D800905B180071
:1047E000805B6003905960008059D800905B18008E
:1047F000805BD800905D1800805DD800905918004B
:104800008059D800906018008060B802905D180050
:10481000805DD800905B1800805BB0019060300034
:104820008060B001905B3000805BD800905B180026
:10483000805BD800905918008059D8009056180015
:104840008056D800905618008056B001905830001D
:104850008058D800905918008059D80090541800FA
:1048600080546003905460008054B0019056300032
:104870008056B001905830008058B00190593000F7
:104880008059D800905B1800805BD80090541800C5
:104890008054B001905930008059B001905B3000D5
:1048A000805BD800905D1800805DD800905E180095
:1048B000805EB001905E3000805ED800905D180090
:1048C000805DD800905B1800805BD800905918007C
:1048D0008059D80090591800805960039069A00B46
:1048E0008069D800906A1800806AD800906C18001F
:1048F000806CB001906C3000806CB001906C300026
:10490000806CB001906C3000806CB001906C300015
:10491000806CD800906E1800806ED800906C1800E3
:10492000806CD800906A1800806AD80090691800DE
:104930008069B001906930008069B00190693000F1
:104940008069B001906930008069B00190693000E1
:104950008069D800906A1800806AD80090691800B1
:104960008069D800906718008067D80090651800AB
:104970008065B001906530008065B00190653000C1
:104980008065D800906418008064D8009062180098
:104990008062B001906430008064B00190643000A7
:1049A0008064D800906518008065D8009067180072
:1049B0008067B001906730008067D8009069180068
:1049C0008069D800906718008067D8009069180047
:1049D0008069D80090671800806760039069600064
:1049E0008069D800906A1800806AD800906C18001E
:1049F000806CB001906C3000806CB001906C300025
:104A0000806CB001906C3000806CB001906C300014
:104A1000806CD800906E1800806ED800906C1800E2
:104A2000806CD800906A1800806AD80090691800DD
:104A30008069B001906930008069B00190693000F0
:104A40008069B001906930008069D800906A1800D0
:104A5000806AD800906918008069D80090671800B3
:104A60008067D800906518008065D80090641800B1
:104A70008064D8009062F8018062D80090641800C9
:104A80008064D800906518008065D8009067180091
:104A90008067D800906018008060B0019065300099
:104AA0008065B001906730008067D8009069180079
:104AB0008069D80090671800806760039067600085
:104AC0008067D800906518008065D8009065180050
:104AD0008059100590599000806560030800090016
:104AE00009000A000A000B000C000C000D000E006B
:104AF0000F000F0010001100120013001500160027
:104B0000170018001A001B001D001F0021002300C1
:104B10002500270029002C002E003100340037002A
:104B20003A003E00410045004A004E005200570046
:104B30005C00620068006E0074007B0082008A00E6
:104B400092009B00A400AE00B800C300CF00DC00C0
:104B5000E900F700050115012501370149015D0153
:104B6000720188019F01B801D201ED010B022A02F6
:104B70004B026E029302BA02E40210033E0370037A
:104B8000A403DB03170455049704DD04270575050A
:104B9000C80520067D06E0064907B7072D08A908C5
:104BA0002D09B9094D0AEA0A900B400CFA0CC00D08
:104BB000910E6F0F5A1053115A1272139A14D41582
:104BC00020178018F519801B221DDE1EB420A62296
:104BD000B524E4263429A82B402E00310000000023
:104BE000000000000000000000000000000000F8CD
:104BF00000000000000000333000000000100C0630
:104C0000100C0600000000000000000040C07840CA
:104C1000C0784000043F04043F040400007088FC96
:104C200008300000001820FF211E0000F008F000EE
:104C3000E018000000211C031E211E0000F008885F
:104C4000700000001E2123241927211010160E00C9
:104C5000000000000000000000000000000000E074
:104C60001804020000000007182040000002041889
:104C7000E00000000040201807000000404080F0E5
:104C8000804040000202010F01020200000000F01B
:104C9000000000000101011F0101010000000000EF
:104CA0000000000080B07000000000000000000064
:104CB00000000000000101010101010100000000ED
:104CC0000000000000303000000000000000000084
:104CD00080601804006018060100000000E0100861
:104CE0000810E000000F102020100F00001010F836
:104CF000000000000020203F202000000070080875
:104D000008887000003028242221300000300888F4
:104D1000884830000018202020110E000000C0201C
:104D200010F8000000070424243F240000F808883D
:104D3000880808000019212020110E0000E01088CA
:104D400088180000000F112020110E0000380808FC
:104D5000C83808000000003F00000000007088080C
:104D600008887000001C222121221C0000E010088D
:104D70000810E0000000312222110F00000000C0E6
:104D8000C000000000000030300000000000008083
:104D90000000000000008060000000000000804073
:104DA000201008000001020408102000404040408C
:104DB00040404000040404040404040000081020DF
:104DC0004080000000201008040201000070480824
:104DD0000808F0000000003036010000C030C8288C
:104DE000E810E0000718272423140B000000C03847
:104DF000E0000000203C23020227382008F88888C1
:104E000088700000203F202020110E00C0300808CC
:104E100008083800071820202010080008F80808A3
:104E20000810E000203F202020100F0008F888889C
:104E3000E8081000203F20202320180008F8888868
:104E4000E8081000203F200003000000C0300808E0
:104E50000838000007182020221E020008F8080069
:104E60000008F808203F210101213F20000808F830
:104E7000080800000020203F202000000000080853
:104E8000F8080800C08080807F00000008F888C013
:104E900028180800203F20012638200008F80800C4
:104EA00000000000203F20202020300008F8F800FB
:104EB000F8F80800203F003F003F200008F830C00D
:104EC0000008F808203F200007183F00E0100808FD
:104ED0000810E0000F10202020100F0008F808082C
:104EE0000808F000203F210101010000E01008083F
:104EF0000810E0000F18242438504F0008F8888864
:104F000088887000203F2000030C30200070880843
:104F1000080838000038202121221C00180808F851
:104F2000080818000000203F2000000008F80800D2
:104F30000008F808001F202020201F0008788800A3
:104F400000C83808000007380E010000F80800F813
:104F50000008F800033C0700073C030008186880BD
:104F60008068180820302C03032C30200838C80033
:104F7000C83808000000203F200000001008080882
:104F8000C83808002038262120201800000000FE24
:104F9000020202000000007F40404000000C30C0D0
:104FA00000000000000000010638C00000020202FC
:104FB000FE000000004040407F00000000000402AE
:104FC00002020400000000000000000000000000D9
:104FD00000000000808080808080808000020204C9
:104FE00000000000000000000000000000008080C1
:104FF000808000000019242222223F2008F800802F
:1050000080000000003F112020110E0000000080F1
:1050100080800000000E1120202011000000008080
:105020008088F800000E112020103F2000008080B2
:1050300080800000001F222222221300008080F0C6
:10504000888888180020203F2020000000008080F1
:1050500080808000006B94949493600008F8008036
:1050600080800000203F210000203F200080989891
:10507000000000000020203F2020000000000080F1
:105080009898000000C08080807F000008F8000031
:1050900080808000203F24022D302000000808F886
:1050A000000000000020203F202000008080808041
:1050B00080808000203F20003F20003F80800080D3
:1050C00080800000203F210000203F2000008080E1
:1050D00080800000001F202020201F008080008092
:1050E0008000000080FFA12020110E000000008041
:1050F00080808000000E112020A0FF808080800032
:105100008080800020203F2120000100000080805E
:10511000808080000033242424241900008080E053
:10512000808000000000001F202000008080000020
:1051300000808000001F202020103F208080800001
:105140000080808000010E30080601008080008011
:10515000008080800F300C030C300F000080800036
:10516000808080000020312E0E3120008080800061
:105170000080808080818E70180601000080808011
:10518000808080000021302C2221300000000000AF
:10519000807C020200000000003F40400000000050
:1051A000FF00000000000000FF0000000002027C81
:1051B000800000000040403F0000000000060101A8
:1051C000020204040000000000000000280000208B
:0851D000B0AFFF7F01000000F9
:0851D8004941000835010008FF
:0451E00011010008B1
:1051E40000127A000100000010000000AAAAAAAA76
:1051F40048000000001001400040000000000000D2
:105204000000000000000000000000001403002063
:105214007C030020E40300200000000000000000E4
:10522400000000000000000000000000000000007A
:10523400000000000000000000000000000000006A
:10524400000000000000000000000000000000005A
:10525400000000000000000000000000000000004A
:10526400000000000000000000000000000000003A
:10527400000000000000000000000000000000002A
:10528400000000000000000000000000000000001A
:10529400000000000000000000000000000000000A
:1052A40000000000000000000000000000000000FA
:1052B40001000000000000000E33CDAB34126DE697
:1052C400ECDE05000B000000000000000000000000
:1052D40000000000000000000000000000000000CA
:1052E40000000000000000000000000000000000BA
:1052F40000000000000000000000000000000000AA
:105304000000000000000000000000000000000099
:0456340074160020C8
:0400000508000F1DC3
:00000001FF
