:020000040800F2
:1000000000500020851900084D1500084F15000804
:100010005115000853150008551500080000000090
:10002000000000000000000000000000B1370008E0
:1000300057150008000000005138000895380008E6
:10004000CD190008CD190008CD190008CD190008F8
:10005000CD190008CD190008CD190008CD190008E8
:10006000CD190008CD190008CD1900085915000850
:10007000CD190008CD190008CD190008CD190008C8
:10008000CD190008CD190008CD190008CD190008B8
:10009000CD190008CD190008CD190008CD190008A8
:1000A000CD19000869150008CD190008CD19000800
:1000B00079150008CD190008CD190008CD190008E0
:1000C000CD190008CD190008CD190008CD19000878
:1000D000CD190008CD190008CD190008CD19000868
:1000E000CD190008CD190008CD1900080000000046
:1000F0000000000000000000000000000000000000
:0C01000000000000000000005FF808F1A3
:1001100010B5054C237833B9044B13B10448AFF341
:1001200000800123237010BD540400200000000053
:10013000504B000808B5034B1BB103490348AFF30C
:10014000008008BD0000000058040020504B00084B
:1001500080F0004002E000BF81F0004142001FBF7C
:100160005FEA410392EA030F7FEA226C7FEA236C85
:100170006AD04FEA1262D2EB1363C1BFD21841407A
:1001800048404140B8BF5B42192B88BF704710F010
:10019000004F40F4000020F07F4018BF404211F0B3
:1001A000004F41F4000121F07F4118BF494292EA1B
:1001B000030F3FD0A2F1010241FA03FC10EB0C0047
:1001C000C3F1200301FA03F100F0004302D54942D4
:1001D00060EB4000B0F5000F13D3B0F1807F06D381
:1001E00040084FEA310102F10102FE2A51D2B1F179
:1001F000004F40EBC25008BF20F0010040EA03006E
:100200007047490040EB0000013A28BFB0F5000FED
:10021000EDD2B0FA80FCACF1080CB2EB0C0200FAA3
:100220000CF0AABF00EBC25052421843BCBFD040F2
:100230001843704792F0000F81F4000106BF80F46C
:1002400000000132013BB5E74FEA41037FEA226C2F
:1002500018BF7FEA236C21D092EA030F04D092F0FA
:10026000000F08BF0846704790EA010F1CBF00202E
:10027000704712F07F4F04D1400028BF40F000408B
:10028000704712F100723CBF00F50000704700F0AB
:10029000004343F0FE4040F4000070477FEA2262D2
:1002A00016BF08467FEA23630146420206BF5FEAA3
:1002B000412390EA010F40F4800070474FF00003A3
:1002C00004E000BF10F0004348BF40425FEA000C6A
:1002D00008BF704743F0964301464FF000001CE012
:1002E00050EA010208BF70474FF000030AE000BF68
:1002F00050EA010208BF704711F0004302D54042A6
:1003000061EB41015FEA010C02BF84460146002017
:1003100043F0B64308BFA3F18053A3F50003BCFA32
:100320008CF2083AA3EBC25310DB01FA02FC6344DF
:1003300000FA02FCC2F12002BCF1004F20FA02F2E6
:1003400043EB020008BF20F00100704702F12002D9
:1003500001FA02FCC2F1200250EA4C0021FA02F23A
:1003600043EB020008BF20EADC7070474FF0FF0C3F
:100370001CEAD0521EBF1CEAD15392EA0C0F93EA3A
:100380000C0F6FD01A4480EA010C400218BF5FEADC
:1003900041211ED04FF0006343EA501043EA51114F
:1003A000A0FB01310CF00040B1F5000F3EBF490049
:1003B00041EAD3715B0040EA010062F17F02FD2A4D
:1003C0001DD8B3F1004F40EBC25008BF20F0010030
:1003D000704790F0000F0CF0004C08BF49024CEA47
:1003E000502040EA51207F3AC2BFD2F1FF0340EAD9
:1003F000C250704740F400004FF00003013A5DDC4A
:1004000012F1190FDCBF00F000407047C2F100028A
:10041000410021FA02F1C2F1200200FA02FC5FEA77
:10042000310040F1000053EA4C0308BF20EADC70C1
:10043000704792F0000F00F0004C02BF400010F433
:10044000000F013AF9D040EA0C0093F0000F01F0E0
:10045000004C02BF490011F4000F013BF9D041EA02
:100460000C018FE70CEAD15392EA0C0F18BF93EA04
:100470000C0F0AD030F0004C18BF31F0004CD8D12E
:1004800080EA010000F00040704790F0000F17BFB5
:1004900090F0004F084691F0000F91F0004F14D0FB
:1004A00092EA0C0F01D142020FD193EA0C0F03D153
:1004B0004B0218BF084608D180EA010000F0004056
:1004C00040F0FE4040F40000704740F0FE4040F431
:1004D000400070474FF0FF0C1CEAD0521EBF1CEAD0
:1004E000D15392EA0C0F93EA0C0F69D0A2EB0302EE
:1004F00080EA010C49024FEA402037D04FF0805388
:1005000043EA111143EA10130CF000408B4238BF4C
:100510005B0042F17D024FF4000C8B4224BF5B1A5A
:1005200040EA0C00B3EB510F24BFA3EB510340EAA8
:100530005C00B3EB910F24BFA3EB910340EA9C0056
:10054000B3EBD10F24BFA3EBD10340EADC001B01C6
:1005500018BF5FEA1C1CE0D1FD2A3FF650AF8B426A
:1005600040EBC25008BF20F0010070470CF0004C77
:100570004CEA50207F32C2BFD2F1FF0340EAC250A2
:10058000704740F400004FF00003013A37E792F063
:10059000000F00F0004C02BF400010F4000F013AC1
:1005A000F9D040EA0C0093F0000F01F0004C02BFBC
:1005B000490011F4000F013BF9D041EA0C0195E725
:1005C0000CEAD15392EA0C0F08D142027FF47DAFBE
:1005D00093EA0C0F7FF470AF084676E793EA0C0FAE
:1005E00004D14B023FF44CAF08466EE730F0004CAC
:1005F00018BF31F0004CCAD130F000427FF45CAF3C
:1006000031F000437FF43CAF5FE700BF4FF0FF3CA9
:1006100006E000BF4FF0010C02E000BF4FF0010CFC
:100620004DF804CD4FEA40024FEA41037FEA226CC5
:1006300018BF7FEA236C11D001B052EA530C18BFE7
:1006400090EA010F58BFB2EB030088BFC81738BF4C
:100650006FEAE17018BF40F0010070477FEA226C3A
:1006600002D15FEA402C05D17FEA236CE4D15FEA36
:10067000412CE1D05DF8040B704700BF844608466A
:100680006146FFE70FB5FFF7C9FF002848BF10F12B
:10069000000F0FBD4DF808EDFFF7F4FF0CBF012070
:1006A00000205DF808FB00BF4DF808EDFFF7EAFFFA
:1006B00034BF012000205DF808FB00BF4DF808EDB5
:1006C000FFF7E0FF94BF012000205DF808FB00BFAA
:1006D0004DF808EDFFF7D2FF94BF012000205DF830
:1006E00008FB00BF4DF808EDFFF7C8FF34BF01203D
:1006F00000205DF808FB00BF4FEA4002B2F1FE4F58
:100700000FD34FF09E03B3EB12620DD94FEA0023D3
:1007100043F0004310F0004F23FA02F018BF4042AC
:1007200070474FF00000704712F1610F01D1420293
:1007300005D110F0004008BF6FF0004070474FF047
:100740000000704742000ED2B2F1FE4F0BD34FF0C3
:100750009E03B3EB126209D44FEA002343F0004337
:1007600023FA02F070474FF00000704712F1610F5A
:1007700001D1420202D14FF0FF3070474FF000002C
:10078000704700BF53B94AB9002908BF00281CBFF1
:100790004FF0FF314FF0FF3000F076B9ADF1080CAB
:1007A0006DE904CE00F006F8DDF804E0DDE902238F
:1007B00004B070472DE9F047089E0D460446884670
:1007C000002B4DD18A42944668D9B2FA82F252B1D6
:1007D00001FA02F3C2F1200120FA01F10CFA02FC45
:1007E00041EA030894404FEA1C41B8FBF1F71FFAB5
:1007F0008CFE01FB178807FB0EF0230C43EA08432D
:1008000098420AD91CEB030307F1FF3580F01E81E3
:10081000984240F21B81023F63441B1AB3FBF1F084
:1008200001FB103300FB0EFEA4B244EA0344A645CC
:100830000AD91CEB040400F1FF3380F00981A645BE
:1008400040F20681644402380021A4EB0E0440EA21
:1008500007401EB10023D440C6E90043BDE8F0873D
:100860008B4208D9002E00F0EE800021C6E9000579
:100870000846BDE8F087B3FA83F100294AD1AB42BC
:1008800002D3824200F2FC80841A65EB030301204C
:100890009846002EE2D0C6E90048DFE702B9FFDE45
:1008A000B2FA82F2002A40F09180A1EB0C00012103
:1008B0004FEA1C471FFA8CFEB0FBF7F307FB13004F
:1008C000250C45EA00450EFB03F0A84208D91CEBB5
:1008D000050503F1FF3802D2A84200F2CE8043465C
:1008E0002D1AB5FBF7F007FB10550EFB00FEA4B266
:1008F00044EA0544A64508D91CEB040400F1FF3581
:1009000002D2A64500F2B6802846A4EB0E0440EAC7
:1009100003409EE7C1F120078B4022FA07FC4CEA16
:10092000030C25FA07FA4FEA1C49BAFBF9F820FA3A
:1009300007F309FB18AA8D401FFA8CFE1D4300FA2D
:1009400001F308FB0EF02C0C44EA0A44A04202FA20
:1009500001F20BD91CEB040408F1FF3A80F0888007
:10096000A04240F28580A8F102086444241AB4FB36
:10097000F9F009FB104400FB0EFEADB245EA044459
:10098000A64508D91CEB040400F1FF356CD2A6453E
:100990006AD90238644440EA0840A0FB0295A4EBFF
:1009A0000E04AC42C846AE4656D353D0002E69D092
:1009B000B3EB080264EB0E0422FA01F304FA07F722
:1009C0001F43CC40C6E90074002147E70CFA02FC43
:1009D000C2F1200125FA01F34FEA1C4720FA01F188
:1009E00095400D43B3FBF7F107FB11331FFA8CFE63
:1009F000280C40EA034001FB0EF3834204FA02F4A0
:100A000008D91CEB000001F1FF382FD283422DD909
:100A100002396044C01AB0FBF7F307FB1300ADB214
:100A200045EA004503FB0EF0A84208D91CEB05057A
:100A300003F1FF3816D2A84214D9023B6544281AA4
:100A400043EA014138E73146304607E72F46E4E6FE
:100A50001846F9E64B45A9D2B9EB020865EB0C0E36
:100A60000138A3E74346EAE7284694E74146D1E741
:100A7000D0467BE76444023847E7023B65442FE7F2
:100A8000084606E73146E9E6704700BF00B585B085
:100A900000230193029303932B482C4A02604FF4E6
:100AA00080728260037303754FF46022C2614360F9
:100AB0000523036101F098F9002832D10023019346
:100AC000012302930523039301A91F4800F0E2FFCD
:100AD00050BB012301930223029301A91A4800F09D
:100AE000D9FF20BB022301930323029301A91648D7
:100AF00000F0D0FFF0B903230193042302930DEB20
:100B00000301114800F0C6FFB8B90423019305237F
:100B1000029301A90C4800F0BDFF88B905B05DF84B
:100B200004FB00F0A9FBC9E700F0A6FBD1E700F049
:100B3000A3FBD7E700F0A0FBDDE700F09DFBE4E7B7
:100B400000F09AFBEAE700BF700400200024014097
:100B500010B586B0002302930393049305930268B3
:100B60001E4B9A4201D006B010BD044603F56C43FB
:100B70009A6942F400729A619A6902F400720092D2
:100B8000009A9A6942F004029A619B6903F0040397
:100B90000193019B1F2302930323039302A910488F
:100BA00001F0A8FB0F48104B0360002343608360F3
:100BB0008022C2604FF4807202614FF48062426111
:100BC00020228261C36101F081FA18B9054B2362CA
:100BD0005C62C8E700F050FBF8E700BF002401406A
:100BE00000080140A00400200800024000B583B0C6
:100BF0000A4B5A6942F001025A615B6903F0010332
:100C00000193019B002205210B2001F003FA0B2028
:100C100001F038FA03B05DF804FB00BF0010024099
:100C2000034B0360034B0B6080231360704700BFCE
:100C30007C0700207C05002010B58EB0124C0DF111
:100C40001C0CA646BEE80F00ACE80F009EE80700AB
:100C50008CE80700002107A802F0E5FC0B4B1860A8
:100C6000EE4604F11C0CBCE80F00AEE80F009CE857
:100C700007008EE807000021684602F0D4FC044B10
:100C800018600EB010BD00BF684B00086005002062
:100C9000F804002010B58388B3F5C86F94BF002313
:100CA00001230289B2F5C86F2FD902221343C288EB
:100CB000B2F5C86F2BD9042213434288B2F5C86F2E
:100CC00027D9082213430288B2F5C86F23D910220E
:100CD0001343324A1370324B1B78F3B92F4B1B78F6
:100CE0001F2B32D000232F4A13602F4A13602B4B47
:100CF0001A782E4B98562E4BD34013F0010F49D043
:100D0000FFF7E0FA2B4B186010BD0022CEE700225F
:100D1000D2E70022D6E70022DAE703F0F7FB264B02
:100D20001968FFF719FA254B18602549FFF7BCFC35
:100D300038B11A4B1B78B3FA83F35B09214A13705D
:100D4000CCE7204B00221A70C8E7164B1B68D3B1C2
:100D500003F0DCFB0446134B1868FFF7AFFA0146BB
:100D60002046FFF7F9F91849FFF7B2FC0028BED07A
:100D70000D4A13680133136003F0C8FBFFF7E2FC70
:100D8000084B1860B3E703F0C1FBFFF7DBFC054B32
:100D90001860DDE7074B00221A60B5E70005002068
:100DA00024050020FC04002018050020B84B000892
:100DB000FE9101D104050020280500202005002017
:100DC0000000FA44010500200000A04110B503F026
:100DD000A9FB154B1B683C22DA6304E003F0F2FC2C
:100DE000012002F055FC03F0A3FB03F0B9FA0F4B0E
:100DF00018800F4C052221460E4800F031FF204696
:100E0000FFF748FF0C4B1B78002BE7D00B4B1B78F0
:100E1000002BE3D10122094B1A70094B19880948AC
:100E200003F0ACFCDAE700BF000900200805002051
:100E3000E404002070040020140500201C0500209C
:100E40001E4C0008204C0008F8B50021524803F061
:100E50003DFD03F05BFB514B1968FFF77DF9504BEB
:100E600018605049FFF720FC18B14F4B1B78002B3E
:100E700061D04D4B01221A7003F048FB4B4B1968AF
:100E8000FFF76AF94A4B18604A49FFF70DFC18B1A1
:100E9000494B1B78002B57D0474B01221A7003F0A7
:100EA00035FB464B1968FFF757F9454B1860454924
:100EB000FFF7FAFB18B1444B1B78002B4DD0424B87
:100EC00001221A7003F022FB404B1968FFF744F926
:100ED0003F4B18600021FFF7E7FB002846D12E4B5F
:100EE0001D693C4B1C6821462846FFF737F9FFF780
:100EF00003FC394E306029462046FFF72DF9FFF7F5
:100F0000FBFB364B186036681F682846FFF7F4FB7A
:100F100003463A463146204603F0E2FB304B1B784D
:100F200043B1214B1B782BB1234B1B7813B1264BBC
:100F30001B7803BBF8BD2B49174803F0C7FC03F02F
:100F4000E5FA1A4B1860CAE72749134803F0BEFCBC
:100F500003F0DCFA194B1860C1E700210E4803F0DA
:100F6000B5FC03F0D3FA194B1860B8E700210A4822
:100F700003F0ACFCB3E700231C4A13701C4A0121A8
:100F80001170094A13700C4A13700F4A137003F062
:100F9000BDFA184B1860CDE7680500203005002029
:100FA000340500200000C843380500204405002017
:100FB0003C0500200000964440050020500500201C
:100FC000480500200000C8444C05002058050020BA
:100FD00054050020F0040020100500205C050020CE
:100FE0000005002000002041000020C12C05002049
:100FF0002405002028050020F8B5414803F05EFCD8
:10100000404B00221A60404B404A1A6003F08AFAB3
:101010003F4B1B683C22DA6357E03E4B1B78002BAA
:1010200057D13C4B01221A7053E03B4B00221A600F
:101030003A4B1B78002B43D1394B1B78002B3BD10B
:10104000344B1B7873B9334B1B781BB1354B1B7872
:10105000002B2CD1344B1B68032B33DD304B01228A
:101060001A702FE0264C314B1968204603F02EFCF5
:101070002569254B1C6821462846FFF76FF8FFF7C6
:101080003BFB2B4E306029462046FFF765F8FFF703
:1010900033FB284B186036681F682846FFF72CFB87
:1010A00003463A463146204603F01AFBCBE76FF081
:1010B0002C0003F055FBCDE7002003F051FB01E0CD
:1010C000FFF7C2FE012002F0E3FA1B4B9B79012BD4
:1010D000A3D01A4B1B880C3B9BB2062BA5D80E4AFB
:1010E000136801331360042BA2DD0C4B01221A702C
:1010F00003F00CFA124B1860014803F03DFC97E72F
:101100006805002064050020F0040020000048422B
:1011100000090020140500200C0500202C050020EB
:10112000F40400200105002018050020040500201B
:10113000100500205C050020140000200805002098
:10114000300500202DE9F04788B000240494059470
:10115000069407943D4B9A6942F010029A619A698D
:1011600002F010020092009A9A6942F020029A61FD
:101170009A6902F020020192019A9A6942F00402EF
:101180009A619A6902F004020292029A9A6942F004
:1011900008029A619B6903F008030393039BDFF83D
:1011A000B09022464FF42041484601F0BCF9DFF8E8
:1011B000A48022464FF43C41404601F0B4F9264D4C
:1011C00022464FF41141284601F0ADF94FF4204377
:1011D00004930127059706940226079604A948461A
:1011E00001F088F84FF4804ACDF810A005940694D9
:1011F00004A9484601F07EF84FF43C430493059758
:101200000694079604A9404601F074F8CDF810A0A2
:10121000124B0593069404A9404601F06BF84FF475
:101220001143049305970694079604A9284601F0F4
:1012300061F84FF4006304930594069404A92846CA
:1012400001F058F808B0BDE8F08700BF0010024078
:1012500000100140000C0140000801400000111086
:1012600008B50268034B9A4200D008BD00F0C2FBEB
:10127000FBE700BF002C014072B6FEE700B595B059
:10128000282200210DEB020003F0A0FB00230593B0
:10129000069307930893099301930293039304938E
:1012A00001220A924FF480330B930E920222119284
:1012B00012934FF4E01313930AA801F051F9C8B93F
:1012C0000F23059302210691002307934FF48062B8
:1012D0000892099305A801F075FB68B902230193F0
:1012E0004FF40043039301A801F066FC30B915B038
:1012F0005DF804FBFFF7C0FFFFF7BEFFFFF7BCFF81
:1013000008B500F065FBFFF7B9FFFFF71BFFFFF71C
:101310006DFC00F04BF800F0E7F900F025FA00F062
:101320007FFA00F0D9FAFFF7B1FB1C4800F0E0FDAE
:101330001B4C0021204602F04BF80421204602F00D
:1013400047F8184C0021204602F042F804212046BC
:1013500002F03EF80821204602F03AF80C2120461F
:1013600002F036F8104C0021204602F031F804213A
:10137000204602F02DF80821204602F029F80C2121
:10138000204602F025F8482003F078F803F0CAF868
:10139000FFF752FC02F042F9FEE700BF70040020A4
:1013A00070080020B80800200009002008B50E4889
:1013B0000E4B03604FF48273436000238360C3606D
:1013C000036143614FF4007282613822C26103629B
:1013D000436283620A23C36201F0E6FC00B908BDE0
:1013E000FFF74AFFFBE700BFD007002000300140B5
:1013F00010B586B00023029303930493059302680B
:10140000164B9A4201D006B010BD03F560439A69AD
:1014100042F480529A619A6902F480520092009AD2
:101420009A6942F004029A619B6903F004030193F4
:10143000019BA02302930223039303230593084CEB
:1014400002A9204600F056FF402302930023039395
:10145000049302A9204600F04DFFD4E7003001407C
:101460000008014000B583B0114B9A6942F00102B7
:101470009A619A6902F001020092009ADA6942F0D8
:101480008052DA61DB6903F080530193019B0022F3
:101490000F216FF0010000F0BDFD064A536823F0F4
:1014A000E06343F00073536003B05DF804FB00BFDA
:1014B000001002400000014030B589B004461E4BC8
:1014C0009A6942F400629A619B6903F40063019394
:1014D000019B02A903A801F051FB01F03FFB034669
:1014E0001648A0FB03239B0C013B1548154A0260DC
:1014F00040F2E732C260436000230361836083618E
:1015000001F05EFE054610B1284609B030BD0C481A
:1015100001F02CFD05460028F6D1192000F0B2FD9F
:101520000F2C01D90125EFE700222146192000F0F8
:1015300071FD054B1C60E7E70010024083DE1B4392
:1015400028080020002C014008000020FEE7FEE7EC
:10155000FEE7FEE7FEE7704708B5024800F028FE08
:1015600008BD00BFA004002008B5024801F036FD08
:1015700008BD00BF2808002008B5024801F02EFD74
:1015800008BD00BF700800207047000000B585B09E
:101590000368B3F1804F08D0194A934219D0194A11
:1015A000934221D005B05DF804FB03F50433DA69FA
:1015B00042F00102DA61DB6903F001030193019B50
:1015C000002205211C2000F025FD1C2000F05AFD02
:1015D000E8E70D4BDA6942F00202DA61DB6903F0F9
:1015E00002030293029BDDE7074BDA6942F0040233
:1015F000DA61DB6903F004030393039BD2E700BFC6
:1016000000040040000800400010024000B589B00E
:10161000002304930593069307930368B3F1804F67
:1016200008D02C4A934223D02B4A93423DD009B094
:101630005DF804FB03F504339A6942F008029A61ED
:101640009B6903F008030193019B08230493022381
:101650000593079304A9214800F04CFE204A5368E3
:1016600023F4407343F0E06343F480735360DEE798
:101670001C4B9A6942F008029A619B6903F00803C7
:101680000293029B3323049302230593079304A937
:10169000124800F02FFE124A536823F4406343F0CF
:1016A000E06343F400635360C1E70E4B9A6942F074
:1016B00008029A619B6903F008030393039B4FF4AC
:1016C0007073049302230593079304A9034800F061
:1016D00011FEACE70004004000080040000C01408F
:1016E000000001400010024000B58BB000230893B9
:1016F000099301930293039304930593069307932D
:1017000018484FF0804202604722426083606322A3
:10171000C2600361836101F07FFDD0B900230893AB
:10172000099308A90F4801F0C1FEA8B960230193ED
:10173000002302930393059304220DEB0201094851
:1017400001F0C8FD58B90748FFF760FF0BB05DF81E
:1017500004FBFFF791FDE1E7FFF78EFDE6E7FFF7FA
:101760008BFDF0E77008002000B58BB000230893D4
:1017700009930193029303930493059306930793AC
:101780002548264A02604722426083606322C26085
:101790000361836101F040FD58BB00230893099366
:1017A00008A91D4801F082FE30BB6023019300228E
:1017B00002920392059201A9174801F08BFDF0B93E
:1017C00004220DEB0201144801F084FDD0B9082277
:1017D00001A9114801F07EFDB8B90C2201A90E48FB
:1017E00001F078FDA0B90C48FFF710FF0BB05DF8D1
:1017F00004FBFFF741FDD0E7FFF73EFDD5E7FFF71C
:101800003BFDDDE7FFF738FDE1E7FFF735FDE4E7F6
:10181000FFF732FDE7E700BFB808002000040040F2
:1018200000B58BB0002308930993019302930393AF
:1018300004930593069307932548264A026047229E
:10184000426083606322C2600361836101F0E4FC53
:1018500058BB00230893099308A91D4801F026FEF0
:1018600030BB60230193002202920392059201A9EA
:10187000174801F02FFDF0B904220DEB02011448C6
:1018800001F028FDD0B9082201A9114801F022FD7C
:10189000B8B90C2201A90E4801F01CFDA0B90C48F2
:1018A000FFF7B4FE0BB05DF804FBFFF7E5FCD0E7F3
:1018B000FFF7E2FCD5E7FFF7DFFCDDE7FFF7DCFC35
:1018C000E1E7FFF7D9FCE4E7FFF7D6FCE7E700BF65
:1018D000000900200008004008B50A480A4B0360D0
:1018E0004FF4E133436000238360C36003610C2243
:1018F00042618361C36101F05BFE00B908BDFFF77F
:10190000BBFCFBE7480900200038014010B586B059
:10191000002302930393049305930268174B9A42A2
:1019200001D006B010BD03F558439A6942F48042D5
:101930009A619A6902F480420092009A9A6942F090
:1019400004029A619B6903F004030193019B4FF425
:10195000007302930223039303230593084C02A907
:10196000204600F0C7FC4FF48063029300230393EA
:10197000049302A9204600F0BDFCD2E700380140E4
:1019800000080140FFF700FE0B480C490C4A0023F9
:1019900002E0D458C4500433C4188C42F9D3094A25
:1019A000094C002301E013600432A242FBD302F091
:1019B000E9FFFFF7A5FC7047000000205404002059
:1019C000005500085404002014170020FEE7000012
:1019D00008B5074A136843F010031360032000F0B2
:1019E00007FB0F20FFF768FDFFF73CFD002008BD57
:1019F00000200240034A1168034B1B780B4413601C
:101A0000704700BF9009002004000020014B1868B7
:101A1000704700BF90090020704708B5436A9A6A72
:101A200012F0500F1ED19A6A42F400729A621A683C
:101A3000926802F46022B2F5602F03D01846FFF7D7
:101A4000EBFF08BD1A7B002AF8D19A6A22F4807253
:101A50009A629A6A12F4805FF0D19A6A42F00102A7
:101A60009A62EBE71B6A1B6B9847EAE7704708B579
:101A7000406AFFF7FBFF08BD704708B5406A836AFC
:101A800043F040038362C36A43F00403C362FFF779
:101A9000F3FF08BD30B482B00022019290F82420F8
:101AA000012A00F091800346012280F824204A6830
:101AB000062A2DD80468606B02EB8202053A4FF0CB
:101AC0001F0C0CFA02FC20EA0C000D6805FA02F269
:101AD000024362630A68092A3AD91C68E06802EB8B
:101AE00042021E3A4FF0070C0CFA02FC20EA0C00EE
:101AF0008D6805FA02F20243E2600A68103A012A90
:101B000036D90020002283F8242002B030BC704770
:101B10000C2A0ED80568286B02EB8202233A1F2498
:101B2000944020EA04000C6804FA02F202432A639B
:101B3000D0E70568E86A02EB8202413A1F2494402C
:101B400020EA04000C6804FA02F20243EA62C1E7E8
:101B50001C68206902EB42024FF0070C0CFA02FCF1
:101B600020EA0C008D6805FA02F202432261C4E704
:101B70001A681648824205D09A6A42F020029A6298
:101B80000120BFE7906810F4000F1BD1906840F46B
:101B9000000090600A68102A01D00020B2E70C4AC9
:101BA00012680C49A1FB0212920C02EB8202520055
:101BB000019202E0019A013A0192019A002AF9D1B8
:101BC00000209FE700209DE702209EE700240140BF
:101BD0000000002083DE1B4330B583B00023019357
:101BE00003689A6812F0010F33D104469A6842F0F4
:101BF00001029A60184B1B68184AA2FB03239B0C36
:101C0000019302E0019B013B0193019B002BF9D161
:101C1000FFF7FCFE054623689B6813F0010F16D101
:101C2000FFF7F4FE431B022BF5D923689B6813F0E2
:101C3000010FF0D1A36A43F01003A362E36A43F0FB
:101C40000103E362002384F82430012002E0002035
:101C500000E0002003B030BD0000002083DE1B4305
:101C6000F8B504460D46164601684448814259D0ED
:101C7000434B994256D094F82430012B7CD0012359
:101C800084F824302046FFF7A7FF074600286ED1CE
:101C9000A16A21F4706121F0010141F48071A16217
:101CA0002268374B9A4244D0A36A23F48013A3627C
:101CB000536813F4806F05D0A36A23F4405343F4B0
:101CC0008053A362A36A13F4805F48D0E36A23F0D1
:101CD0000603E362002384F82430236A294A9A62C7
:101CE000236A294ADA62236A284A1A6323686FF052
:101CF00002021A602268936843F48073936021683B
:101D000033462A464C31206A00F016FA23689A6856
:101D100002F46022B2F5602F24D09A6842F4801257
:101D20009A6027E0154B5B6813F4702FA3D001274E
:101D300020E0A3F580635B6813F4702FB4D0A36A2E
:101D400043F48013A3620D4B5B6813F4806FB9D02A
:101D5000A36A23F4405343F48053A362B2E7002301
:101D6000E362B7E79A6842F4A0029A6002E00023B7
:101D700084F824303846F8BD0227FBE700240140F0
:101D8000002801401B1A00086F1A00087B1A00087F
:101D900038B503689A6812F0010F01D1002038BDF0
:101DA00004469A6822F001029A60FFF72FFE05466A
:101DB00023689B6813F0010F13D0FFF727FE431B26
:101DC000022BF5D923689B6813F0010FF0D0A36AAA
:101DD00043F01003A362E36A43F00103E3620120CE
:101DE000DDE70020DBE7000000287BD070B504466B
:101DF000836A002B4DD02046FFF7CAFFA36A13F079
:101E0000100369D1002867D1A26A22F4885222F017
:101E1000020242F00202A2626268E1690A43217B87
:101E200042EA4102A568B5F5807F02D0012D36D087
:101E30001D46267D012E35D02668716821F4694142
:101E4000294371602568AE68274931401143A96074
:101E5000A168B1F5807F01D0012902D12369013B3E
:101E60001B052568E96A21F470010B43EB622368C6
:101E700099681E4B0B409A4225D0A36A23F01203A7
:101E800043F01003A362E36A43F00103E36201201D
:101E900027E0C36280F82430FEF75AFEABE74FF428
:101EA0008075C6E731B9A169013945EA413141F48C
:101EB0000065C1E7A16A41F02001A162E16A41F039
:101EC0000101E162B8E70023E362A36A23F00303A0
:101ED00043F00103A36204E0A36A43F01003A3628A
:101EE000012070BD01207047FDF7E1FFFE0E1FFFCE
:101EF00070B582B00023019390F82430012B72D08A
:101F00000446012380F82430FFF742FF2046FFF704
:101F100063FE054628B1002384F82430284602B029
:101F200070BDA36A23F4885323F0020343F0020335
:101F3000A3622E4B1E68022000F0CAFEB6FBF0F62C
:101F40007600019602E0019B013B0193019B002B6F
:101F5000F9D12268936843F008039360FFF756FDB8
:101F6000064623689A6812F0080F14D0FFF74EFD5A
:101F7000801B0A28F5D923689B6813F0080FF0D05E
:101F8000A36A23F0120343F01003A362002384F832
:101F900024300125C2E79A6842F004029A60FFF7F4
:101FA00035FD064623689B6813F0040F14D0FFF735
:101FB0002DFD801B0A28F5D923689B6813F0040FB8
:101FC000F0D0A36A23F0120343F01003A3620023AE
:101FD00084F824300125A1E7A36A23F0030343F02A
:101FE0000103A36297E7022598E700BF00000020E5
:101FF000074AD36823F4E0631B041B0C000200F4BF
:10200000E060034343F0BF6343F40033D3607047A1
:1020100000ED00E000B5194BDB68C3F30223C3F108
:10202000070CBCF1040F28BF4FF0040C03F1040EA1
:10203000BEF1060F18D9033B4FF0FF3E0EFA0CFC21
:1020400021EA0C0199400EFA03F322EA0303194333
:1020500000280BDB0901C9B200F1604000F56140C6
:1020600080F800135DF804FB0023E5E700F00F00A3
:102070000901C9B2024B1954F4E700BF00ED00E0BA
:1020800014ED00E0002807DB00F01F0240090123E7
:102090009340024A42F82030704700BF00E100E060
:1020A00030B40124056CAC40C56B6C60046863609F
:1020B0004368102B05D0036899600368DA6030BC70
:1020C000704703689A600368D960F8E760B310B49A
:1020D00002460168154B0B441548A0FB03031B097E
:1020E0009B001364134BD363022382F821300868EA
:1020F00020F47F5020F03000536894682343D46864
:102100002343146923435469234394692343D469C3
:10211000234303430B6000209063012382F82130A6
:1021200082F8200010BC704701207047F8FFFDBF07
:10213000CDCCCCCC0000024038B5044690F820004D
:10214000012832D0012084F8200094F82100C0B288
:10215000012804D0002384F82030022038BD02205A
:1021600084F821000020A0632568286820F0010081
:1021700028602046FFF794FFE36A5BB1226813688A
:1021800043F00E0313602268136843F001031360E9
:102190000020E3E72268136823F004031360226839
:1021A000136843F00A031360EDE70220D6E700004E
:1021B00038B5C36B1A6804682568016C04238B402A
:1021C000134235D015F0040F32D0236813F0200FDE
:1021D00003D1236823F0040323600368434A934236
:1021E00014D01432934218D01432934217D01432C0
:1021F000934217D01432934217D01432934202D034
:102200004FF0806203E04FF4800200E00422384B7C
:102210005A60C36A03B1984738BD4022F7E74FF4CC
:102220008062F4E74FF48042F1E74FF48022EEE75A
:1022300002238B4013423CD015F0020F39D02368A3
:1022400013F0200F06D1236823F00A032360012333
:1022500080F821300368254A934214D01432934207
:102260001CD0143293421BD0143293421BD0143230
:1022700093421BD01432934202D04FF0007203E01D
:102280004FF4001200E00222194B5A60002380F83C
:102290002030836A002BBFD09847BDE72022F3E7A8
:1022A0004FF40072F0E74FF40052EDE74FF40032C4
:1022B000EAE7082303FA01F11142ADD015F0080F47
:1022C000AAD0236823F00E032360026CC16B0123A4
:1022D00003FA02F24A60836380F82130002380F819
:1022E0002030036B002B97D0984795E708000240F9
:1022F0000000024070B582B00024A446A6E0804DE4
:10230000AA4210D007D97F4DAA420CD005F58035DE
:10231000AA4208D013E0A5F58015AA4203D005F51E
:102320007025AA4207D18A68002A58D0012A51D0C4
:102330004361082403E0A5F58015AA42F3D0BEF15D
:10234000FF0F4ED80646BEF1FF0F4CD84FEA8C0265
:1023500033680F25954023EA050304FA02F213437C
:1023600033604B6813F0805F6ED0674B9A6942F020
:1023700001029A619B6903F001030193019B4FEAFB
:102380009C02951C614B53F825600CF003039D00E3
:102390000F23AB4026EA03065D4B984229D003F594
:1023A0008063984200F08E8003F58063984200F0CD
:1023B0008B8003F58063984219D004231AE0CC681F
:1023C000BDE7CC680434BAE7CC680834B7E7CC681A
:1023D0000C34B4E703610824B1E70024AFE7042418
:1023E000ADE7061DAFE7ACF108029200B0E70323AA
:1023F00000E00023AB4033430232444D45F8223025
:102400004B6813F4801F61D0424A936843EA0E037D
:1024100093604B6813F4001F5ED03E4AD36843EAD2
:102420000E03D3604B6813F4003F5BD0394A536806
:1024300043EA0E0353604B6813F4803F58D0354A8B
:10244000136843EA0E0313600CF1010C0A6832FAB8
:102450000CF353D0012303FA0CF302EA030E33EA20
:102460000202F1D14A68122A3FF649AF122A3FF61A
:1024700066AF01A555F822F027230008BF23000806
:10248000C9230008DB2300083F2300083F2300087E
:102490003F2300083F2300083F2300083F23000894
:1024A0003F2300083F2300083F2300083F23000884
:1024B0003F2300083F2300083F230008C3230008F0
:1024C000CF230008012395E7022393E7114A93687D
:1024D00023EA0E0393609CE70E4AD36823EA0E03B7
:1024E000D3609FE70B4A536823EA0E035360A2E7C9
:1024F000084A136823EA0E031360A5E702B070BD13
:1025000000002210000031100010024000000140C5
:1025100000080140000401408368194201D00120F5
:102520007047002070470AB10161704709040161DA
:102530007047000082B0084B1B68084AA2FB0323C7
:102540005B0A00FB03F3019300BF019B5A1E01923B
:10255000002BF9D102B0704700000020D34D62106B
:10256000002800F0F18170B582B00446036813F0D2
:10257000010F2CD0994B5B6803F00C03042B1DD08A
:10258000964B5B6803F00C03082B12D06368B3F51D
:10259000803F41D0002B55D103F1804303F5043334
:1025A0001A6822F480321A601A6822F480221A60B3
:1025B00037E08A4B5B6813F4803FE7D0874B1B689A
:1025C00013F4003F03D06368002B00F0BF81236841
:1025D00013F0020F75D0814B5B6813F00C0F5FD0C6
:1025E0007E4B5B6803F00C03082B54D02369002B4F
:1025F00000F08A807A4B01221A60FFF707FA05463D
:10260000764B1B6813F0020F75D1FFF7FFF9401BE3
:102610000228F5D903209EE1704A136843F4803301
:102620001360636843B3FFF7F1F905466B4B1B6812
:1026300013F4003FCBD1FFF7E9F9401B6428F5D92B
:10264000032088E1B3F5A02F09D0644B1A6822F467
:1026500080321A601A6822F480221A60E1E703F1DE
:102660008043A3F53C331A6842F480221A601A684A
:1026700042F480321A60D4E7FFF7C8F90546574B99
:102680001B6813F4003FA2D0FFF7C0F9401B642879
:10269000F5D903205FE1514B5B6813F4803FA5D16E
:1026A0004E4B1B6813F0020F03D02369012B40F03F
:1026B0004F814A4A136823F0F803616943EAC10372
:1026C0001360236813F0080F33D0A369002B5CD08C
:1026D000434B0122C3F88024FFF798F905463F4B8E
:1026E0005B6A13F0020F21D1FFF790F9401B02281B
:1026F000F5D903202FE1394A136823F0F803616903
:1027000043EAC1031360DCE7354B00221A60FFF790
:102710007DF90546314B1B6813F0020FD1D0FFF74E
:1027200075F9401B0228F5D9032014E10120FFF7B9
:1027300001FF236813F0040F00F09680274BDB693C
:1027400013F0805F34D1254BDA6942F08052DA61B0
:10275000DB6903F080530193019B0125214B1B682A
:1027600013F4807F26D0E368012B3DD0002B53D19A
:1027700003F1804303F504331A6A22F001021A625E
:102780001A6A22F004021A6233E0154B0022C3F8E1
:102790008024FFF73BF90546104B5B6A13F0020FEC
:1027A000C7D0FFF733F9401B0228F5D90320D2E048
:1027B0000025D3E70B4A136843F480731360FFF7D7
:1027C00025F90646074B1B6813F4807FCBD1FFF732
:1027D0001DF9801B6428F5D90320BCE000100240DD
:1027E00000004242007000405F4A136A43F0010358
:1027F0001362E36833B3FFF709F906465A4B1B6AC5
:1028000013F0020F2FD1FFF701F9801B41F288333B
:102810009842F3D903209EE0052B09D0524B1A6A47
:1028200022F001021A621A6A22F004021A62E0E738
:102830004D4B1A6A42F004021A621A6A42F001020F
:102840001A62D6E7FFF7E2F80646474B1B6A13F019
:10285000020F08D0FFF7DAF8801B41F28833984264
:10286000F3D9032077E0E5B9E369002B72D03E4A43
:10287000526802F00C02082A56D0022B17D03B4BAC
:1028800000221A66FFF7C2F80446374B1B6813F0A4
:10289000007F47D0FFF7BAF8001B0228F5D90320C4
:1028A00059E0314AD36923F08053D361DCE72F4BE1
:1028B00000221A66FFF7AAF805462B4B1B6813F097
:1028C000007F06D0FFF7A2F8401B0228F5D90320AD
:1028D00041E0236AB3F5803F1AD023494B6823F4C3
:1028E0007413226A606A024313434B601F4B012238
:1028F0001A66FFF78BF804461B4B1B6813F0007F2A
:102900000ED1FFF783F8001B0228F5D9032022E03F
:10291000154A536823F40033A1680B435360DCE786
:10292000002018E0002016E0012B16D00E4B5B684B
:1029300003F48031226A914211D103F47013626A68
:1029400093420ED1002006E001207047012002E0F2
:10295000012000E0002002B070BD0120FBE7012053
:10296000F9E70120F7E700BF0010024000004242F3
:102970000F4B5B6803F00C02082A01D00D4870472A
:10298000C3F383420C49885C13F4803F0BD0084B9F
:102990005B68C3F34043094AD35C064A02FB00F07C
:1029A000B0FBF3F07047064B03FB00F0704700BF2D
:1029B0000010024000127A00F04B0008004C0008A2
:1029C00000093D00002800F0A08070B50D460446C7
:1029D000524B1B6803F007038B420BD24F4A13681C
:1029E00023F007030B431360136803F007038B42C4
:1029F00040F08D80236813F0020F17D013F0040FFE
:102A000004D0474A536843F4E0635360236813F0EB
:102A1000080F04D0424A536843F460535360404A5D
:102A2000536823F0F003A1680B435360236813F04D
:102A3000010F31D06368012B20D0022B25D0384AFA
:102A4000126812F0020F64D035494A6822F003027E
:102A500013434B60FEF7DAFF0646314B5B6803F029
:102A60000C036268B3EB820F16D0FEF7CFFF801B1A
:102A700041F288339842F0D9032045E0284A126891
:102A800012F4003FE0D101203EE0254A126812F026
:102A9000007FD9D1012037E0204B1B6803F00703EA
:102AA000AB420AD91D4A136823F007032B43136076
:102AB000136803F00703AB422DD1236813F0040F12
:102AC00006D0174A536823F4E063E1680B43536070
:102AD000236813F0080F07D0114A536823F460539A
:102AE000216943EAC1035360FFF742FF0C4B5B6867
:102AF000C3F303130B4AD35CD8400B4B18600B4B4A
:102B00001868FEF7D9FC002070BD01207047012035
:102B1000FAE70120F8E70120F6E700BF00200240B5
:102B200000100240D84B00080000002008000020E0
:102B3000014B1868704700BF0000002008B5FFF780
:102B4000F7FF044B5B68C3F30223034AD35CD8400E
:102B500008BD00BF00100240E84B000808B5FFF7B1
:102B6000E7FF044B5B68C3F3C223034AD35CD8403E
:102B700008BD00BF00100240E84B00080F230360AF
:102B80000B4B5A6802F0030242605A6802F0F002EE
:102B900082605A6802F4E062C2605B68DB0803F49A
:102BA000E0630361034B1B6803F007030B6070478E
:102BB000001002400020024070B582B00446036855
:102BC00013F0010F36D03F4BDB6913F0805F49D122
:102BD0003C4BDA6942F08052DA61DB6903F08053E2
:102BE0000193019B0125384B1B6813F4807F3BD078
:102BF000344B1B6A13F4407313D0626802F44072C2
:102C00009A420ED02F4A136A23F440702F490126AE
:102C1000C1F840640026C1F84064106213F0010F4F
:102C200036D1284A136A23F4407361680B43136258
:102C3000002D3ED1236813F0020F06D0214A5368BD
:102C400023F44043A1680B435360236813F0100F33
:102C500034D01C4A536823F48003E1680B4353606B
:102C600000202CE00025BEE7174A136843F4807368
:102C70001360FEF7CBFE0646134B1B6813F4807FF0
:102C8000B6D1FEF7C3FE801B6428F5D9032016E0F9
:102C9000FEF7BCFE06460B4B1B6A13F0020FC0D1B9
:102CA000FEF7B4FE801B41F288339842F3D903202B
:102CB00005E0D36923F08053D361BBE7002002B065
:102CC00070BD00BF00100240007000400000424292
:102CD00008B502284ED0102803D0012828D00020A3
:102CE00008BD2B4B5A68186810F08070F8D0C2F3FA
:102CF00083432849C85C12F4803F15D0244B5B689D
:102D0000C3F34043244AD25C244BB3FBF2F303FBEE
:102D100000F01F4B5B6813F4800FE1D14000204BA3
:102D2000A3FB00304008DBE71E4B03FB00F0F0E79D
:102D3000174B1B6A40F202321A40B2F5817F24D051
:102D400003F44073B3F5007F04D0B3F5407F09D09E
:102D50000020C5E70E4A526A12F0020FF5D049F67C
:102D60004040BDE70A4B186810F40030B8D04FF26D
:102D70002440B5E7FFF7F2FE054B5B68C3F38133F0
:102D800001335B00B0FBF3F0AAE74FF40040A7E784
:102D900000100240044C0008144C000800127A0095
:102DA000ABAAAAAA00093D00002856D010B50446D7
:102DB000436A33B94368B3F5827F05D00023C3610A
:102DC00002E00023036143610023A36294F85130C1
:102DD000002B3CD0022384F851302268136823F082
:102DE00040031360636803F48273A26802F4044230
:102DF0001343E26802F400621343226902F0020204
:102E00001343626902F001021343A26902F40072E3
:102E10001343E26902F038021343226A02F080028F
:102E20001343A26A02F40052216813430B60638BC0
:102E3000226803F0040353602268D36923F400631B
:102E4000D36100206065012384F8513010BD84F8FF
:102E500050302046FEF7CCFABCE701207047000056
:102E600070B4036A026A22F0010202624668826953
:102E700022F073020C6844EA020523F002028B6818
:102E800013430D4CA04209D00B4CA0420DD046601C
:102E900085614A684263036270BC704723F008038F
:102EA000CA68134323F00403EEE726F440764A6928
:102EB00032438E691643EAE7002C014030B4036ABE
:102EC000026A22F4807202624568C26922F07302CB
:102ED0000C68224323F400738C6843EA04230F4CEC
:102EE000A04209D00D4CA0420ED04560C2614A6894
:102EF000C263036230BC704723F40063CC6843EACA
:102F0000042323F48063EDE725F440554C6945EA3A
:102F100004158C6945EA0415E7E700BF002C014061
:102F200030B4036A026A22F4805202624468C269C1
:102F300022F4E6420D6842EA052223F400538D682C
:102F400043EA0533074DA84206D04460C2614A688F
:102F50000264036230BC704724F480444D6944EA43
:102F60008514F2E7002C01407047000090F83D30D6
:102F7000DBB2012B27D1022380F83D300268D368F1
:102F800043F00103D3600368114A934210D0B3F1B8
:102F9000804F0DD0A2F59432934209D002F58062A1
:102FA000934205D01A6842F001021A60002070476F
:102FB0009A6802F00702062A07D01A6842F0010256
:102FC0001A6000207047012070470020704700BF42
:102FD000002C0140704770477047704770B5044639
:102FE0000368DE681D6915F0020F10D016F0020F9D
:102FF0000DD06FF002021A610123037703689B6909
:1030000013F0030F5ED0FFF7E6FF0023237715F0E0
:10301000040F12D016F0040F0FD023686FF00402D3
:103020001A610223237723689B6913F4407F4FD0F2
:103030002046FFF7D0FF0023237715F0080F12D0AA
:1030400016F0080F0FD023686FF008021A610423EE
:1030500023772368DB6913F0030F40D02046FFF786
:10306000BAFF0023237715F0100F12D016F0100FBF
:103070000FD023686FF010021A61082323772368AA
:10308000DB6913F4407F31D02046FFF7A4FF002313
:10309000237715F0010F02D016F0010F2DD115F096
:1030A000800F02D016F0800F2FD115F0400F02D004
:1030B00016F0400F31D115F0200F02D016F0200F7E
:1030C00033D170BDFFF786FF2046FFF785FF9CE7F1
:1030D0002046FFF77FFF2046FFF77EFFABE7204645
:1030E000FFF778FF2046FFF777FFBAE72046FFF7A4
:1030F00071FF2046FFF770FFC9E723686FF00102F8
:103100001A612046FEF7ACF8C9E723686FF0800229
:103110001A61204600F001FAC7E723686FF0400209
:103120001A612046FFF759FFC5E723686FF02002B8
:103130001A61204600F0F0F9C3E7000003681F4A57
:1031400090420AD0B0F1804F07D0A2F5943290425D
:1031500003D002F58062904203D123F070034A68E5
:103160001343164A90420AD0B0F1804F07D0A2F51F
:103170009432904203D002F58062904203D123F44E
:103180004073CA68134323F080034A691343036002
:103190008B68C3620B688362084B98420AD0012394
:1031A0004361036913F0010F03D0036923F00103A6
:1031B000036170470B690363F1E700BF002C014016
:1031C00040B310B5044690F83D30F3B1022384F8C3
:1031D0003D30214651F8040BFFF7B0FF012384F87E
:1031E000463084F83E3084F83F3084F8403084F82C
:1031F000413084F8423084F8433084F8443084F815
:10320000453084F83D30002010BD80F83C30FFF799
:10321000ABFEDBE70120704740B310B5044690F8E1
:103220003D30F3B1022384F83D30214651F8040BC0
:10323000FFF784FF012384F8463084F83E3084F899
:103240003F3084F8403084F8413084F8423084F8CC
:10325000433084F8443084F8453084F83D30002011
:1032600010BD80F83C30FEF791F9DBE70120704794
:1032700030B4036A026A22F0100202624468826972
:1032800022F4E6420D6842EA052223F020038D680D
:1032900043EA05130E4DA84209D00D4DA8420ED0A9
:1032A000446082614A688263036230BC704723F0E5
:1032B0008003CD6843EA051323F04003EDE724F4CF
:1032C00040644D6944EA85048D6944EA8504E7E772
:1032D000002C014038B590F83C30012B66D00446F4
:1032E0000D46012380F83C300C2A5AD8DFE802F062
:1032F000075959591B5959593059595944000068AF
:10330000FFF7AEFD2268936943F0080393612268DA
:10331000936923F0040393612268936929690B433D
:10332000936100203EE00068FFF7A2FF22689369E6
:1033300043F4006393612268936923F4806393618B
:1033400022689369296943EA01239361002029E0F7
:103350000068FFF7B3FD2268D36943F00803D36127
:103360002268D36923F00403D3612268D3692969F1
:103370000B43D361002015E00068FFF7D1FD226800
:10338000D36943F40063D3612268D36923F4806373
:10339000D3612268D369296943EA0123D3610020FC
:1033A00000E00120002384F83C3038BD0220FCE717
:1033B00001F01F01012303FA01FC036A23EA0C0355
:1033C0000362036A02FA01F10B43036270470000D3
:1033D00010B50446084651BB94F83E30DBB2013BC1
:1033E00018BF0123002B5BD1002839D1022384F8B8
:1033F0003E30012201462068FFF7DAFF23682A4A9F
:1034000093423DD02368284A93423ED0B3F1804F87
:103410003BD0A2F59432934237D002F580629342BA
:1034200033D01A6842F001021A60002039E0042902
:1034300008D008290DD094F84130DBB2013B18BF09
:103440000123CFE794F83F30DBB2013B18BF0123E3
:10345000C8E794F84030DBB2013B18BF0123C1E755
:10346000042805D0082807D0022384F84130C0E79B
:10347000022384F83F30BCE7022384F84030B8E7E9
:103480005A6C42F400425A64BCE79A6802F00702A0
:10349000062A07D01A6842F001021A60002000E0F4
:1034A000012010BD0020FCE7002C014090F83C30CA
:1034B000012B2CD010B4012380F83C30022380F87B
:1034C0003D3003685A689C6822F0700C0A6842EA32
:1034D0000C025A6003680F4A93420AD0B3F1804F3E
:1034E00007D0A2F59432934203D002F58062934252
:1034F00004D124F080044A6814439C60012380F8BE
:103500003D30002380F83C30184610BC7047022044
:10351000704700BF002C01407047704710B504464B
:103520000268136923F44053C1680B431361836835
:103530000269134342691A430168CB6823F4B0530C
:1035400023F00C031343CB600268536923F44073E8
:1035500081690B4353610268134B9A4220D0FFF7F5
:10356000EDFA024602EB820202EB820263689B00E4
:10357000B2FBF3F20D48A0FB02314909642303FBBF
:1035800011231B013233A0FB03235B0903F0F0027C
:1035900002EB011203F00F03216813448B6010BD8E
:1035A000FFF7DCFA0246DDE7003801401F85EB51EA
:1035B00060B310B5044690F8413013B3242384F867
:1035C00041302268D36823F40053D3602046FFF7CC
:1035D000A5FF2268136923F490431361226853699D
:1035E00023F02A0353612268D36843F40053D36065
:1035F00000206064202384F8413084F84230606306
:1036000010BD80F84030FEF781F9D7E70120704700
:10361000842801D0033070470020704708B500F0BF
:10362000E3FC002008BD2DE9F04387B004460F46B7
:103630004569BDB18669AEB1D0F80480D0F800907C
:10364000B0F90800FFF7E4FF0296019500903B46B1
:1036500022694946404600F057FC0590059807B09E
:10366000BDE8F08365682668D4F81080B4F90800D6
:10367000FFF7CEFF05AB019300903B461FFA88F29F
:103680003146284600F07BFC0128E7D00020E6E721
:1036900008B500B9012000F0F1FD002008BD00F1DF
:1036A000080343604FF0FF328260C3600361002370
:1036B0000360704700230361704743684B609A685A
:1036C0008A60516099600861036801330360704744
:1036D00030B40D68B5F1FF3F11D000F108031C466E
:1036E0005B681A68AA42FAD963684B6099608C607B
:1036F0006160086103680133036030BC704704698E
:10370000F2E70369416882688A60416851605A68DB
:10371000824206D0002202611A68013A1A601868D3
:10372000704782685A60F5E782B0002301930D4B21
:103730001B68B3F1FF3F08D04FF0500383F31188AB
:10374000BFF36F8FBFF34F8FFEE74FF0500383F34C
:103750001188BFF36F8FBFF34F8F019B002BFCD0FD
:1037600002B070470C00002006480068006880F333
:10377000088862B661B6BFF34F8FBFF36F8F00DF6B
:1037800000BF000008ED00E04FF0807340F8043CFB
:1037900021F0010140F8081C034B40F80C3C40F8B4
:1037A000202C4038704700BF293700080000000077
:1037B000074B19680868B0E8F00F80F30988BFF379
:1037C0006F8F4FF0000080F311884EF00D0E7047A0
:1037D000BC1500204FF0500383F31188BFF36F8FA7
:1037E000BFF34F8F0B4A136801331360012B00D0D6
:1037F00070474FF0E023D3F8043D13F0FF0FF7D0EC
:103800004FF0500383F31188BFF36F8FBFF34F8FD7
:10381000FEE700BF0C000020094B1B6843B94FF0C6
:10382000500383F31188BFF36F8FBFF34F8FFEE711
:10383000013B034A13600BB983F31188704700BF43
:103840000C0000200000000000000000000000004C
:10385000EFF30980BFF36F8F0D4B1A6820E9F00F6B
:1038600010602DE908404FF0500080F3118800F0FF
:103870002BFD4FF0000080F31188BDE80840196867
:103880000868B0E8F00F80F30988BFF36F8F7047C6
:10389000BC15002008B54FF0500383F31188BFF327
:1038A0006F8FBFF34F8F00F0E1FB28B14FF0E023A3
:1038B0004FF08052C3F8042D002383F3118808BD14
:1038C0004FF0E022002313619361054B1B6805490B
:1038D000A1FB03139B09013B53610723136170474D
:1038E00000000020D34D621010B582B02A4B1A7828
:1038F000D2B20192FF221A701B78DBB28DF803302E
:103900009DF8033003F05003244A1370244B072220
:103910001A6009E0224A1368013B13609DF80330E6
:103920005B00DBB28DF803309DF8033013F0800F9D
:10393000F0D11B4B1B68032B08D04FF0500383F3CF
:103940001188BFF36F8FBFF34F8FFEE71B02144A3E
:10395000136003F4E0631360019BDBB20E4A137043
:103960004FF0E023D3F8202D42F47002C3F8202D4D
:10397000D3F8202D42F07042C3F8202DFFF7A0FFAE
:103980000024084B1C60FFF7EFFE00F09DFCFFF7E2
:10399000CBFE204602B010BD00E400E094090020F8
:1039A000980900200C000020124A12F0070F1ED0C8
:1039B000D11D21F00701C1F5406313440A460E48AA
:1039C0000260002141601344083B23F007030B48C9
:1039D000036059601960991A51601360084B1960AF
:1039E000084B1960084B4FF000421A6070474FF4C3
:1039F0004063E4E7A0090020B41500209C090020E2
:103A0000A8150020A4150020A0150020154B1A466B
:103A10001B688342FBD3516802EB010C844509D03B
:103A2000416800EB010C634509D00360904218D057
:103A3000106070474068014451601046F0E710B4D0
:103A4000094C2468A3420AD05B681944416013689A
:103A50001B680360904200D0106010BC7047046087
:103A6000F8E77047B41500209C09002070B50546A2
:103A700000F0F4FA364B1B68A3B1364B1B681D42AD
:103A80004ED135B1083515F0070F02D025F00705E6
:103A90000835002D46D0304B1B68AB4251D32F4A1E
:103AA000146804E0FFF780FFE7E722461C466368DE
:103AB000AB4202D22368002BF7D1254B1B68A342EF
:103AC00041D0166808362368136063685B1B102BAF
:103AD00010D9601910F0070F08D04FF0500383F38E
:103AE0001188BFF36F8FBFF34F8FFEE743606560B0
:103AF000FFF78CFF626818490B689B1A0B60184926
:103B000009688B4201D216490B60124B1B681343A4
:103B1000636000232360134A13680133136002E0DB
:103B2000002600E0002600F02DFB16F0070F0CD059
:103B30004FF0500383F31188BFF36F8FBFF34F8FA4
:103B4000FEE70026EFE70026EDE7304670BD00BF38
:103B50009C090020A0150020A4150020B415002009
:103B6000A8150020AC150020002834D038B5044634
:103B7000A0F1080550F8043C174A1268134208D116
:103B80004FF0500383F31188BFF36F8FBFF34F8F54
:103B9000FEE750F8081C41B14FF0500383F3118841
:103BA000BFF36F8FBFF34F8FFEE723EA020340F8A6
:103BB000043C00F053FA54F8041C084A13680B4400
:103BC00013602846FFF722FF054A1368013313608C
:103BD00000F0D8FA38BD7047A0150020A4150020C9
:103BE000B0150020084B1B681B6823B9074B4FF02A
:103BF000FF321A607047044B1B68DB68DB685A6849
:103C0000024B1A60704700BFC015002094160020B8
:103C10002DE9F04707469846089DDDF824900A9C58
:103C2000266B02F18042013A06EB820626F0070677
:103C300000293AD08E464FF0000CBCF10F0F0BD884
:103C40001EF80C2004EB0C0383F834201EF80C3013
:103C500013B10CF1010CF0E7002384F84330062D7A
:103C600000D90625E56265644FF0000AC4F848A053
:103C7000201DFFF71FFD04F11800FFF71BFD246155
:103C8000C5F10705A5616462C4F84CA084F850A092
:103C9000424639463046FFF777FD2060B9F1000F04
:103CA00001D0C9F80040BDE8F087002384F8343023
:103CB000D5E7000038B5002407E004EB8402930048
:103CC0000E481844FFF7EBFC0134062CF5D90C4DD7
:103CD0002846FFF7E4FC0B4C2046FFF7E0FC0A48BF
:103CE000FFF7DDFC0948FFF7DAFC0948FFF7D7FCCE
:103CF000084B1D60084B1C6038BD00BFC815002074
:103D0000681600207C160020A0160020CC1600208B
:103D1000B8160020C0150020C415002010B50446B8
:103D2000FFF758FD214A136801331360204B1B68CD
:103D30005BB1204B1B686BB91D4B1B68DA6AE36AE9
:103D40009A4207D81A4B1C6004E0194B1C60136898
:103D5000012B28D0184A136801331360E06A01234D
:103D60008340164A11680B43136000EB8000211D4D
:103D7000134B03EB8000FFF7A0FCFFF74DFD0D4B4D
:103D80001B687BB10A4B1B68DA6AE36A9A4209D264
:103D90004FF0E0234FF08052C3F8042DBFF34F8F54
:103DA000BFF36F8F10BDFFF785FFD3E754160020D8
:103DB000BC150020B41600206016002064160020F8
:103DC000C815002010B5044690F8513063B1012B9E
:103DD00011D0022B0ED04FF0500383F31188BFF3A4
:103DE0006F8FBFF34F8FFEE7006BFFF7BDFE2046DE
:103DF000FFF7BAFE10BDFFF7B7FEFBE70F4B1B68DE
:103E0000D3B110B5FFF7E6FC0D4BDB68DC68201D75
:103E1000FFF777FC0B4A1368013B1360074A1368EE
:103E2000013B1360FFF7F8FC2046FFF7CBFF034B85
:103E30001B68002BE6D110BD704700BF581600204C
:103E4000CC1600205416002008B5FFF7D7FF074B0B
:103E50001B68012BF9D94FF0E0234FF08052C3F8D3
:103E6000042DBFF34F8FBFF36F8FEEE7C81500200F
:103E700070B504460D461D4B1E681D4B1868043076
:103E8000FFF73FFC50B91A4B1B68DA6A012303FAAB
:103E900002F218490B6823EA02030B60B4F1FF3FFA
:103EA0000DD03444124B1B685C60A64210D9124BF3
:103EB00018680F4B19680431FFF70AFC70BD002D1C
:103EC000EFD00B4B196804310C48FFF7F6FBF5E710
:103ED0000B4B1868064B19680431FFF7F9FB094BC7
:103EE0001B68A342EAD9074B1C60E7E7E0160020F5
:103EF000BC15002064160020C4150020B816002050
:103F0000C01500209416002030B587B00B9C7CB102
:103F10000C9DB5B154250495049D542D1AD04FF035
:103F2000500383F31188BFF36F8FBFF34F8FFEE70A
:103F30004FF0500383F31188BFF36F8FBFF34F8FA0
:103F4000FEE74FF0500383F31188BFF36F8FBFF389
:103F50004F8FFEE7049D0C9D2C63022485F8514091
:103F600000240394029505AC01940A9C0094FFF789
:103F70004FFE0C98FFF7D2FE059807B030BD2DE933
:103F8000F04385B00746884614461E469000FFF76A
:103F90006DFD00B381465420FFF768FD0546B0B1C2
:103FA000C0F83090E5B1002385F8513003930295B5
:103FB0000D9B01930C9B00933346224641463846A5
:103FC000FFF726FE2846FFF7A9FE012005E0484638
:103FD000FFF7CAFDE6E74FF0FF3005B0BDE8F0831C
:103FE0004FF0FF30F9E7000010B588B000240594C9
:103FF000069407AA06A905A8FCF712FE059B0293E2
:10400000069B019300942346079A0E490E48FFF73A
:104010007BFF0E4B186090B14FF0500383F3118873
:10402000BFF36F8FBFF34F8F094B4FF0FF321A6012
:10403000084B01221A60084B1C60FFF755FC08B0C2
:1040400010BD00BF184C0008493E00089016002023
:1040500094160020B4160020E0160020024A1368CF
:1040600001331360704700BF5C160020F8B53A4B6F
:104070001B68002B69D1394B1D6801351D60C5B91E
:10408000374B1B681B6843B14FF0500383F3118813
:10409000BFF36F8FBFF34F8FFEE7314A1168314B8B
:1040A000186810601960304A136801331360FFF715
:1040B00099FD2E4B1B68AB423DD900272C4B1B684A
:1040C000DB6A03EB83039A002A4B9B58012B00D930
:1040D0000127294B1B68002B3CD001273AE0012720
:1040E0001F4B1B681B6843B31D4B1B68DB68DC68F8
:1040F00063689D4226D3261D3046FFF702FBA36A64
:104100001BB104F11800FFF7FCFAE36A01229A40A0
:104110001A49086802430A6003EB83039A00314698
:1041200014481044FFF7C9FAE26A114B1B68DB6AB6
:104130009A42D4D2D4E70027D2E70C4B4FF0FF329B
:104140001A60BBE7094A1360B8E70D4A13680133E8
:10415000136000273846F8BD5C160020E0160020EA
:10416000C0150020C41500209816002094160020C9
:10417000BC150020C8150020E4160020641600209D
:104180009C16002038B5354B1B6843B94FF05003DF
:1041900083F31188BFF36F8FBFF34F8FFEE7FFF7F5
:1041A00019FB2E4B1A68013A1A601B68002B4FD17D
:1041B0002B4B1B680BB900244BE00024294B1B68D8
:1041C0001BB3284BDB68DC6804F11800FFF799FA91
:1041D000251D2846FFF795FAE06A01238340224A0D
:1041E00011680B43136000EB800029461F4B03EB63
:1041F0008000FFF762FAE26A1D4B1B68DB6A9A4295
:10420000DCD31C4B01221A60D8E70CB1FFF7EAFCA3
:10421000194B1C6884B9174B1C68D4B14FF0E023CC
:104220004FF08052C3F8042DBFF34F8FBFF36F8F51
:1042300001240EE0013C07D0FFF718FF0028F9D059
:104240000C4B01221A60F5E70B4B00221A60E2E7E3
:104250000024FFF7E1FA204638BD00BF5C160020BD
:1042600054160020A016002064160020C815002057
:10427000BC150020E41600209C16002010B5A8B143
:104280000446104B1B6843B14FF0500383F3118871
:10429000BFF36F8FBFF34F8FFEE7FFF7DFFE002105
:1042A0002046FFF7E5FDFFF76DFF48B94FF0E0232B
:1042B0004FF08052C3F8042DBFF34F8FBFF36F8FC1
:1042C00010BD00BF5C160020204B1B681BB1204BAB
:1042D00001221A6070471E4B00221A601D4B1B689A
:1042E000B3FA83F3DBB2C3F11F0303EB83018A004C
:1042F00019498A5842B94FF0500383F31188BFF32C
:104300006F8FBFF34F8FFEE7134903EB83008200EB
:104310000A4450684068506003EB830C4FEA8C02FB
:1043200008321144884209D003EB83039A000A4BF8
:1043300013445B68DA68094B1A607047406862464C
:104340009100054A0A445060EEE700BF5C16002069
:10435000E416002064160020C8150020BC150020BB
:1043600038B500224FF480714148FEF7DCF8FDF7C4
:104370004DFB404B5C6A4FF47A7303FB0044FDF73E
:1043800045FB3C4B5B6A4FF47A7202FB00331B1B0C
:10439000012BF4D901224FF480713548FEF7C3F8A0
:1043A000FDF734FB334B5C6A4FF47A7303FB004434
:1043B000FDF72CFB2F4B5B6A4FF47A7202FB003344
:1043C0001B1B0E2BF4D900224FF480712848FEF7F6
:1043D000AAF8FDF71BFB274B5C6A4FF47A7303FBCB
:1043E000004404F5EA4430344FF400612048FEF7FD
:1043F00093F858B9FDF70AFB1E4B5B6A4FF47A72CB
:1044000002FB00339C42EFD2002038BDFDF7FEFADC
:10441000184B5D6A4FF47A7303FB005505F5EA44C7
:1044200030344FF400611248FEF776F801280BD1C2
:10443000FDF7ECFA0F4B5B6A4FF47A7202FB003324
:104440009C42EED20020E0E7FDF7E0FA094B5B6A00
:104450004FF47A7202FB0030401B074DA5FB003081
:10446000C0F34F10B0F5C87FCFD90020CDE700BF13
:1044700000080140002C014009CB3D8D0A4B18601B
:104480000A4AD2F8FC3043F08073C2F8FC30084B83
:10449000002159601A6842F001021A60054A116051
:1044A0005A68054B1A6070471000002000ED00E0CC
:1044B000001000E0E8160020EC160020064B5B68B8
:1044C000064A12689A4203D905490A6801320A600D
:1044D000024A1360704700BF001000E0EC16002095
:1044E000E816002008B5FFF7E9FF054B1968054BF2
:1044F0005868054B1A680023FCF744F908BD00BF53
:10450000E8160020001000E01000002008B5FFF7BA
:10451000E9FFFBF7E5FE0249FBF7DCFF08BD00BF42
:1045200000007A44014B00229A7170471400002069
:1045300010B5224B99881868FDF7EEFF90B11F4B1C
:104540001B7B13B1013B1D4A13731C4B1B7B43B9EF
:104550001A4B9B79013BDBB2012B2BD9174B002265
:104560009A7110BD154B99881868FDF7D5FF002882
:10457000F7D1124B1B7B042B02D801330F4A137364
:104580000E4B1B7B052BECD10C4B9B7933B90B4CA1
:104590000123A371FDF73AFAA060E2E7FDF736FACE
:1045A000064B9B68C01AB0F5FA7FDAD9034B02229A
:1045B0009A71D6E7014B03229A71D2E714000020CA
:1045C000434200280ADD632801DD6FF062035B428D
:1045D0000B4A126800211164D363704728B9084B55
:1045E0001B6800221A64DA63704710F1630F00DA67
:1045F0006323034A126813640023D363704700BF28
:10460000B8080020434200280CDD632801DD6FF06C
:1046100062035B420E4A1268002191630D4A1268E0
:104620001364704738B90A4B1A6800239363094A28
:1046300012681364704710F1630F00DA6323044AB1
:1046400012689363034B1B6800221A64704700BF13
:104650007008002000090020434200280ADD63287A
:1046600001DD6FF062035B420B4A12685363002363
:104670009363704728B9084B1B6800225A639A63FA
:10468000704710F1630F00DA6323034A12680021B8
:1046900051639363704700BFB8080020434200286D
:1046A0000ADD632801DD6FF062035B420B4A12688A
:1046B000936300235363704728B9084B1B6800229B
:1046C0009A635A63704710F1630F00DA6323034A59
:1046D0001268002191635363704700BF00090020F6
:1046E00070B50D461446052B1CDC13F1050F27DAB7
:1046F0001A4E00224FF400513046FDF714FF0122FC
:104700004FF400413046FDF70EFF2846FFF758FFF3
:104710002846FFF777FF2046FFF79EFF2046FFF76A
:10472000BDFF70BD0D4E01224FF400513046FDF724
:10473000FAFE00224FF400413046FDF7F4FEE4E7B4
:10474000064E00224FF400413046FDF7ECFE0022F9
:104750004FF400513046FDF7E6FED6E70010014069
:1047600010B50446FFF72CFF2046FFF74BFF20460D
:10477000FFF772FF2046FFF791FF10BD38B50E4CD2
:104780000123237060602181E260002565816561FD
:104790002577FDF73BF92061FDF738F9074B5B6A98
:1047A0004FF47A7202FB0033A3612A464FF40041B2
:1047B0000348FDF7B8FE38BDF0160020002C01407C
:1047C0000008014070B5384B1C780CB9204670BD0C
:1047D0001D465B686A8903EB82035E88EB6803FB16
:1047E00006F6FDF713F92B69C01AB0421BD36B898B
:1047F00001339BB26B812A8993423ED22A4A526886
:1048000002EB830112F82330902B3FD0FDF7FEF826
:10481000254D2861FDF7FAF8244B5B6A4FF47A7254
:1048200002FB0033AB61204B5B69002BCED0FDF760
:10483000EDF81E4B5B6A4FF47A7202FB00301A4AA5
:104840009369C01A52698242C0D8B0FBF2F000FBF3
:104850000233154A936110F0010F03D0137F83F0E8
:1048600001031377104B1A7F003A18BF01224FF44F
:1048700000410F48FDF757FEA8E700242C702246A0
:104880004FF400410A48FDF74EFE9FE74A78094B76
:1048900033F812202AB1084BB3FBF2F3024A5361FA
:1048A000B4E70023FAE700BFF0160020002C014017
:1048B00000080140E853000820A10700002303601E
:1048C00043608360C360036170470000F8B504462D
:1048D0000D46016081682846FBF740FC0646A06053
:1048E0001E49FBF7FFFE38B31C4BA36061682846E6
:1048F000FBF732FC0646E06019492846FBF736FD17
:1049000007461849A068FBF731FD01463846FBF71A
:1049100025FC074614493046FBF728FD014638467A
:10492000FBF71CFC064620611049FBF7DBFE60B17B
:104930000E4B23616560F8BD0D493046FBF7B4FEB0
:104940000028D3D00A4BA360D0E70A493046FBF7D2
:10495000ABFE0028EED0074B2361EBE700002041BF
:10496000000040416F12833A0AD7233C0000704296
:10497000000020C1000070C2002303608360036157
:104980004360704770B50D4E0D4D761BB61006D0C6
:10499000002455F8043B01349847A642F9D1094E4A
:1049A000094D00F0D5F8761BB61006D0002455F856
:1049B000043B01349847A642F9D170BDF454000875
:1049C000F4540008FC540008F4540008830730B580
:1049D00048D0541E002A3FD00346CAB201E0013C31
:1049E0003AD303F8012B9D07F9D1032C2DD9CDB271
:1049F00045EA05250F2C45EA054536D9A4F11002F4
:104A000022F00F0C03F1200EE6444FEA121C03F1D2
:104A1000100242E9045542E9025510327245F8D1BC
:104A20000CF1010214F00C0F03EB021204F00F0C56
:104A300013D0ACF1040323F003030433134442F80E
:104A4000045B9342FBD10CF003042CB1CAB21C44AA
:104A500003F8012B9C42FBD130BD64461346002C69
:104A6000F4D1F9E703461446BFE71A46A446E0E747
:104A7000024B13B1024800F005B870470000000077
:104A8000914A0008002301461A46184600F01AB859
:104A900038B5084B084D5B1B9C1007D0043B1D44E8
:104AA000013C55F804399847002CF9D1BDE838404D
:104AB00000F054B800550008FC540008704700BFCF
:104AC000704700BF2DE9F047DFF87CA00646DAF812
:104AD000000098460F469146FFF7F0FF1B4B1B68FE
:104AE000D3F8484124B365681F2D26DC5EB96B1CE2
:104AF0000235DAF80000636044F82570FFF7E0FF44
:104B00000020BDE8F087012304EB8501C1F88890FF
:104B1000D4F88821AB401A43022EC4F88821C1F88A
:104B20000881E4D1D4F88C211343C4F88C31DEE73A
:104B300003F5A674C3F84841D5E7DAF80000FFF79B
:104B4000BFFF4FF0FF30DCE750040020E8540008BE
:104B5000F8B500BFF8BC08BC9E467047F8B500BF6A
:084B6000F8BC08BC9E4670473A
:104B6800A04B0008CD0D0008010000000000000067
:104B7800800000000000000000000000A84B0008B2
:104B8800F90F00080000000000000000800000008D
:104B9800000000000000000073656E736F72000073
:104BA800636861737369735F7461736B00000000FD
:104BB80000FCFEFD0000FFFB02000000010000FAFF
:104BC80004000000000000000300000005000600CB
:104BD80000000000000000000102030406070809A5
:104BE8000000000001020304020304050607080987
:104BF8000A0B0C0D0E0F1010010200000203040531
:104C0800060708090A0B0C0D0E0F10100102000010
:104C180049444C450000F2019059A0148059D8002D
:104C2800905B1800805BD800905D1800805DD8000C
:104C3800905918008059D800906018008060B80218
:104C4800905D1800805DD800905B1800805BB00113
:104C5800906030008060B001905B3000805BB001F4
:104C6800905930008059D800905618008056D800C6
:104C7800905D1800805DB802905918008059D800DE
:104C88009058180080586003905860008058B00110
:104C9800905630008056B001905830008058B001CE
:104CA800905930008059D800905B1800805BD8007C
:104CB800905418008054B001905930008059B001C8
:104CC800905B3000805BD800905D1800805DD80054
:104CD800905E1800805EB001905E3000805ED80063
:104CE800905D1800805DD800905B1800805BD8004C
:104CF800905918008059D800905B1800805B6003B9
:104D0800905960008059D800905B1800805BD800EB
:104D1800905D1800805DD800905918008059D8001F
:104D2800906018008060B802905D1800805DD8001F
:104D3800905B1800805BB001906030008060B0012B
:104D4800905B3000805BB001905930008059D800EA
:104D5800905618008056D800905618008056B0011A
:104D6800905830008058D800905918008059D800C1
:104D78009054180080546003905460008054B0012F
:104D8800905630008056B001905830008058B001DD
:104D9800905930008059D800905B1800805BD8008B
:104DA800905418008054B001905930008059B001D7
:104DB800905B3000805BD800905D1800805DD80063
:104DC800905E1800805EB001905E3000805ED80072
:104DD800905D1800805DD800905B1800805BD8005B
:104DE800905918008059D8009059180080595007D8
:104DF800905D1002805DD800905E1800805ED8003B
:104E0800906018008060B001906030008060B00150
:104E1800906030008060B001906030008060B00128
:104E2800906030008060D800906218008062D800DE
:104E3800906018008060D800905E1800805ED800EE
:104E4800905D1800805DB001905D3000805DB0011C
:104E5800905D3000805DB001905D3000805DB001F4
:104E6800905D3000805DD800905E1800805ED800AC
:104E7800905D1800805DD800905B1800805BD800BA
:104E8800905918008059B001905930008059B001EC
:104E9800905930008059D800905818008058D80090
:104EA800905618008056B001905830008058B001D4
:104EB800905830008058D800905918008059D80070
:104EC800905B1800805BB001905B3000805BD8007D
:104ED800905D1800805DD800905B1800805BD8005A
:104EE800905D1800805DD800905B1800805B6003BF
:104EF800905D6000805DD800905E1800805ED800EC
:104F0800906018008060B001906030008060B0014F
:104F1800906030008060B001906030008060B00127
:104F2800906030008060D800906218008062D800DD
:104F3800906018008060D800905E1800805ED800ED
:104F4800905D1800805DB001905D3000805DB0011B
:104F5800905D3000805DB001905D3000805DD800CC
:104F6800905E1800805ED800905D1800805DD800C3
:104F7800905B1800805BD800905918008059D800C1
:104F8800905818008058D800905618008056B001E4
:104F9800905630008056D800905818008058D80095
:104FA800905918008059D800905B1800805BD80091
:104FB800905418008054B001905930008059B001C5
:104FC800905B3000805BD800905D1800805DD80051
:104FD800905B1800805B8802905B4800805BD8007B
:104FE800905B1800805BD800905918008059D80051
:104FF80090591800805960039059A00B8059D80027
:10500800905B1800805BD800905D1800805DD80028
:10501800905918008059D800906018008060B80234
:10502800905D1800805DD800905B1800805BB0012F
:10503800906030008060B001905B3000805BB00110
:10504800905930008059D800905618008056D800E2
:10505800905D1800805DB802905918008059D800FA
:105068009058180080586003905960008059D80003
:10507800905818008058D800905618008056B001F3
:10508800905830008058B001905930008059D800AD
:10509800905B1800805BD800905418008054B001D1
:1050A800905930008059B001905B3000805BD80087
:1050B800905D1800805DD800905E1800805EB00199
:1050C800905E3000805ED800905D1800805DD8004A
:1050D800905B1800805BD800905918008059D80060
:1050E800905B1800805B6003905960008059D8007D
:1050F800905B1800805BD800905D1800805DD80038
:10510800905918008059D800906018008060B80243
:10511800905D1800805DD800905B1800805BB0013E
:10512800906030008060B001905B3000805BD800F8
:10513800905B1800805BD800905918008059D800FF
:10514800905618008056D800905618008056B00126
:10515800905830008058D800905918008059D800CD
:105168009054180080546003905460008054B0013B
:10517800905630008056B001905830008058B001E9
:10518800905930008059D800905B1800805BD80097
:10519800905418008054B001905930008059B001E3
:1051A800905B3000805BD800905D1800805DD8006F
:1051B800905E1800805EB001905E3000805ED8007E
:1051C800905D1800805DD800905B1800805BD80067
:1051D800905918008059D8009059180080596003D8
:1051E8009069A00B8069D800906A1800806AD8007E
:1051F800906C1800806CB001906C3000806CB0012D
:10520800906C3000806CB001906C3000806CB00104
:10521800906C3000806CD800906E1800806ED800BA
:10522800906C1800806CD800906A1800806AD800CA
:10523800906918008069B001906930008069B001F8
:10524800906930008069B001906930008069B001D0
:10525800906930008069D800906A1800806AD80088
:10526800906918008069D800906718008067D80096
:10527800906518008065B001906530008065B001C8
:10528800906530008065D800906418008064D8006C
:10529800906218008062B001906430008064B001B0
:1052A800906430008064D800906518008065D8004C
:1052B800906718008067B001906730008067D80059
:1052C800906918008069D800906718008067D80036
:1052D800906918008069D80090671800806760039B
:1052E800906960008069D800906A1800806AD800C8
:1052F800906C1800806CB001906C3000806CB0012C
:10530800906C3000806CB001906C3000806CB00103
:10531800906C3000806CD800906E1800806ED800B9
:10532800906C1800806CD800906A1800806AD800C9
:10533800906918008069B001906930008069B001F7
:10534800906930008069B001906930008069D800A8
:10535800906A1800806AD800906918008069D8009F
:10536800906718008067D800906518008065D8009D
:10537800906418008064D8009062F8018062D800B8
:10538800906418008064D800906518008065D80083
:10539800906718008067D800906018008060B0019E
:1053A800906530008065B001906730008067D80054
:1053B800906918008069D8009067180080676003BA
:1053C800906760008067D800906518008065D800F5
:1053D8009065180080591005905990008065600309
:1053E8000800090009000A000A000B000C000C0064
:1053F8000D000E000F000F00100011001200130026
:1054080015001600170018001A001B001D001F00C9
:10541800210023002500270029002C002E00310040
:10542800340037003A003E00410045004A004E0073
:10543800520057005C00620068006E0074007B0038
:1054480082008A0092009B00A400AE00B800C3004E
:10545800CF00DC00E900F70005011501250137013F
:1054680049015D01720188019F01B801D201ED0176
:105478000B022A024B026E029302BA02E4021003E4
:105488003E037003A403DB03170455049704DD04EB
:1054980027057505C80520067D06E0064907B707F4
:1054A8002D08A9082D09B9094D0AEA0A900B400CE4
:1054B800FA0CC00D910E6F0F5A1053115A12721335
:1054C8009A14D41520178018F519801B221DDE1E8A
:1054D800B420A622B524E4263429A82B402E003176
:0454E8002800002078
:0854EC00C8B2FF7F01000000BF
:0854F400714A000835010008AF
:0454FC001101000892
:1055000000127A000100000010000000AAAAAAAA56
:1055100048000000001001400040000000000000B2
:105520000000000000000000000000001403002044
:105530007C030020E40300200000000000000000C5
:10554000000000000000000000000000000000005B
:10555000000000000000000000000000000000004B
:10556000000000000000000000000000000000003B
:10557000000000000000000000000000000000002B
:10558000000000000000000000000000000000001B
:10559000000000000000000000000000000000000B
:1055A00000000000000000000000000000000000FB
:1055B00000000000000000000000000000000000EB
:1055C00000000000000000000000000000000000DB
:1055D00001000000000000000E33CDAB34126DE678
:1055E000ECDE05000B0000000000000000000000E1
:1055F00000000000000000000000000000000000AB
:10560000000000000000000000000000000000009A
:10561000000000000000000000000000000000008A
:10562000000000000000000000000000000000007A
:04595000101700200C
:040000050800198551
:00000001FF
