:020000040800F2
:10000000005000203D170008E1120008E31200082C
:10001000E5120008E7120008E912000800000000DD
:100020000000000000000000000000007135000822
:10003000EB120008000000001136000855360008D9
:100040008517000885170008851700088517000820
:100050008517000885170008851700088517000810
:10006000851700088517000885170008ED1200089D
:1000700085170008851700088517000885170008F0
:1000800085170008851700088517000885170008E0
:1000900085170008851700088517000885170008D0
:1000A00085170008FD12000885170008851700084D
:1000B00085170008851700088517000885170008B0
:1000C00085170008851700088517000885170008A0
:1000D0008517000885170008851700088517000890
:1000E0008517000885170008851700080000000024
:1000F0000000000000000000000000000000000000
:0C01000000000000000000005FF808F1A3
:1001100010B5054C237833B9044B13B10448AFF341
:1001200000800123237010BD94080020000000000F
:100130002856000808B5034B1BB103490348AFF329
:10014000008008BD00000000980800202856000824
:1001500080F0004002E000BF81F0004142001FBF7C
:100160005FEA410392EA030F7FEA226C7FEA236C85
:100170006AD04FEA1262D2EB1363C1BFD21841407A
:1001800048404140B8BF5B42192B88BF704710F010
:10019000004F40F4000020F07F4018BF404211F0B3
:1001A000004F41F4000121F07F4118BF494292EA1B
:1001B000030F3FD0A2F1010241FA03FC10EB0C0047
:1001C000C3F1200301FA03F100F0004302D54942D4
:1001D00060EB4000B0F5000F13D3B0F1807F06D381
:1001E00040084FEA310102F10102FE2A51D2B1F179
:1001F000004F40EBC25008BF20F0010040EA03006E
:100200007047490040EB0000013A28BFB0F5000FED
:10021000EDD2B0FA80FCACF1080CB2EB0C0200FAA3
:100220000CF0AABF00EBC25052421843BCBFD040F2
:100230001843704792F0000F81F4000106BF80F46C
:1002400000000132013BB5E74FEA41037FEA226C2F
:1002500018BF7FEA236C21D092EA030F04D092F0FA
:10026000000F08BF0846704790EA010F1CBF00202E
:10027000704712F07F4F04D1400028BF40F000408B
:10028000704712F100723CBF00F50000704700F0AB
:10029000004343F0FE4040F4000070477FEA2262D2
:1002A00016BF08467FEA23630146420206BF5FEAA3
:1002B000412390EA010F40F4800070474FF00003A3
:1002C00004E000BF10F0004348BF40425FEA000C6A
:1002D00008BF704743F0964301464FF000001CE012
:1002E00050EA010208BF70474FF000030AE000BF68
:1002F00050EA010208BF704711F0004302D54042A6
:1003000061EB41015FEA010C02BF84460146002017
:1003100043F0B64308BFA3F18053A3F50003BCFA32
:100320008CF2083AA3EBC25310DB01FA02FC6344DF
:1003300000FA02FCC2F12002BCF1004F20FA02F2E6
:1003400043EB020008BF20F00100704702F12002D9
:1003500001FA02FCC2F1200250EA4C0021FA02F23A
:1003600043EB020008BF20EADC7070474FF0FF0C3F
:100370001CEAD0521EBF1CEAD15392EA0C0F93EA3A
:100380000C0F6FD01A4480EA010C400218BF5FEADC
:1003900041211ED04FF0006343EA501043EA51114F
:1003A000A0FB01310CF00040B1F5000F3EBF490049
:1003B00041EAD3715B0040EA010062F17F02FD2A4D
:1003C0001DD8B3F1004F40EBC25008BF20F0010030
:1003D000704790F0000F0CF0004C08BF49024CEA47
:1003E000502040EA51207F3AC2BFD2F1FF0340EAD9
:1003F000C250704740F400004FF00003013A5DDC4A
:1004000012F1190FDCBF00F000407047C2F100028A
:10041000410021FA02F1C2F1200200FA02FC5FEA77
:10042000310040F1000053EA4C0308BF20EADC70C1
:10043000704792F0000F00F0004C02BF400010F433
:10044000000F013AF9D040EA0C0093F0000F01F0E0
:10045000004C02BF490011F4000F013BF9D041EA02
:100460000C018FE70CEAD15392EA0C0F18BF93EA04
:100470000C0F0AD030F0004C18BF31F0004CD8D12E
:1004800080EA010000F00040704790F0000F17BFB5
:1004900090F0004F084691F0000F91F0004F14D0FB
:1004A00092EA0C0F01D142020FD193EA0C0F03D153
:1004B0004B0218BF084608D180EA010000F0004056
:1004C00040F0FE4040F40000704740F0FE4040F431
:1004D000400070474FF0FF0C1CEAD0521EBF1CEAD0
:1004E000D15392EA0C0F93EA0C0F69D0A2EB0302EE
:1004F00080EA010C49024FEA402037D04FF0805388
:1005000043EA111143EA10130CF000408B4238BF4C
:100510005B0042F17D024FF4000C8B4224BF5B1A5A
:1005200040EA0C00B3EB510F24BFA3EB510340EAA8
:100530005C00B3EB910F24BFA3EB910340EA9C0056
:10054000B3EBD10F24BFA3EBD10340EADC001B01C6
:1005500018BF5FEA1C1CE0D1FD2A3FF650AF8B426A
:1005600040EBC25008BF20F0010070470CF0004C77
:100570004CEA50207F32C2BFD2F1FF0340EAC250A2
:10058000704740F400004FF00003013A37E792F063
:10059000000F00F0004C02BF400010F4000F013AC1
:1005A000F9D040EA0C0093F0000F01F0004C02BFBC
:1005B000490011F4000F013BF9D041EA0C0195E725
:1005C0000CEAD15392EA0C0F08D142027FF47DAFBE
:1005D00093EA0C0F7FF470AF084676E793EA0C0FAE
:1005E00004D14B023FF44CAF08466EE730F0004CAC
:1005F00018BF31F0004CCAD130F000427FF45CAF3C
:1006000031F000437FF43CAF5FE700BF4FF0FF3CA9
:1006100006E000BF4FF0010C02E000BF4FF0010CFC
:100620004DF804CD4FEA40024FEA41037FEA226CC5
:1006300018BF7FEA236C11D001B052EA530C18BFE7
:1006400090EA010F58BFB2EB030088BFC81738BF4C
:100650006FEAE17018BF40F0010070477FEA226C3A
:1006600002D15FEA402C05D17FEA236CE4D15FEA36
:10067000412CE1D05DF8040B704700BF844608466A
:100680006146FFE70FB5FFF7C9FF002848BF10F12B
:10069000000F0FBD4DF808EDFFF7F4FF0CBF012070
:1006A00000205DF808FB00BF4DF808EDFFF7EAFFFA
:1006B00034BF012000205DF808FB00BF4DF808EDB5
:1006C000FFF7E0FF94BF012000205DF808FB00BFAA
:1006D0004DF808EDFFF7D2FF94BF012000205DF830
:1006E00008FB00BF4DF808EDFFF7C8FF34BF01203D
:1006F00000205DF808FB00BF4FEA4002B2F1FE4F58
:100700000FD34FF09E03B3EB12620DD94FEA0023D3
:1007100043F0004310F0004F23FA02F018BF4042AC
:1007200070474FF00000704712F1610F01D1420293
:1007300005D110F0004008BF6FF0004070474FF047
:100740000000704753B94AB9002908BF00281CBFF0
:100750004FF0FF314FF0FF3000F076B9ADF1080CEB
:100760006DE904CE00F006F8DDF804E0DDE90223CF
:1007700004B070472DE9F047089E0D4604468846B0
:10078000002B4DD18A42944668D9B2FA82F252B116
:1007900001FA02F3C2F1200120FA01F10CFA02FC85
:1007A00041EA030894404FEA1C41B8FBF1F71FFAF5
:1007B0008CFE01FB178807FB0EF0230C43EA08436D
:1007C00098420AD91CEB030307F1FF3580F01E8124
:1007D000984240F21B81023F63441B1AB3FBF1F0C5
:1007E00001FB103300FB0EFEA4B244EA0344A6450D
:1007F0000AD91CEB040400F1FF3380F00981A645FF
:1008000040F20681644402380021A4EB0E0440EA61
:1008100007401EB10023D440C6E90043BDE8F0877D
:100820008B4208D9002E00F0EE800021C6E90005B9
:100830000846BDE8F087B3FA83F100294AD1AB42FC
:1008400002D3824200F2FC80841A65EB030301208C
:100850009846002EE2D0C6E90048DFE702B9FFDE85
:10086000B2FA82F2002A40F09180A1EB0C00012143
:100870004FEA1C471FFA8CFEB0FBF7F307FB13008F
:10088000250C45EA00450EFB03F0A84208D91CEBF5
:10089000050503F1FF3802D2A84200F2CE8043469C
:1008A0002D1AB5FBF7F007FB10550EFB00FEA4B2A6
:1008B00044EA0544A64508D91CEB040400F1FF35C1
:1008C00002D2A64500F2B6802846A4EB0E0440EA08
:1008D00003409EE7C1F120078B4022FA07FC4CEA57
:1008E000030C25FA07FA4FEA1C49BAFBF9F820FA7B
:1008F00007F309FB18AA8D401FFA8CFE1D4300FA6E
:1009000001F308FB0EF02C0C44EA0A44A04202FA60
:1009100001F20BD91CEB040408F1FF3A80F0888047
:10092000A04240F28580A8F102086444241AB4FB76
:10093000F9F009FB104400FB0EFEADB245EA044499
:10094000A64508D91CEB040400F1FF356CD2A6457E
:100950006AD90238644440EA0840A0FB0295A4EB3F
:100960000E04AC42C846AE4656D353D0002E69D0D2
:10097000B3EB080264EB0E0422FA01F304FA07F762
:100980001F43CC40C6E90074002147E70CFA02FC83
:10099000C2F1200125FA01F34FEA1C4720FA01F1C8
:1009A00095400D43B3FBF7F107FB11331FFA8CFEA3
:1009B000280C40EA034001FB0EF3834204FA02F4E0
:1009C00008D91CEB000001F1FF382FD283422DD94A
:1009D00002396044C01AB0FBF7F307FB1300ADB255
:1009E00045EA004503FB0EF0A84208D91CEB0505BB
:1009F00003F1FF3816D2A84214D9023B6544281AE5
:100A000043EA014138E73146304607E72F46E4E63E
:100A10001846F9E64B45A9D2B9EB020865EB0C0E76
:100A20000138A3E74346EAE7284694E74146D1E781
:100A3000D0467BE76444023847E7023B65442FE732
:100A4000084606E73146E9E6704700BF00B585B0C5
:100A500000230193029303932B482C4A02604FF426
:100A600080728260037303754FF46022C261436039
:100A70000523036101F094F8002832D1002301938B
:100A8000012302930523039301A91F4800F0DEFE12
:100A900050BB012301930223029301A91A4800F0DD
:100AA000D5FE20BB022301930323029301A916481C
:100AB00000F0CCFEF0B903230193042302930DEB65
:100AC0000301114800F0C2FEB8B9042301930523C5
:100AD000029301A90C4800F0B9FE88B905B05DF891
:100AE00004FB00F08FFAC9E700F08CFAD1E700F0C0
:100AF00089FAD7E700F086FADDE700F083FAE4E749
:100B000000F080FAEAE700BFB008002000240140AE
:100B100010B586B0002302930393049305930268F3
:100B20001E4B9A4201D006B010BD044603F56C433B
:100B30009A6942F400729A619A6902F40072009212
:100B4000009A9A6942F004029A619B6903F00403D7
:100B50000193019B1F2302930323039302A91048CF
:100B600001F0A4FA0F48104B036000234360836038
:100B70008022C2604FF4807202614FF48062426151
:100B800020228261C36101F07DF918B9054B23620F
:100B90005C62C8E700F036FAF8E700BF00240140C5
:100BA00000080140E00800200800024000B583B0C2
:100BB0000A4B5A6942F001025A615B6903F0010372
:100BC0000193019B002205210B2001F0FFF80B206F
:100BD00001F034F903B05DF804FB00BF00100240DF
:100BE00008B5012002F030FCFBE7000010B5194801
:100BF00003F04CFF184B1860184B00221A60184B7A
:100C0000184A1A6003F03AFB174B1B683C22DA6360
:100C100013E0164B1B786BB10F4C104B1A68144B3A
:100C20001968206803F064FF2368196D0C4B18687D
:100C300003F002FC012002F007FC0E4B9B79012B14
:100C4000E7D10A4B1B78002BE3D1084B01221A7025
:100C5000DFE700BF04000020340900206409002001
:100C60003009002000003442F00C00205E09002012
:100C70005809002044000020034B0360034B0B6025
:100C800080231360704700BF680B002068090020B4
:100C900010B596B01B4C0DF13C0CA646BEE80F00FB
:100CA000ACE80F009EE807008CE8070000210FA8C1
:100CB00002F095FB144B18600DF1200C04F11C0E92
:100CC000BEE80F00ACE80F009EE807008CE80700C4
:100CD000002108A802F083FB0C4B18600DF1040EF4
:100CE00004F1380CBCE80F00AEE80F009CE80700E8
:100CF0008EE80700002101A802F071FB044B186088
:100D000016B010BD405600083C09002038090020EC
:100D10006009002038B5C28840F254639A4247D92E
:100D20003C4B0022DA60028940F254639A4243D974
:100D3000384B394A1A61828840F254639A423FD94B
:100D4000344B364A9A60428840F254639A423BD907
:100D5000304B4FF081425A60028840F254639A420D
:100D600036D92C4B2E4A1A602A4B1D680021284682
:100D7000FFF790FC00282FD00021264B5868FFF782
:100D800089FC48B30021234B9868FFF783FC18B314
:100D90000021204BD868FFF77DFCE8B100211D4BF6
:100DA0001869FFF777FCB8B11E4B01221A7016E0E4
:100DB000184B0022DA60B6E7164B00221A61BAE738
:100DC000144B00229A60BEE7124B00225A60C3E720
:100DD000104B00221A60C7E7124B00221A700D4C0C
:100DE00061682846FFF7BAF9A168FFF7B7F9E1682B
:100DF000FFF7B4F92169FFF7B1F904460A4B1888E7
:100E0000FFF760FA01462046FFF764FB074B1860C6
:100E100038BD00BF40090020000080C00000C0C0F5
:100E20000000C040540900200000002058090020A4
:100E300038B503F023FA214B1B680022DA6303F074
:100E40006FF91F4D28801F4C052221461E4800F0D7
:100E5000E3FD2046FFF75EFF03F016FA01231B4A6D
:100E6000127B1946184603F05FFC02232A880121F1
:100E7000184603F059FC0423A2880121032003F043
:100E800053FC042322890621032003F04DFC042394
:100E9000E2880B21032003F047FC04236288012130
:100EA000184603F041FC042322880621184603F06B
:100EB0003BFC012002F0C8FAC1E700BFF00C0020A3
:100EC0005C09002024090020B00800204400002014
:100ED0002DE9F04788B00024049405940694079403
:100EE0003D4B9A6942F010029A619A6902F0100231
:100EF0000092009A9A6942F020029A619A6902F07F
:100F000020020192019A9A6942F004029A619A6958
:100F100002F004020292029A9A6942F008029A616F
:100F20009B6903F008030393039BDFF8B09022460C
:100F30004FF42041484601F0D2F9DFF8A480224660
:100F40004FF43C41404601F0CAF9264D22464FF489
:100F50001141284601F0C3F94FF4204304930127BF
:100F6000059706940226079604A9484601F09EF8C4
:100F70004FF4804ACDF810A00594069404A9484681
:100F800001F094F84FF43C430493059706940796B8
:100F900004A9404601F08AF8CDF810A0124B059341
:100FA000069404A9404601F081F84FF411430493DC
:100FB00005970694079604A9284601F077F84FF4A0
:100FC000006304930594069404A9284601F06EF882
:100FD00008B0BDE8F08700BF0010024000100140DB
:100FE000000C0140000801400000111008B5026823
:100FF000034B9A4200D008BD00F0D8FBFBE700BFCE
:10100000002C014072B6FEE700B595B02822002101
:101010000DEB020004F0D8F8002305930693079324
:1010200008930993019302930393049301220A9274
:101030004FF480330B930E920222119212934FF4CD
:10104000E01313930AA801F067F9C8B90F230593B9
:1010500002210691002307934FF4806208920993BE
:1010600005A801F08BFB68B9022301934FF40043FC
:10107000039301A801F07CFC30B915B05DF804FBC6
:10108000FFF7C0FFFFF7BEFFFFF7BCFF08B500F09A
:101090007BFBFFF7B9FFFFF71BFFFFF787FD00F0B2
:1010A0004FF800F0FDF900F03BFA00F095FA00F07F
:1010B000EFFAFFF7CBFC1E4800F0F6FD1D4C0021B7
:1010C000204602F061F80421204602F05DF81A4C37
:1010D0000021204602F058F80421204602F054F87E
:1010E0000821204602F050F80C21204602F04CF86E
:1010F000124C0021204602F047F80421204602F05D
:1011000043F80821204602F03FF80C21204602F067
:101110003BF8482003F05AF803F030FB03F0AEF838
:1011200003F0B0FAFFF7B4FD02F054F9FEE700BF98
:10113000B0080020600C0020A80C0020F00C00205B
:1011400008B50E480E4B03604FF4827343600023D2
:101150008360C360036143614FF40072826138228F
:10116000C2610362436283620A23C36201F0F8FC36
:1011700000B908BDFFF746FFFBE700BFBC0B00202E
:101180000030014010B586B000230293039304930E
:1011900005930268164B9A4201D006B010BD03F5C4
:1011A00060439A6942F480529A619A6902F48052CB
:1011B0000092009A9A6942F004029A619B6903F0D6
:1011C00004030193019BA0230293022303930323AF
:1011D0000593084C02A9204600F068FF40230293C3
:1011E00000230393049302A9204600F05FFFD4E795
:1011F000003001400008014000B583B0114B9A69EE
:1012000042F001029A619A6902F001020092009A8A
:10121000DA6942F08052DA61DB6903F080530193AE
:10122000019B00220F216FF0010000F0CFFD064A64
:10123000536823F0E06343F00073536003B05DF83C
:1012400004FB00BF001002400000014030B589B02F
:1012500004461E4B9A6942F400629A619B6903F44A
:1012600000630193019B02A903A801F063FB01F055
:1012700051FB03461648A0FB03239B0C013B15487A
:10128000154A026040F2E732C26043600023036106
:101290008360836101F070FE054610B1284609B0F5
:1012A00030BD0C4801F03EFD05460028F6D119205E
:1012B00000F0C4FD0F2C01D90125EFE700222146E3
:1012C000192000F083FD054B1C60E7E70010024089
:1012D00083DE1B43140C0020002C0140380000204A
:1012E000FEE7FEE7FEE7FEE7FEE7704708B50248C7
:1012F00000F03AFE08BD00BFE008002008B5024833
:1013000001F048FD08BD00BF140C002010B50346D5
:101310000C4A0D490D48006840B10C480068034470
:10132000521A934206D8094A136010BD0748084C68
:101330000460F2E703F06AFC0C2303604FF0FF3017
:10134000F3E700BF00500020000400005C0C002008
:10135000A81B00207047000084B00368B3F1804FE1
:1013600007D0154A934210D0144A934218D004B0C3
:10137000704703F50433DA6942F00102DA61DB6990
:1013800003F001030193019BF1E70D4BDA6942F091
:101390000202DA61DB6903F002030293029BE6E7D3
:1013A000074BDA6942F00402DA61DB6903F00403F7
:1013B0000393039BDBE700BF0004004000080040EC
:1013C0000010024000B589B00023049305930693F2
:1013D00007930368B3F1804F08D02C4A934223D07F
:1013E0002B4A93423DD009B05DF804FB03F504336A
:1013F0009A6942F008029A619B6903F0080301931D
:10140000019B0823049302230593079304A9214811
:1014100000F04CFE204A536823F4407343F0E0632D
:1014200043F480735360DEE71C4B9A6942F0080274
:101430009A619B6903F008030293029B3323049390
:1014400002230593079304A9124800F02FFE124AC5
:10145000536823F4406343F0E06343F40063536054
:10146000C1E70E4B9A6942F008029A619B6903F04A
:1014700008030393039B4FF47073049302230593B3
:10148000079304A9034800F011FEACE700040040F4
:1014900000080040000C0140000001400010024024
:1014A00000B58BB000230893099301930293039333
:1014B000049305930693079318484FF08042026007
:1014C0004722426083606322C2600361836101F04E
:1014D0007FFDD0B900230893099308A90F4801F0B4
:1014E000C1FEA8B9602301930023029303930593DF
:1014F00004220DEB0201094801F0C8FD58B9074864
:10150000FFF760FF0BB05DF804FBFFF77BFDE1E741
:10151000FFF778FDE6E7FFF775FDF0E7600C0020C8
:1015200000B58BB0002308930993019302930393B2
:1015300004930593069307932548264A02604722A1
:10154000426083606322C2600361836101F040FDF9
:1015500058BB00230893099308A91D4801F082FE97
:1015600030BB60230193002202920392059201A9ED
:10157000174801F08BFDF0B904220DEB020114486D
:1015800001F084FDD0B9082201A9114801F07EFDC7
:10159000B8B90C2201A90E4801F078FDA0B90C4899
:1015A000FFF710FF0BB05DF804FBFFF72BFDD0E752
:1015B000FFF728FDD5E7FFF725FDDDE7FFF722FD63
:1015C000E1E7FFF71FFDE4E7FFF71CFDE7E700BFDA
:1015D000A80C00200004004000B58BB00023089345
:1015E000099301930293039304930593069307933E
:1015F0002548264A02604722426083606322C26017
:101600000361836101F0E4FC58BB00230893099354
:1016100008A91D4801F026FE30BB6023019300227B
:1016200002920392059201A9174801F02FFDF0B92B
:1016300004220DEB0201144801F028FDD0B9082264
:1016400001A9114801F022FDB8B90C2201A90E48E8
:1016500001F01CFDA0B90C48FFF7B4FE0BB05DF81B
:1016600004FBFFF7CFFCD0E7FFF7CCFCD5E7FFF793
:10167000C9FCDDE7FFF7C6FCE1E7FFF7C3FCE4E7E1
:10168000FFF7C0FCE7E700BFF00C002000080040B7
:1016900008B50A480A4B03604FF4E1334360002366
:1016A0008360C36003610C2242618361C36101F006
:1016B0005BFE00B908BDFFF7A5FCFBE7380D002075
:1016C0000038014010B586B00023029303930493C1
:1016D00005930268174B9A4201D006B010BD03F57E
:1016E00058439A6942F480429A619A6902F48042AE
:1016F0000092009A9A6942F004029A619B6903F091
:1017000004030193019B4FF400730293022303939C
:1017100003230593084C02A9204600F0C7FC4FF4B0
:101720008063029300230393049302A9204600F0F0
:10173000BDFCD2E70038014000080140FFF70AFE77
:101740000B480C490C4A002302E0D458C45004331F
:10175000C4188C42F9D3094A094C002301E01360F4
:101760000432A242FBD303F057FAFFF78FFC704715
:101770000000002094080020085D00089408002064
:10178000A41B0020FEE7000008B5074A136843F0D9
:1017900010031360032000F007FB0F20FFF756FD36
:1017A000FFF72AFD002008BD00200240034A11680F
:1017B000034B1B780B441360704700BF800D002063
:1017C00034000020014B1868704700BF800D0020D6
:1017D000704708B5436A9A6A12F0500F1ED19A6A90
:1017E00042F400729A621A68926802F46022B2F5BA
:1017F000602F03D01846FFF7EBFF08BD1A7B002AC5
:10180000F8D19A6A22F480729A629A6A12F4805F1E
:10181000F0D19A6A42F001029A62EBE71B6A1B6BF5
:101820009847EAE7704708B5406AFFF7FBFF08BD35
:10183000704708B5406A836A43F040038362C36A15
:1018400043F00403C362FFF7F3FF08BD30B482B076
:101850000022019290F82420012A00F09180034692
:10186000012280F824204A68062A2DD80468606B7B
:1018700002EB8202053A4FF01F0C0CFA02FC20EA40
:101880000C000D6805FA02F2024362630A68092A35
:101890003AD91C68E06802EB42021E3A4FF0070C8E
:1018A0000CFA02FC20EA0C008D6805FA02F20243F1
:1018B000E2600A68103A012A36D90020002283F833
:1018C000242002B030BC70470C2A0ED80568286B63
:1018D00002EB8202233A1F24944020EA04000C68A1
:1018E00004FA02F202432A63D0E70568E86A02EBD1
:1018F0008202413A1F24944020EA04000C6804FA52
:1019000002F20243EA62C1E71C68206902EB42026C
:101910004FF0070C0CFA02FC20EA0C008D6805FA67
:1019200002F202432261C4E71A681648824205D0D7
:101930009A6A42F020029A620120BFE7906810F490
:10194000000F1BD1906840F4000090600A68102AD4
:1019500001D00020B2E70C4A12680C49A1FB021228
:10196000920C02EB82025200019202E0019A013ACB
:101970000192019A002AF9D100209FE700209DE7FB
:1019800002209EE7002401403000002083DE1B433C
:1019900030B583B00023019303689A6812F0010FF9
:1019A00033D104469A6842F001029A60184B1B68D2
:1019B000184AA2FB03239B0C019302E0019B013B0D
:1019C0000193019B002BF9D1FFF7FCFE054623682C
:1019D0009B6813F0010F16D1FFF7F4FE431B022B97
:1019E000F5D923689B6813F0010FF0D1A36A43F087
:1019F0001003A362E36A43F00103E362002384F867
:101A00002430012002E0002000E0002003B030BDBF
:101A10003000002083DE1B43F8B504460D46164611
:101A200001684448814259D0434B994256D094F8BA
:101A30002430012B7CD0012384F824302046FFF78A
:101A4000A7FF074600286ED1A16A21F4706121F03A
:101A5000010141F48071A1622268374B9A4244D05F
:101A6000A36A23F48013A362536813F4806F05D034
:101A7000A36A23F4405343F48053A362A36A13F48C
:101A8000805F48D0E36A23F00603E362002384F812
:101A90002430236A294A9A62236A294ADA62236A2D
:101AA000284A1A6323686FF002021A60226893685A
:101AB00043F480739360216833462A464C31206A90
:101AC00000F016FA23689A6802F46022B2F5602FDB
:101AD00024D09A6842F480129A6027E0154B5B6824
:101AE00013F4702FA3D0012720E0A3F580635B6877
:101AF00013F4702FB4D0A36A43F48013A3620D4B88
:101B00005B6813F4806FB9D0A36A23F4405343F4A5
:101B10008053A362B2E70023E362B7E79A6842F416
:101B2000A0029A6002E0002384F824303846F8BD11
:101B30000227FBE70024014000280140D3170008DA
:101B4000271800083318000838B503689A6812F09F
:101B5000010F01D1002038BD04469A6822F001022D
:101B60009A60FFF72FFE054623689B6813F0010F6C
:101B700013D0FFF727FE431B022BF5D923689B6880
:101B800013F0010FF0D0A36A43F01003A362E36ADD
:101B900043F00103E3620120DDE70020DBE7000002
:101BA00000287BD070B50446836A002B4DD02046B8
:101BB000FFF7CAFFA36A13F0100369D1002867D1A9
:101BC000A26A22F4885222F0020242F00202A262C9
:101BD0006268E1690A43217B42EA4102A568B5F5E2
:101BE000807F02D0012D36D01D46267D012E35D0B6
:101BF0002668716821F46941294371602568AE68DF
:101C0000274931401143A960A168B1F5807F01D017
:101C1000012902D12369013B1B052568E96A21F4EA
:101C200070010B43EB62236899681E4B0B409A428C
:101C300025D0A36A23F0120343F01003A362E36AE2
:101C400043F00103E362012027E0C36280F82430FF
:101C5000FEF75EFFABE74FF48075C6E731B9A169C7
:101C6000013945EA413141F40065C1E7A16A41F01B
:101C70002001A162E16A41F00101E162B8E70023BD
:101C8000E362A36A23F0030343F00103A36204E0C9
:101C9000A36A43F01003A362012070BD01207047C6
:101CA000FDF7E1FFFE0E1FFF70B582B00023019328
:101CB00090F82430012B72D00446012380F82430A0
:101CC000FFF742FF2046FFF763FE054628B10023D9
:101CD00084F82430284602B070BDA36A23F48853E8
:101CE00023F0020343F00203A3622E4B1E6802207E
:101CF00000F0CAFEB6FBF0F67600019602E0019B0A
:101D0000013B0193019B002BF9D12268936843F0BA
:101D100008039360FFF756FD064623689A6812F0A1
:101D2000080F14D0FFF74EFD801B0A28F5D9236851
:101D30009B6813F0080FF0D0A36A23F0120343F05E
:101D40001003A362002384F824300125C2E79A68B7
:101D500042F004029A60FFF735FD064623689B684F
:101D600013F0040F14D0FFF72DFD801B0A28F5D9BE
:101D700023689B6813F0040FF0D0A36A23F01203CA
:101D800043F01003A362002384F824300125A1E767
:101D9000A36A23F0030343F00103A36297E702253C
:101DA00098E700BF30000020074AD36823F4E063BF
:101DB0001B041B0C000200F4E060034343F0BF630C
:101DC00043F40033D360704700ED00E000B5194BD9
:101DD000DB68C3F30223C3F1070CBCF1040F28BF77
:101DE0004FF0040C03F1040EBEF1060F18D9033BAB
:101DF0004FF0FF3E0EFA0CFC21EA0C0199400EFA5E
:101E000003F322EA0303194300280BDB0901C9B2DB
:101E100000F1604000F5614080F800135DF804FBBC
:101E20000023E5E700F00F000901C9B2024B195485
:101E3000F4E700BF00ED00E014ED00E0002807DB50
:101E400000F01F02400901239340024A42F820306B
:101E5000704700BF00E100E030B40124056CAC40E5
:101E6000C56B6C60046863604368102B05D0036821
:101E700099600368DA6030BC704703689A60036851
:101E8000D960F8E760B310B402460168154B0B4403
:101E90001548A0FB03031B099B001364134BD3637A
:101EA000022382F82130086820F47F5020F03000AF
:101EB000536894682343D4682343146923435469C3
:101EC000234394692343D469234303430B600020D5
:101ED0009063012382F8213082F8200010BC704703
:101EE00001207047F8FFFDBFCDCCCCCC00000240F4
:101EF00038B5044690F82000012832D0012084F83B
:101F0000200094F82100C0B2012804D0002384F8F6
:101F10002030022038BD022084F821000020A06378
:101F20002568286820F0010028602046FFF794FF0C
:101F3000E36A5BB12268136843F00E031360226802
:101F4000136843F0010313600020E3E7226813687D
:101F500023F0040313602268136843F00A0313603C
:101F6000EDE70220D6E7000038B5C36B1A680468B5
:101F70002568016C04238B40134235D015F0040F03
:101F800032D0236813F0200F03D1236823F0040319
:101F900023600368434A934214D01432934218D00A
:101FA0001432934217D01432934217D01432934212
:101FB00017D01432934202D04FF0806203E04FF406
:101FC000800200E00422384B5A60C36A03B198478C
:101FD00038BD4022F7E74FF48062F4E74FF48042C7
:101FE000F1E74FF48022EEE702238B4013423CD00E
:101FF00015F0020F39D0236813F0200F06D12368A3
:1020000023F00A032360012380F821300368254A66
:10201000934214D0143293421CD0143293421BD0FA
:10202000143293421BD0143293421BD01432934289
:1020300002D04FF0007203E04FF4001200E00222E1
:10204000194B5A60002380F82030836A002BBFD0E0
:102050009847BDE72022F3E74FF40072F0E74FF412
:102060000052EDE74FF40032EAE7082303FA01F1EA
:102070001142ADD015F0080FAAD0236823F00E034B
:102080002360026CC16B012303FA02F24A6083638E
:1020900080F82130002380F82030036B002B97D08C
:1020A000984795E7080002400000024070B582B0F2
:1020B0000024A446A6E0804DAA4210D007D97F4D47
:1020C000AA420CD005F58035AA4208D013E0A5F548
:1020D0008015AA4203D005F57025AA4207D18A6867
:1020E000002A58D0012A51D04361082403E0A5F505
:1020F0008015AA42F3D0BEF1FF0F4ED80646BEF1BE
:10210000FF0F4CD84FEA8C0233680F25954023EA25
:10211000050304FA02F2134333604B6813F0805F47
:102120006ED0674B9A6942F001029A619B6903F095
:1021300001030193019B4FEA9C02951C614B53F8EC
:1021400025600CF003039D000F23AB4026EA030635
:102150005D4B984229D003F58063984200F08E8051
:1021600003F58063984200F08B8003F5806398420A
:1021700019D004231AE0CC68BDE7CC680434BAE770
:10218000CC680834B7E7CC680C34B4E703610824A2
:10219000B1E70024AFE70424ADE7061DAFE7ACF1DB
:1021A00008029200B0E7032300E00023AB40334372
:1021B0000232444D45F822304B6813F4801F61D041
:1021C000424A936843EA0E0393604B6813F4001F7E
:1021D0005ED03E4AD36843EA0E03D3604B6813F4E3
:1021E000003F5BD0394A536843EA0E0353604B68A3
:1021F00013F4803F58D0354A136843EA0E03136046
:102200000CF1010C0A6832FA0CF353D0012303FAE3
:102210000CF302EA030E33EA0202F1D14A68122AF1
:102220003FF649AF122A3FF666AF01A555F822F0F6
:10223000DF20000877210008812100089321000891
:10224000F7200008F7200008F7200008F720000812
:10225000F7200008F7200008F7200008F720000802
:10226000F7200008F7200008F7200008F7200008F2
:10227000F72000087B21000887210008012395E74B
:10228000022393E7114A936823EA0E0393609CE7C5
:102290000E4AD36823EA0E03D3609FE70B4A5368C4
:1022A00023EA0E035360A2E7084A136823EA0E03E9
:1022B0001360A5E702B070BD0000221000003110CD
:1022C00000100240000001400008014000040140ED
:1022D0008368194201D001207047002070470AB17D
:1022E00001617047090401617047000082B0084B2A
:1022F0001B68084AA2FB03235B0A00FB03F301935C
:1023000000BF019B5A1E0192002BF9D102B0704709
:1023100030000020D34D6210002800F0F18170B52C
:1023200082B00446036813F0010F2CD0994B5B6810
:1023300003F00C03042B1DD0964B5B6803F00C03D9
:10234000082B12D06368B3F5803F41D0002B55D1E4
:1023500003F1804303F504331A6822F480321A60D3
:102360001A6822F480221A6037E08A4B5B6813F403
:10237000803FE7D0874B1B6813F4003F03D06368AE
:10238000002B00F0BF81236813F0020F75D0814B42
:102390005B6813F00C0F5FD07E4B5B6803F00C039F
:1023A000082B54D02369002B00F08A807A4B01223D
:1023B0001A60FFF707FA0546764B1B6813F0020F09
:1023C00075D1FFF7FFF9401B0228F5D903209EE1E4
:1023D000704A136843F480331360636843B3FFF7B4
:1023E000F1F905466B4B1B6813F4003FCBD1FFF7A7
:1023F000E9F9401B6428F5D9032088E1B3F5A02F43
:1024000009D0644B1A6822F480321A601A6822F4E8
:1024100080221A60E1E703F18043A3F53C331A6898
:1024200042F480221A601A6842F480321A60D4E7BB
:10243000FFF7C8F90546574B1B6813F4003FA2D0BD
:10244000FFF7C0F9401B6428F5D903205FE1514B29
:102450005B6813F4803FA5D14E4B1B6813F0020F4D
:1024600003D02369012B40F04F814A4A136823F0BF
:10247000F803616943EAC1031360236813F0080F8E
:1024800033D0A369002B5CD0434B0122C3F88024D6
:10249000FFF798F905463F4B5B6A13F0020F21D115
:1024A000FFF790F9401B0228F5D903202FE1394AA4
:1024B000136823F0F803616943EAC1031360DCE7A2
:1024C000354B00221A60FFF77DF90546314B1B683A
:1024D00013F0020FD1D0FFF775F9401B0228F5D990
:1024E000032014E10120FFF701FF236813F0040F1C
:1024F00000F09680274BDB6913F0805F34D1254BC9
:10250000DA6942F08052DA61DB6903F080530193AB
:10251000019B0125214B1B6813F4807F26D0E368C3
:10252000012B3DD0002B53D103F1804303F504333D
:102530001A6A22F001021A621A6A22F004021A626E
:1025400033E0154B0022C3F88024FFF73BF9054622
:10255000104B5B6A13F0020FC7D0FFF733F9401B33
:102560000228F5D90320D2E00025D3E70B4A1368EF
:1025700043F480731360FFF725F90646074B1B6889
:1025800013F4807FCBD1FFF71DF9801B6428F5D9A8
:102590000320BCE0001002400000424200700040F6
:1025A0005F4A136A43F001031362E36833B3FFF732
:1025B00009F906465A4B1B6A13F0020F2FD1FFF799
:1025C00001F9801B41F288339842F3D903209EE041
:1025D000052B09D0524B1A6A22F001021A621A6ABC
:1025E00022F004021A62E0E74D4B1A6A42F004023C
:1025F0001A621A6A42F001021A62D6E7FFF7E2F89D
:102600000646474B1B6A13F0020F08D0FFF7DAF8B3
:10261000801B41F288339842F3D9032077E0E5B973
:10262000E369002B72D03E4A526802F00C02082A7D
:1026300056D0022B17D03B4B00221A66FFF7C2F888
:102640000446374B1B6813F0007F47D0FFF7BAF8FA
:10265000001B0228F5D9032059E0314AD36923F041
:102660008053D361DCE72F4B00221A66FFF7AAF8EC
:1026700005462B4B1B6813F0007F06D0FFF7A2F82E
:10268000401B0228F5D9032041E0236AB3F5803FBF
:102690001AD023494B6823F47413226A606A0243F8
:1026A00013434B601F4B01221A66FFF78BF8044659
:1026B0001B4B1B6813F0007F0ED1FFF783F8001B44
:1026C0000228F5D9032022E0154A536823F4003389
:1026D000A1680B435360DCE7002018E0002016E0FF
:1026E000012B16D00E4B5B6803F48031226A9142B5
:1026F00011D103F47013626A93420ED1002006E0F8
:1027000001207047012002E0012000E0002002B01B
:1027100070BD0120FBE70120F9E70120F7E700BFCA
:1027200000100240000042420F4B5B6803F00C02B5
:10273000082A01D00D487047C3F383420C49885CD6
:1027400013F4803F0BD0084B5B68C3F34043094A46
:10275000D35C064A02FB00F0B0FBF3F07047064B77
:1027600003FB00F0704700BF0010024000127A0027
:10277000D0560008E056000800093D00002800F08F
:10278000A08070B50D460446524B1B6803F007034A
:102790008B420BD24F4A136823F007030B4313609D
:1027A000136803F007038B4240F08D80236813F019
:1027B000020F17D013F0040F04D0474A536843F4B4
:1027C000E0635360236813F0080F04D0424A536853
:1027D00043F460535360404A536823F0F003A16808
:1027E0000B435360236813F0010F31D06368012B52
:1027F00020D0022B25D0384A126812F0020F64D084
:1028000035494A6822F0030213434B60FEF7DAFFB2
:102810000646314B5B6803F00C036268B3EB820F32
:1028200016D0FEF7CFFF801B41F288339842F0D9D3
:10283000032045E0284A126812F4003FE0D101204D
:102840003EE0254A126812F0007FD9D1012037E01E
:10285000204B1B6803F00703AB420AD91D4A1368DB
:1028600023F007032B431360136803F00703AB4205
:102870002DD1236813F0040F06D0174A536823F4B0
:10288000E063E1680B435360236813F0080F07D03F
:10289000114A536823F46053216943EAC10353602A
:1028A000FFF742FF0C4B5B68C3F303130B4AD35C87
:1028B000D8400B4B18600B4B1868FEF7C7FC002084
:1028C00070BD012070470120FAE70120F8E70120E0
:1028D000F6E700BF0020024000100240B856000892
:1028E0003000002038000020014B1868704700BFFE
:1028F0003000002008B5FFF7F7FF044B5B68C3F317
:102900000223034AD35CD84008BD00BF0010024038
:10291000C856000808B5FFF7E7FF044B5B68C3F330
:10292000C223034AD35CD84008BD00BF0010024058
:10293000C85600080F2303600B4B5A6802F00302CD
:1029400042605A6802F0F00282605A6802F4E06263
:10295000C2605B68DB0803F4E0630361034B1B6840
:1029600003F007030B607047001002400020024094
:1029700070B582B00446036813F0010F36D03F4BA8
:10298000DB6913F0805F49D13C4BDA6942F0805239
:10299000DA61DB6903F080530193019B0125384B19
:1029A0001B6813F4807F3BD0344B1B6A13F44073D5
:1029B00013D0626802F440729A420ED02F4A136A12
:1029C00023F440702F490126C1F840640026C1F865
:1029D0004064106213F0010F36D1284A136A23F4C1
:1029E000407361680B431362002D3ED1236813F0DE
:1029F000020F06D0214A536823F44043A1680B43D9
:102A00005360236813F0100F34D01C4A536823F42A
:102A10008003E1680B43536000202CE00025BEE7F3
:102A2000174A136843F480731360FEF7CBFE064623
:102A3000134B1B6813F4807FB6D1FEF7C3FE801BD7
:102A40006428F5D9032016E0FEF7BCFE06460B4BC2
:102A50001B6A13F0020FC0D1FEF7B4FE801B41F2D7
:102A600088339842F3D9032005E0D36923F08053DB
:102A7000D361BBE7002002B070BD00BF0010024070
:102A8000007000400000424208B502284ED01028D5
:102A900003D0012828D0002008BD2B4B5A681868A5
:102AA00010F08070F8D0C2F383432849C85C12F458
:102AB000803F15D0244B5B68C3F34043244AD25C6B
:102AC000244BB3FBF2F303FB00F01F4B5B6813F4E2
:102AD000800FE1D14000204BA3FB00304008DBE732
:102AE0001E4B03FB00F0F0E7174B1B6A40F202326B
:102AF0001A40B2F5817F24D003F44073B3F5007F10
:102B000004D0B3F5407F09D00020C5E70E4A526AD1
:102B100012F0020FF5D049F64040BDE70A4B1868A5
:102B200010F40030B8D04FF22440B5E7FFF7F2FEC2
:102B3000054B5B68C3F3813301335B00B0FBF3F0FB
:102B4000AAE74FF40040A7E700100240E45600084F
:102B5000F456000800127A00ABAAAAAA00093D00A8
:102B6000002856D010B50446436A33B94368B3F51C
:102B7000827F05D00023C36102E00023036143612B
:102B80000023A36294F85130002B3CD0022384F838
:102B900051302268136823F040031360636803F424
:102BA0008273A26802F404421343E26802F40062F2
:102BB0001343226902F002021343626902F0010228
:102BC0001343A26902F400721343E26902F038026F
:102BD0001343226A02F080021343A26A02F40052F5
:102BE000216813430B60638B226803F00403536076
:102BF0002268D36923F40063D36100206065012358
:102C000084F8513010BD84F850302046FEF7BAFAEF
:102C1000BCE701207047000070B4036A026A22F02A
:102C2000010202624668826922F073020C6844EA7B
:102C3000020523F002028B6813430D4CA04209D019
:102C40000B4CA0420DD0466085614A684263036226
:102C500070BC704723F00803CA68134323F00403D1
:102C6000EEE726F440764A6932438E691643EAE776
:102C7000002C014030B4036A026A22F480720262BE
:102C80004568C26922F073020C68224323F4007382
:102C90008C6843EA04230F4CA04209D00D4CA0429B
:102CA0000ED04560C2614A68C263036230BC70479F
:102CB00023F40063CC6843EA042323F48063EDE744
:102CC00025F440554C6945EA04158C6945EA04151C
:102CD000E7E700BF002C014030B4036A026A22F427
:102CE000805202624468C26922F4E6420D6842EAF8
:102CF000052223F400538D6843EA0533074DA842AB
:102D000006D04460C2614A680264036230BC704706
:102D100024F480444D6944EA8514F2E7002C014014
:102D20007047000090F83D30DBB2012B27D1022321
:102D300080F83D300268D36843F00103D360036834
:102D4000114A934210D0B3F1804F0DD0A2F59432C6
:102D5000934209D002F58062934205D01A6842F08E
:102D600001021A60002070479A6802F00702062AE2
:102D700007D01A6842F001021A6000207047012053
:102D800070470020704700BF002C0140704770471B
:102D90007047704770B504460368DE681D6915F01A
:102DA000020F10D016F0020F0DD06FF002021A6160
:102DB0000123037703689B6913F0030F5ED0FFF7CD
:102DC000E6FF0023237715F0040F12D016F0040F4E
:102DD0000FD023686FF004021A610223237723685F
:102DE0009B6913F4407F4FD02046FFF7D0FF0023AC
:102DF000237715F0080F12D016F0080F0FD02368B4
:102E00006FF008021A61042323772368DB6913F04B
:102E1000030F40D02046FFF7BAFF0023237715F0B9
:102E2000100F12D016F0100F0FD023686FF01002A1
:102E30001A61082323772368DB6913F4407F31D0BC
:102E40002046FFF7A4FF0023237715F0010F02D0DF
:102E500016F0010F2DD115F0800F02D016F0800F63
:102E60002FD115F0400F02D016F0400F31D115F0E0
:102E7000200F02D016F0200F33D170BDFFF786FF70
:102E80002046FFF785FF9CE72046FFF77FFF20469F
:102E9000FFF77EFFABE72046FFF778FF2046FFF7FE
:102EA00077FFBAE72046FFF771FF2046FFF770FF74
:102EB000C9E723686FF001021A612046FEF796F811
:102EC000C9E723686FF080021A61204600F001FA1A
:102ED000C7E723686FF040021A612046FFF759FFE9
:102EE000C5E723686FF020021A61204600F0F0F970
:102EF000C3E7000003681F4A90420AD0B0F1804F38
:102F000007D0A2F59432904203D002F5806290423D
:102F100003D123F070034A681343164A90420AD043
:102F2000B0F1804F07D0A2F59432904203D002F561
:102F30008062904203D123F44073CA68134323F0A4
:102F400080034A69134303608B68C3620B68836222
:102F5000084B98420AD001234361036913F0010F23
:102F600003D0036923F00103036170470B69036316
:102F7000F1E700BF002C014040B310B5044690F8C3
:102F80003D30F3B1022384F83D30214651F8040B63
:102F9000FFF7B0FF012384F8463084F83E3084F810
:102FA0003F3084F8403084F8413084F8423084F86F
:102FB000433084F8443084F8453084F83D300020B4
:102FC00010BD80F83C30FFF7ABFEDBE70120704717
:102FD00040B310B5044690F83D30F3B1022384F8B5
:102FE0003D30214651F8040BFFF784FF012384F89C
:102FF000463084F83E3084F83F3084F8403084F81E
:10300000413084F8423084F8433084F8443084F806
:10301000453084F83D30002010BD80F83C30FEF78C
:103020009BF9DBE70120704730B4036A026A22F0A3
:10303000100202624468826922F4E6420D6842EAA4
:10304000052223F020038D6843EA05130E4DA842A4
:1030500009D00D4DA8420ED0446082614A68826357
:10306000036230BC704723F08003CD6843EA051348
:1030700023F04003EDE724F440644D6944EA8504FD
:103080008D6944EA8504E7E7002C014038B590F8E3
:103090003C30012B66D004460D46012380F83C30BD
:1030A0000C2A5AD8DFE802F0075959591B595959C7
:1030B0003059595944000068FFF7AEFD2268936902
:1030C00043F0080393612268936923F0040393613A
:1030D0002268936929690B43936100203EE00068F0
:1030E000FFF7A2FF2268936943F4006393612268AB
:1030F000936923F48063936122689369296943EAA1
:1031000001239361002029E00068FFF7B3FD2268E6
:10311000D36943F00803D3612268D36923F0040321
:10312000D3612268D36929690B43D361002015E07C
:103130000068FFF7D1FD2268D36943F40063D361CF
:103140002268D36923F48063D3612268D369296933
:1031500043EA0123D361002000E00120002384F82A
:103160003C3038BD0220FCE701F01F01012303FAC7
:1031700001FC036A23EA0C030362036A02FA01F109
:103180000B4303627047000010B50446084651BB6C
:1031900094F83E30DBB2013B18BF0123002B5BD11A
:1031A000002839D1022384F83E30012201462068EC
:1031B000FFF7DAFF23682A4A93423DD02368284A62
:1031C00093423ED0B3F1804F3BD0A2F5943293426C
:1031D00037D002F58062934233D01A6842F0010280
:1031E0001A60002039E0042908D008290DD094F88D
:1031F0004130DBB2013B18BF0123CFE794F83F30E9
:10320000DBB2013B18BF0123C8E794F84030DBB2C2
:10321000013B18BF0123C1E7042805D0082807D0C7
:10322000022384F84130C0E7022384F83F30BCE732
:10323000022384F84030B8E75A6C42F400425A64E2
:10324000BCE79A6802F00702062A07D01A6842F023
:1032500001021A60002000E0012010BD0020FCE700
:10326000002C014090F83C30012B2CD010B40123ED
:1032700080F83C30022380F83D3003685A689C682F
:1032800022F0700C0A6842EA0C025A6003680F4A86
:1032900093420AD0B3F1804F07D0A2F59432934203
:1032A00003D002F58062934204D124F080044A687E
:1032B00014439C60012380F83D30002380F83C30AB
:1032C000184610BC70470220704700BF002C014018
:1032D0007047704710B504460268136923F44053E1
:1032E000C1680B43136183680269134342691A433F
:1032F0000168CB6823F4B05323F00C031343CB6075
:103300000268536923F4407381690B435361026877
:10331000134B9A4220D0FFF7EDFA024602EB8202ED
:1033200002EB820263689B00B2FBF3F20D48A0FB44
:1033300002314909642303FB11231B013233A0FB33
:1033400003235B0903F0F00202EB011203F00F0309
:10335000216813448B6010BDFFF7DCFA0246DDE7FD
:10336000003801401F85EB5160B310B5044690F85A
:10337000413013B3242384F841302268D36823F406
:103380000053D3602046FFF7A5FF2268136923F49A
:10339000904313612268536923F02A035361226822
:1033A000D36843F40053D36000206064202384F882
:1033B000413084F84230606310BD80F84030FEF741
:1033C00081F9D7E701207047842801D00330704786
:1033D0000020704708B500F0E7FC002008BD2DE98B
:1033E000F04387B004460F464569BDB18669AEB16A
:1033F000D0F80480D0F80090B0F90800FFF7E4FF9F
:103400000296019500903B4622694946404600F0ED
:103410005BFC0590059807B0BDE8F08365682668F9
:10342000D4F81080B4F90800FFF7CEFF05AB019384
:1034300000903B461FFA88F23146284600F07FFC98
:103440000128E7D00020E6E708B500B9012000F028
:10345000F5FD002008BD00F1080343604FF0FF3286
:103460008260C3600361002303607047002303612F
:10347000704743684B609A688A6051609960086140
:10348000036801330360704730B40D68B5F1FF3F46
:1034900011D000F108031C465B681A68AA42FAD9E9
:1034A00063684B6099608C606160086103680133F8
:1034B000036030BC70470469F2E7036941688268C1
:1034C0008A60416851605A68824206D000220261D7
:1034D0001A68013A1A601868704782685A60F5E7FE
:1034E00082B0002301930D4B1B68B3F1FF3F08D05E
:1034F0004FF0500383F31188BFF36F8FBFF34F8FEB
:10350000FEE74FF0500383F31188BFF36F8FBFF3D3
:103510004F8F019B002BFCD002B070473C00002075
:1035200006480068006880F3088862B661B6BFF399
:103530004F8FBFF36F8F00DF00BF000008ED00E08A
:103540004FF0807340F8043C21F0010140F8081C62
:10355000034B40F80C3C40F8202C4038704700BF2B
:10356000E13400080000000000000000000000003E
:10357000074B19680868B0E8F00F80F30988BFF3BB
:103580006F8F4FF0000080F311884EF00D0E7047E2
:10359000AC1900204FF0500383F31188BFF36F8FF5
:1035A000BFF34F8F0B4A136801331360012B00D018
:1035B00070474FF0E023D3F8043D13F0FF0FF7D02E
:1035C0004FF0500383F31188BFF36F8FBFF34F8F1A
:1035D000FEE700BF3C000020094B1B6843B94FF0D9
:1035E000500383F31188BFF36F8FBFF34F8FFEE754
:1035F000013B034A13600BB983F31188704700BF86
:103600003C0000200000000000000000000000005E
:10361000EFF30980BFF36F8F0D4B1A6820E9F00FAD
:1036200010602DE908404FF0500080F3118800F041
:103630002BFD4FF0000080F31188BDE808401968A9
:103640000868B0E8F00F80F30988BFF36F8F704708
:10365000AC19002008B54FF0500383F31188BFF375
:103660006F8FBFF34F8F00F0E1FB28B14FF0E023E5
:103670004FF08052C3F8042D002383F3118808BD56
:103680004FF0E022002313619361054B1B6805494D
:10369000A1FB03139B09013B53610723136170478F
:1036A00030000020D34D621010B582B02A4B1A783A
:1036B000D2B20192FF221A701B78DBB28DF8033070
:1036C0009DF8033003F05003244A1370244B072263
:1036D0001A6009E0224A1368013B13609DF8033029
:1036E0005B00DBB28DF803309DF8033013F0800FE0
:1036F000F0D11B4B1B68032B08D04FF0500383F312
:103700001188BFF36F8FBFF34F8FFEE71B02144A80
:10371000136003F4E0631360019BDBB20E4A137085
:103720004FF0E023D3F8202D42F47002C3F8202D8F
:10373000D3F8202D42F07042C3F8202DFFF7A0FFF0
:103740000024084B1C60FFF7EBFE00F09DFCFFF728
:10375000C7FE204602B010BD00E400E0840D00204A
:10376000880D00203C000020124A12F0070F1ED0E6
:10377000D11D21F00701C1F5406313440A460E48EC
:103780000260002141601344083B23F007030B480B
:10379000036059601960991A51601360084B1960F1
:1037A000084B1960084B4FF000421A6070474FF405
:1037B0004063E4E7900D0020A41900208C0D002048
:1037C000981900209419002090190020154B1A46D2
:1037D0001B688342FBD3516802EB010C844509D07E
:1037E000416800EB010C634509D00360904218D09A
:1037F000106070474068014451601046F0E710B413
:10380000094C2468A3420AD05B68194441601368DC
:103810001B680360904200D0106010BC70470460C9
:10382000F8E77047A41900208C0D002070B50546FC
:1038300000F0F4FA364B1B68A3B1364B1B681D42EF
:103840004ED135B1083515F0070F02D025F0070528
:103850000835002D46D0304B1B68AB4251D32F4A60
:10386000146804E0FFF780FFE7E722461C46636820
:10387000AB4202D22368002BF7D1254B1B68A34231
:1038800041D0166808362368136063685B1B102BF1
:1038900010D9601910F0070F08D04FF0500383F3D0
:1038A0001188BFF36F8FBFF34F8FFEE743606560F2
:1038B000FFF78CFF626818490B689B1A0B60184968
:1038C00009688B4201D216490B60124B1B681343E7
:1038D000636000232360134A13680133136002E01E
:1038E000002600E0002600F02DFB16F0070F0CD09C
:1038F0004FF0500383F31188BFF36F8FBFF34F8FE7
:10390000FEE70026EFE70026EDE7304670BD00BF7A
:103910008C0D00209019002094190020A41900207B
:10392000981900209C190020002834D038B504468E
:10393000A0F1080550F8043C174A1268134208D158
:103940004FF0500383F31188BFF36F8FBFF34F8F96
:10395000FEE750F8081C41B14FF0500383F3118883
:10396000BFF36F8FBFF34F8FFEE723EA020340F8E8
:10397000043C00F053FA54F8041C084A13680B4442
:1039800013602846FFF722FF054A136801331360CE
:1039900000F0D8FA38BD7047901900209419002023
:1039A000A0190020084B1B681B6823B9074B4FF078
:1039B000FF321A607047044B1B68DB68DB685A688B
:1039C000024B1A60704700BFB0190020841A002013
:1039D0002DE9F04707469846089DDDF824900A9C9B
:1039E000266B02F18042013A06EB820626F00706BA
:1039F00000293AD08E464FF0000CBCF10F0F0BD8C7
:103A00001EF80C2004EB0C0383F834201EF80C3055
:103A100013B10CF1010CF0E7002384F84330062DBC
:103A200000D90625E56265644FF0000AC4F848A095
:103A3000201DFFF71BFD04F11800FFF717FD24619F
:103A4000C5F10705A5616462C4F84CA084F850A0D4
:103A5000424639463046FFF773FD2060B9F1000F4A
:103A600001D0C9F80040BDE8F087002384F8343065
:103A7000D5E7000038B5002407E004EB840293008A
:103A80000E481844FFF7E7FC0134062CF5D90C4D1D
:103A90002846FFF7E0FC0B4C2046FFF7DCFC0A4809
:103AA000FFF7D9FC0948FFF7D6FC0948FFF7D3FC1C
:103AB000084B1D60084B1C6038BD00BFB8190020C2
:103AC000581A00206C1A0020901A0020BC1A0020FE
:103AD000A81A0020B0190020B419002010B504461F
:103AE000FFF758FD214A136801331360204B1B6810
:103AF0005BB1204B1B686BB91D4B1B68DA6AE36A2C
:103B00009A4207D81A4B1C6004E0194B1C601368DA
:103B1000012B28D0184A136801331360E06A01238F
:103B20008340164A11680B43136000EB8000211D8F
:103B3000134B03EB8000FFF79CFCFFF74DFD0D4B93
:103B40001B687BB10A4B1B68DA6AE36A9A4209D2A6
:103B50004FF0E0234FF08052C3F8042DBFF34F8F96
:103B6000BFF36F8F10BDFFF785FFD3E7441A002026
:103B7000AC190020A41A0020501A0020541A00206A
:103B8000B819002010B5044690F8513063B1012BEC
:103B900011D0022B0ED04FF0500383F31188BFF3E6
:103BA0006F8FBFF34F8FFEE7006BFFF7BDFE204620
:103BB000FFF7BAFE10BDFFF7B7FEFBE70F4B1B6820
:103BC000D3B110B5FFF7E6FC0D4BDB68DC68201DB8
:103BD000FFF773FC0B4A1368013B1360074A136835
:103BE000013B1360FFF7F8FC2046FFF7CBFF034BC8
:103BF0001B68002BE6D110BD704700BF481A00209B
:103C0000BC1A0020441A002008B5FFF7D7FF074B65
:103C10001B68012BF9D94FF0E0234FF08052C3F815
:103C2000042DBFF34F8FBFF36F8FEEE7B81900205D
:103C300070B504460D461D4B1E681D4B18680430B8
:103C4000FFF73BFC50B91A4B1B68DA6A012303FAF1
:103C500002F218490B6823EA02030B60B4F1FF3F3C
:103C60000DD03444124B1B685C60A64210D9124B35
:103C700018680F4B19680431FFF706FC70BD002D62
:103C8000EFD00B4B196804310C48FFF7F2FBF5E756
:103C90000B4B1868064B19680431FFF7F5FB094B0D
:103CA0001B68A342EAD9074B1C60E7E7D01A002043
:103CB000AC190020541A0020B4190020A81A0020C2
:103CC000B0190020841A002030B587B00B9C7CB15D
:103CD0000C9DB5B154250495049D542D1AD04FF078
:103CE000500383F31188BFF36F8FBFF34F8FFEE74D
:103CF0004FF0500383F31188BFF36F8FBFF34F8FE3
:103D0000FEE74FF0500383F31188BFF36F8FBFF3CB
:103D10004F8FFEE7049D0C9D2C63022485F85140D3
:103D200000240394029505AC01940A9C0094FFF7CB
:103D30004FFE0C98FFF7D2FE059807B030BD2DE975
:103D4000F04385B00746884614461E469000FFF7AC
:103D50006DFD00B381465420FFF768FD0546B0B104
:103D6000C0F83090E5B1002385F8513003930295F7
:103D70000D9B01930C9B00933346224641463846E7
:103D8000FFF726FE2846FFF7A9FE012005E048467A
:103D9000FFF7CAFDE6E74FF0FF3005B0BDE8F0835E
:103DA0004FF0FF30F9E7000010B588B0002405940B
:103DB000069407AA06A905A8FCF75EFF059B0293D7
:103DC000069B019300942346079A0E490E48FFF77D
:103DD0007BFF0E4B186090B14FF0500383F31188B6
:103DE000BFF36F8FBFF34F8F094B4FF0FF321A6055
:103DF000084B01221A60084B1C60FFF755FC08B005
:103E000010BD00BFF8560008093C0008801A0020C9
:103E1000841A0020A41A0020D01A0020024A136835
:103E200001331360704700BF4C1A0020F8B53A4BBD
:103E30001B68002B69D1394B1D6801351D60C5B960
:103E4000374B1B681B6843B14FF0500383F3118855
:103E5000BFF36F8FBFF34F8FFEE7314A1168314BCD
:103E6000186810601960304A136801331360FFF757
:103E700099FD2E4B1B68AB423DD900272C4B1B688C
:103E8000DB6A03EB83039A002A4B9B58012B00D972
:103E90000127294B1B68002B3CD001273AE0012762
:103EA0001F4B1B681B6843B31D4B1B68DB68DC683A
:103EB00063689D4226D3261D3046FFF7FEFAA36AAB
:103EC0001BB104F11800FFF7F8FAE36A01229A40E7
:103ED0001A49086802430A6003EB83039A003146DB
:103EE00014481044FFF7C5FAE26A114B1B68DB6AFD
:103EF0009A42D4D2D4E70027D2E70C4B4FF0FF32DE
:103F00001A60BBE7094A1360B8E70D4A136801332A
:103F1000136000273846F8BD4C1A0020D01A002044
:103F2000B0190020B4190020881A0020841A00203B
:103F3000AC190020B8190020D41A0020541A00200F
:103F40008C1A002038B5354B1B6843B94FF050032D
:103F500083F31188BFF36F8FBFF34F8FFEE7FFF737
:103F600019FB2E4B1A68013A1A601B68002B4FD1BF
:103F70002B4B1B680BB900244BE00024294B1B681A
:103F80001BB3284BDB68DC6804F11800FFF795FAD7
:103F9000251D2846FFF791FAE06A01238340224A53
:103FA00011680B43136000EB800029461F4B03EBA5
:103FB0008000FFF75EFAE26A1D4B1B68DB6A9A42DB
:103FC000DCD31C4B01221A60D8E70CB1FFF7EAFCE6
:103FD000194B1C6884B9174B1C68D4B14FF0E0230F
:103FE0004FF08052C3F8042DBFF34F8FBFF36F8F94
:103FF00001240EE0013C07D0FFF718FF0028F9D09C
:104000000C4B01221A60F5E70B4B00221A60E2E725
:104010000024FFF7E1FA204638BD00BF4C1A00200B
:10402000441A0020901A0020541A0020B8190020C9
:10403000AC190020D41A00208C1A002010B5A8B1A9
:104040000446104B1B6843B14FF0500383F31188B3
:10405000BFF36F8FBFF34F8FFEE7FFF7DFFE002147
:104060002046FFF7E5FDFFF76DFF48B94FF0E0236D
:104070004FF08052C3F8042DBFF34F8FBFF36F8F03
:1040800010BD00BF4C1A0020204B1B681BB1204BF9
:1040900001221A6070471E4B00221A601D4B1B68DC
:1040A000B3FA83F3DBB2C3F11F0303EB83018A008E
:1040B00019498A5842B94FF0500383F31188BFF36E
:1040C0006F8FBFF34F8FFEE7134903EB830082002E
:1040D0000A4450684068506003EB830C4FEA8C023E
:1040E00008321144884209D003EB83039A000A4B3B
:1040F00013445B68DA68094B1A607047406862468F
:104100009100054A0A445060EEE700BF4C1A0020B7
:10411000D41A0020541A0020B8190020AC1900202D
:1041200038B5284C00224FF480712046FEF7D7F8AE
:10413000022000F093F801224FF480712046FEF730
:10414000CEF80F2000F08AF800224FF4807120464C
:10415000FEF7C5F800F06EF800F5EA4430344FF48D
:1041600000611848FEF7B4F840B900F063F88442E3
:104170004FF000038B41F2D2002038BD00F05AF816
:10418000054600F5EA4430344FF400610D48FEF76F
:104190009FF8012808D100F04DF884424FF0000349
:1041A0008B41F1D20020E8E700F044F8401B064BB9
:1041B000A3FB0030C0F34F10B0F5C87FDDD900205D
:1041C000DBE700BF0008014009CB3D8D0A4B1860BA
:1041D0000A4AD2F8FC3043F08073C2F8FC30084B36
:1041E000002159601A6842F001021A60054A116004
:1041F0005A68054B1A6070474000002000ED00E04F
:10420000001000E0DC1A0020D81A0020064B5B6882
:10421000064A12689A4203D905490A6801320A60BF
:10422000024A1360704700BF001000E0D81A002057
:10423000DC1A002008B5FFF7E9FF0023044A5068A4
:104240001818044A126804490968FCF77BFA08BD8B
:10425000001000E040000020DC1A002070B5064687
:10426000FFF7E8FF04460D46FFF7E4FF001B61EB94
:104270000501B04271F10003F6D370BD014B00227D
:104280009A7170474400002010B5224B9988186835
:10429000FEF71EF890B11F4B1B7B13B1013B1D4A6B
:1042A00013731C4B1B7B43B91A4B9B79013BDBB24D
:1042B000012B2BD9174B00229A7110BD154B9988F1
:1042C0001868FEF705F80028F7D1124B1B7B042B6A
:1042D00002D801330F4A13730E4B1B7B052BECD115
:1042E0000C4B9B7933B90B4C0123A371FDF76AFA90
:1042F000A060E2E7FDF766FA064B9B68C01AB0F5CE
:10430000FA7FDAD9034B02229A71D6E7014B0322D6
:104310009A71D2E744000020434200280ADD632856
:1043200001DD6FF062035B420B4A126800211164E9
:10433000D363704728B9084B1B6800221A64DA63FC
:10434000704710F1630F00DA6323034A12681364A5
:104350000023D363704700BFA80C0020434200280D
:104360000CDD632801DD6FF062035B420E4A1268C8
:10437000002191630D4A12681364704738B90A4BE3
:104380001A6800239363094A12681364704710F196
:10439000630F00DA6323044A12689363034B1B68BC
:1043A00000221A64704700BF600C0020F00C00204F
:1043B000434200280ADD632801DD6FF062035B429F
:1043C0000B4A1268536300239363704728B9084B64
:1043D0001B6800225A639A63704710F1630F00DA7A
:1043E0006323034A1268002151639363704700BF3F
:1043F000A80C0020434200280ADD632801DD6FF08D
:1044000062035B420B4A1268936300235363704755
:1044100028B9084B1B6800229A635A63704710F151
:10442000630F00DA6323034A126800219163536328
:10443000704700BFF00C002070B506460C462649B8
:104440002046FCF74FF950BB24492046FCF72CF9D5
:1044500098B3234D00224FF400512846FDF73FFF4B
:1044600001224FF400412846FDF739FF214630462E
:10447000FBF772FEFCF740F90546FFF74DFF2846B3
:10448000FFF76CFF31462046FBF768FEFCF734F976
:104490000446FFF78DFF2046FFF7ACFF70BD104DBF
:1044A00001224FF400512846FDF719FF00224FF476
:1044B00000412846FDF713FFD8E7094D00224FF4CD
:1044C00000412846FDF70BFF00224FF4005128461B
:1044D000FDF705FFCAE700BF0000A0400000A0C034
:1044E0000010014010B5FCF7F3FC0A4C01224FF418
:1044F00080612046FDF7F3FE0120FFF7AFFE0122A9
:104500004FF400612046FDF7EAFE0120FFF7A6FE0A
:1045100010BD00BF000C014010B5134C01224FF438
:1045200000612046FDF7DBFE0120FFF797FE012228
:104530004FF480612046FDF7D2FE0120FFF78EFE8A
:1045400000224FF400612046FDF7C9FE0120FFF76D
:1045500085FE00224FF480612046FDF7C0FE012059
:10456000FFF77CFE10BD00BF000C014010B50E4CE3
:1045700000224FF400612046FDF7B1FE0120FFF755
:104580006DFE01224FF480612046FDF7A8FE012058
:10459000FFF764FE01224FF400612046FDF79FFE05
:1045A0000120FFF75BFE10BD000C014070B5064610
:1045B00000241FE080222241194D32404FF4006157
:1045C0002846FDF78CFE0120FFF748FE01224FF43C
:1045D00080612846FDF783FE0120FFF73FFE0022A1
:1045E0004FF480612846FDF77AFE0120FFF736FE82
:1045F0000134E4B2072CDDD9094C01224FF480616B
:104600002046FDF76CFE0120FFF728FE00224FF444
:1046100080612046FDF763FE0120FFF71FFE70BD9D
:10462000000C014010B50446FFF776FF7820FFF735
:10463000BDFF0020FFF7BAFF2046FFF7B7FFFFF7E7
:1046400095FF10BD10B50446FFF766FF7820FFF711
:10465000ADFF4020FFF7AAFF2046FFF7A7FFFFF7B7
:1046600085FF10BD10B50C4640F0B000FFF7DAFF33
:10467000200940F01000FFF7D5FF04F00F00FFF70E
:10468000D1FF10BD38B5002509E00020FFF7DAFFA3
:104690000134E4B214F0800FF7D00135EDB2072DEC
:1046A00005D800212846FFF7DDFF0024F2E738BDDA
:1046B000F8B51546461E7600F6B24F1EFF00FFB253
:1046C00039463046FFF7CEFF002409E0A5F120036C
:1046D0000F4A02EB0313185DFFF7B4FF0134E4B295
:1046E000072CF3D9701C3946C0B2FFF7BBFF00247A
:1046F0000BE0A5F1200304F10802054901EB0313C7
:10470000985CFFF79FFF0134E4B2072CF1D9F8BDA4
:10471000005700080246012002E002FB00F01946A3
:104720004B1E0029F9D170472DE9F8438146884690
:1047300017461E4600241AE004EB0805EDB2311BB3
:1047400001390A20FFF7E6FFB7FBF0F00A4AA2FBA7
:104750000032D20802EB8202A0EB42023032691C26
:10476000D2B2C9B24846FFF7A3FF0134E4B2B44263
:10477000E2D3BDE8F88300BFCDCCCCCC08B5002295
:1047800004E00133B3F57A7FFBD30132B2F57A7FCF
:1047900001D20023F6E7FFF7A5FEAE20FFF742FFA8
:1047A000D520FFF73FFF8020FFF73CFFA820FFF751
:1047B00039FF3F20FFF736FFD320FFF733FF0020FC
:1047C000FFF730FF4020FFF72DFFA120FFF72AFF62
:1047D000C820FFF727FFDA20FFF724FF1220FFF79A
:1047E00021FF8120FFF71EFFCF20FFF71BFFD920FD
:1047F000FFF718FFF120FFF715FFDB20FFF712FF8F
:104800003020FFF70FFFA420FFF70CFFA620FFF7D3
:1048100009FF8D20FFF706FF1420FFF703FFAF20ED
:10482000FFF700FFFFF72EFF08BD38B504464568C7
:10483000816B406BFBF792FC4FF07C51FBF796FDD0
:1048400001462846FBF792FD216EFBF78FFDE064E1
:1048500038BDF8B50446456B416C2846FBF786FD2C
:104860000021FBF73FFF18B300212846FBF73AFF72
:10487000F8B1266A29463046FBF72AFFC0B9E76936
:1048800039463046FBF76AFC2946FBF721FF98B111
:1048900029463846FBF760FC01463046FBF75EFCD4
:1048A0003946FBF717FE0146E06CFBF75FFDE0645D
:1048B000F8BD05F10045DCE70023E364F8E70000FC
:1048C000F8B50446476CC16C3846FBF747FC064612
:1048D0001A4B1860216C3846FBF740FCA16CFBF7C3
:1048E0003DFC0546164B18600021FBF7FBFE10B39C
:1048F0002946E068FBF7D8FE48B1616B3846FBF704
:1049000035FD0021FBF7EEFE08B10023E364A56945
:1049100029463046FBF7E6FE10B10023E3646564E8
:1049200005F1004529463046FBF7BEFE10B10023D5
:10493000E3646564F8BD05F10045D9E75C1B002020
:10494000601B002038B504468568C16A006BFBF720
:1049500003FC01462846FBF709FD216EFBF7BAFD73
:10496000A06438BDF8B50446056E2946806CFBF797
:10497000FDFC0646A76A39462846FBF7EFFB0546CD
:1049800001463046FBF7A6FD0646A16D3846FBF70B
:10499000EDFC2946FBF79EFD01463046FBF7DEFBAA
:1049A000A064F8BDF8B50446056E2946006DFBF716
:1049B000DDFC0646676A39462846FBF7CFFB05460D
:1049C00001463046FBF786FD0646616D3846FBF72B
:1049D000CDFC2946FBF77EFD01463046FBF7BEFBCA
:1049E0002065F8BD38B50446C5682946006DFBF75B
:1049F00079FE00B1256505F100452946206DFBF7DC
:104A000053FE00B1256538BD70B50446056D25F02F
:104A100000451B49C068FBF7A9FC01462846FBF787
:104A200043FE30BBE66D26F0004516492846FBF7ED
:104A30003BFEF0B9E16A3046FBF78EFB20F0004008
:104A40002946FBF747FD1049FBF74CFE90B1A36EDA
:104A5000E26E013342F10002A366E266A16EE36EEC
:104A600040F2F512914273F1000302D3012384F85E
:104A7000703070BD00220023C4E91A23EEE700BFA6
:104A80006F12833A17B7D1383333733F38B50546C1
:104A9000782000F0E5F8044610B37822002100F0F9
:104AA00093FB2B6823606B686360AB68A360EB6863
:104AB000E3602B6923612B7D2375AB69A361EB69EF
:104AC000E3612B6A23626B6A6362AB6AA362054B84
:104AD0002366054A1378591C1170044A42F8234092
:104AE000204638BD0AD7233CE01A0020E41A0020F3
:104AF000F8B504460E46154690F91430002B5FDBDE
:104B0000E662E56531462846FBF726FB054660630D
:104B10000021FBF7E7FD002855D029462069FBF767
:104B2000C3FD00286AD021682846FBF71FFC2064DB
:104B300061682846FBF71AFC266E3146FBF716FC27
:104B4000E064A768A16B2846FBF706FB01463846E0
:104B5000FBF70CFC3146FBF7BDFCA064237D13F092
:104B6000040F33D1237D13F0200F33D1237D13F0B5
:104B7000020F33D1237D13F0400F33D1237D13F087
:104B8000010F33D1616CE06CFBF7E8FA6064216CD3
:104B9000FBF7E4FAA16CFBF7E1FA2065237D13F043
:104BA000100F27D12046FFF71DFFE36A2363206D16
:104BB0006065A36CA365636BA363E36CE363F8BDFB
:104BC000FFF722FF9CE705F10041A7E72046FFF72A
:104BD0002CFEC7E72046FFF73CFEC7E72046FFF75D
:104BE000B1FEC7E72046FFF7BDFEC7E72046FFF747
:104BF00067FEC7E72046FFF7D5FED3E7002323640F
:104C00006364A3642365E364CFE70000014B186885
:104C1000704700BF5400002070B50D4E0D4D761B3F
:104C2000B61006D0002455F8043B01349847A6423C
:104C3000F9D1094E094D00F0F7FC761BB61006D0ED
:104C4000002455F8043B01349847A642F9D170BDC1
:104C5000FC5C0008FC5C0008045D0008FC5C0008CB
:104C6000024B0146186800F003B800BF5400002052
:104C70002DE9F04F01F10B05162D064683B025D81E
:104C8000102900F2B88000F0F1FA102518224FF038
:104C9000020CB54F3A445368A2F108018B4200F070
:104CA000B7805A68D96822F003021A449C683046DB
:104CB000E1608C60516803F1080441F0010151602A
:104CC00000F0DAFA204603B0BDE8F08F35F00705B2
:104CD00000F19180A94200F28E8000F0C7FAB5F58C
:104CE000FC7FC0F094816B0A00F08C80042B00F2F2
:104CF0006A81AB0903F1390C03F138044FEACC00A7
:104D0000994F384443680838984206D10CE000298E
:104D100080F22681DB68984206D05A6822F00302AE
:104D2000511B0F29F3DDA4463C69DFF840E27445CE
:104D30007AD0626822F00302531B0F2B00F37681B6
:104D4000002BC7E904EE80F26781B2F5007F80F0A6
:104D500019810121D30852090B4491407A6857F810
:104D600033000A4307EBC3010839A060E1607A60B1
:104D700047F83340C46001214FEAAC0399409142A7
:104D800059D8114206D12CF0030C490011420CF104
:104D9000040CFAD007EBCC0948466446D0F80C80E6
:104DA000404508D11CE1002B80F22181D8F80C800D
:104DB000404500F01581D8F8042022F00302531B6F
:104DC0000F2BF0DD08EB050145F00105C8F8045094
:104DD0003046D8E90264F460A66043F00104C7E9F4
:104DE00004114C60C1E902EE48F8023000F044FAC8
:104DF00008F1080402E00C2300243360204603B0CD
:104E0000BDE8F08F4FF400704FF0400C3F2477E77F
:104E1000D3689A4208BF0CF1020C7FF442AF3C69A0
:104E2000DFF848E1744584D101217A684FEAAC0388
:104E300099409142A5D9BC68636823F003094D45A8
:104E400003D8A9EB05030F2B7ADCDFF824B1494B1B
:104E5000DBF800201B6801322B4404EB090A00F048
:104E60002F8103F580530F3323F47F6828F00F0858
:104E70004146304600F006FA411C024600F0EF8041
:104E8000824500F2EA803C4B1968414408461960AB
:104E900000F04981DBF80010019301311BBFA2EB48
:104EA0000A0A5044CBF80020186012F0070B00F0FB
:104EB0001181CBF108010A44CBF5805190440831AF
:104EC000A1EB0801C1F30B0A51463046009200F0F5
:104ED000D9F9421CDDE9002300F04B81801A00EB78
:104EE0000A08196848F001005144BC42BA601960D0
:104EF000506000F02481B9F10F0F40F222814FF091
:104F0000050E6068A9F10C0C2CF0070C00F00100F4
:104F100040EA0C006060BCF10F0F04EB0C00C0E92C
:104F200001EE00F22E8114465068144B1A688A4232
:104F300038BF1960124B1A688A4238BF196090E076
:104F4000621943F0010345F0010565603046BA601F
:104F50000834536000F090F9204603B0BDE8F08FAC
:104F6000D9681A44A2E600BF80040020880400200B
:104F700088080020941B0020641B00208C1B00204C
:104F8000901B0020B2F5206F4FEA52235FD3142B01
:104F900000F2B18003F15C01C9005B3378187958E5
:104FA0000838884200F08F804B6823F00303934257
:104FB00002D989688842F7D1C8687A68C4E90210C2
:104FC0008460CC60D7E6142B59D9542B00F29B8017
:104FD0002B0B03F16F0C03F16E044FEACC008FE64C
:104FE0000134A30700F108007FF4D8AE53E0444633
:104FF00042445368D8F80C1043F00103536054F84E
:10500000083F3046D9608B6000F036F9F6E64FEA8B
:10501000D50C05F108023CE622445368304643F0C3
:105020000103536000F028F90834E7E6611945F000
:105030000105656043F00105C7E904113046C1E987
:1050400002EE4D60A35000F017F90834D6E693093C
:1050500003F13901C9003833A0E7BC425ED0BC6817
:10506000606820F003084545A8EB050302D80F2B24
:105070003FF766AF304600F0FFF80024BEE603F1CC
:105080005C0C03F15B044FEACC0039E659F80839AF
:105090004B4540F095801CF0030F0CF1FF3CF5D11F
:1050A0007B6823EA01037B60490099423FF6C3AE67
:1050B00011B9C0E6490004341942FBD0A44669E6A0
:1050C00003F11008D4E601229B109A407B681A4332
:1050D0007A6073E702EB08014942C1F30B0A5146BB
:1050E0003046009200F0CEF8431CDDE900237FF447
:1050F000F5AEDA46F5E6542B26D8130B03F16F0113
:10510000C9006E334AE7B3F5AA7F26D8EB0B03F14B
:10511000780C03F177044FEACC00F1E5294B1868CD
:1051200040441860B6E6CAF30B0CBCF1000F7FF4E4
:10513000B1AEBC68C84448F001006060F5E61446B2
:10514000F3E60123536095E7B3F5AA7F24D8D30B88
:1051500003F17801C900773320E740F254529342BB
:1051600024D8AB0C03F17D0C03F17C044FEACC0096
:10517000C6E5ABF1080BD8444FF0000AA8EB0208D3
:10518000AFE604F108013046009300F003F9BC6873
:10519000009B60681968C8E640F254518B420BD8F6
:1051A000930C03F17D01C9007C33F7E64FF47E7068
:1051B0004FF07F0C7E24A3E54FF47E717E23EDE655
:1051C0007B6871E7641B0020830730B548D0541E0C
:1051D000002A3FD00346CAB201E0013C3AD303F8AB
:1051E000012B9D07F9D1032C2DD9CDB245EA052518
:1051F0000F2C45EA054536D9A4F1100222F00F0C18
:1052000003F1200EE6444FEA121C03F1100242E9BA
:10521000045542E9025510327245F8D10CF10102F1
:1052200014F00C0F03EB021204F00F0C13D0ACF1CE
:10523000040323F003030433134442F8045B934252
:10524000FBD10CF003042CB1CAB21C4403F8012BAF
:105250009C42FBD130BD64461346002CF4D1F9E7E3
:1052600003461446BFE71A46A446E0E7014800F0AB
:1052700091B900BF9C1B0020014800F08DB900BF10
:105280009C1B0020002238B5064D044608462A60C3
:10529000FCF73CF8431C00D038BD2B68002BFBD03A
:1052A000236038BDA01B0020024B13B1024800F060
:1052B00005B8704700000000C952000800230146ED
:1052C0001A46184600F06AB938B5084B084D5B1B02
:1052D0009C1007D0043B1D44013C55F80439984705
:1052E000002CF9D1BDE8384000F0A4B9085D0008F1
:1052F000045D0008F8B50C46234F0646FFF7B6FFDD
:10530000BB685D68C4F57E6325F003050F332B444D
:1053100023F47F6323F00F03A3F58054B4F5805F7B
:1053200007DB00213046FFF7ADFFBB682B449842F6
:1053300004D03046FFF7A0FF0020F8BD30466142A0
:10534000FFF7A0FF01300DD0104ABB682D1B45F0C0
:1053500001055D60136830461B1B1360FFF78CFF6F
:105360000120F8BD00213046FFF78CFFBA68831A90
:105370000F2BDEDD43F001035360054B03491B682F
:10538000C01A0860D5E700BF80040020641B00201D
:105390008808002000295ED0F8B50C460646FFF7C5
:1053A00065FF54F8042C784FA4F1080522F00101A0
:1053B0006818D7F808C04368844523F0030300F059
:1053C0008780D207436034D454F8082C07F10804CE
:1053D000AD1A1144AA68A24268D000EB030CDCF8B5
:1053E00004E0D5F80CC01EF0010FC2F80CC0CCF8D8
:1053F000082000F0918041F001036B600160B1F57D
:10540000007F31D24A09CB08012191407A680133EB
:105410001143796007EBC30257F83310083AC5E926
:10542000021247F83350CD603046BDE8F840FFF730
:1054300023BFC2185268D2070ED4194407F10804DA
:105440008368A34270D0C268DA60936041F00103C0
:105450006B606950D3E7704741F00103B1F5007FFD
:1054600044F8043C0160CDD3B1F5206F4FEA5123DD
:1054700047D28B0903F1390003F13802C300F81851
:10548000FB580838984258D05A6822F003028A42E2
:1054900002D99B689842F7D1D868C5E90230856087
:1054A0003046DD60BDE8F840FFF7E6BEC21852683E
:1054B000D20763D40B44D0E90212CA60916043F072
:1054C00001026A603046EB50BDE8F840FFF7D4BEF9
:1054D0000B44D10707D454F8082CAD1A1344D5E96E
:1054E0000212CA60916043F001026A60274ABD60FF
:1054F00012689A4298D8264B30461968FFF7FAFE90
:1055000092E7142B0AD9542B1FD80B0B03F16F0011
:1055100003F16E02C300B2E7194491E703F15C00A6
:1055200003F15B02C300AAE741F00103C7E9045598
:10553000C5E902446B60695076E70121921001FAD7
:1055400002F279680A437A60A7E7B3F5AA7F06D822
:10555000CB0B03F1780003F17702C3008FE740F231
:105560005452934206D88B0C03F17D0003F17C0268
:10557000C30084E74FF47E737E2280E741F001038D
:105580006B60016050E700BF800400208C080020A1
:10559000941B0020704700BF704700BF2DE9F04703
:1055A000DFF87CA00646DAF8000098460F469146E0
:1055B000FFF7F0FF1B4B1B68D3F8484124B3656825
:1055C0001F2D26DC5EB96B1C0235DAF80000636023
:1055D00044F82570FFF7E0FF0020BDE8F0870123C5
:1055E00004EB8501C1F88890D4F88821AB401A43B8
:1055F000022EC4F88821C1F80881E4D1D4F88C21A6
:105600001343C4F88C31DEE703F5A674C3F84841B0
:10561000D5E7DAF80000FFF7BFFF4FF0FF30DCE717
:1056200090080020F05C0008F8B500BFF8BC08BC8A
:105630009E467047F8B500BFF8BC08BC9E46704750
:1056400094560008E10B0008000000000000000074
:10565000800000000000000000000000A0560008CC
:10566000ED0B0008000000000000000080000000BA
:105670000000000000000000B0560008310E0008D5
:10568000000000000000000080000000000000009A
:1056900000000000636D645F7461736B00000000C4
:1056A000636861737369735F7461736B00000000FA
:1056B00073656E736F720000000000000000000050
:1056C00001020304060708090000000001020304A8
:1056D00002030405060708090A0B0C0D0E0F101033
:1056E0000102000002030405060708090A0B0C0D5D
:1056F0000E0F10100102000049444C45000000004C
:105700000000000000000000000000000000000099
:10571000000000F80000000000000033300000002E
:1057200000100C06100C0600000000000000000035
:1057300040C07840C0784000043F04043F040400A7
:10574000007088FC08300000001820FF211E0000B7
:10575000F008F000E018000000211C031E211E00CC
:1057600000F00888700000001E2123241927211052
:1057700010160E00000000000000000000000000F5
:10578000000000E01804020000000007182040009C
:1057900000020418E000000000402018070000008C
:1057A000404080F0804040000202010F01020200F0
:1057B000000000F0000000000101011F01010100D4
:1057C000000000000000000080B070000000000039
:1057D00000000000000000000001010101010101C2
:1057E0000000000000000000003030000000000059
:1057F000000000008060180400601806010000002E
:1058000000E010080810E000000F102020100F002A
:10581000001010F8000000000020203F20200000B1
:105820000070080808887000003028242221300009
:1058300000300888884830000018202020110E0011
:105840000000C02010F8000000070424243F2400BA
:1058500000F80888880808000019212020110E008F
:1058600000E0108888180000000F112020110E00A1
:1058700000380808C83808000000003F0000000099
:105880000070880808887000001C222121221C005A
:1058900000E010080810E0000000312222110F0083
:1058A000000000C0C0000000000000303000000018
:1058B0000000008000000000000080600000000088
:1058C00000008040201008000001020408102000A1
:1058D00040404040404040000404040404040400EC
:1058E0000008102040800000002010080402010081
:1058F000007048080808F000000000303601000081
:10590000C030C828E810E0000718272423140B0033
:105910000000C038E0000000203C230202273820AD
:1059200008F8888888700000203F202020110E0091
:10593000C030080808083800071820202010080088
:1059400008F808080810E000203F202020100F0071
:1059500008F88888E8081000203F2020232018003D
:1059600008F88888E8081000203F200003000000A5
:10597000C03008080838000007182020221E020046
:1059800008F808000008F808203F210101213F2005
:10599000000808F8080800000020203F2020000030
:1059A00000000808F8080800C08080807F00000020
:1059B00008F888C028180800203F20012638200059
:1059C00008F8080000000000203F202020203000C0
:1059D00008F8F800F8F80800203F003F003F2000DA
:1059E00008F830C00008F808203F200007183F00E2
:1059F000E01008080810E0000F10202020100F0011
:105A000008F808080808F000203F21010101000003
:105A1000E01008080810E0000F18242438504F0048
:105A200008F8888888887000203F2000030C302008
:105A300000708808080838000038202121221C0046
:105A4000180808F8080818000000203F200000008F
:105A500008F808000008F808001F202020201F0078
:105A60000878880000C83808000007380E010000D8
:105A7000F80800F80008F800033C0700073C0300A2
:105A8000081868808068180820302C03032C302008
:105A90000838C800C83808000000203F2000000077
:105AA00010080808C83808002038262120201800CF
:105AB000000000FE020202000000007F40404000A3
:105AC000000C30C000000000000000010638C000DB
:105AD00000020202FE000000004040407F00000083
